{
  "_format": "hh-sol-artifact-1",
  "contractName": "Access",
  "sourceName": "contracts/Access.sol",
  "abi": [
    {
      "inputs": [
        {
          "internalType": "string",
          "name": "_name",
          "type": "string"
        }
      ],
      "name": "addEmployee",
      "outputs": [],
      "stateMutability": "nonpayable",
      "type": "function"
    },
    {
      "inputs": [
        {
          "internalType": "uint256",
          "name": "",
          "type": "uint256"
        }
      ],
      "name": "employee",
      "outputs": [
        {
          "internalType": "string",
          "name": "name",
          "type": "string"
        },
        {
          "internalType": "enum Access.Role",
          "name": "role",
          "type": "uint8"
        },
        {
          "internalType": "bool",
          "name": "isTerminated",
          "type": "bool"
        }
      ],
      "stateMutability": "view",
      "type": "function"
    },
    {
      "inputs": [],
      "name": "getAll",
      "outputs": [
        {
          "components": [
            {
              "internalType": "string",
              "name": "name",
              "type": "string"
            },
            {
              "internalType": "enum Access.Role",
              "name": "role",
              "type": "uint8"
            },
            {
              "internalType": "bool",
              "name": "isTerminated",
              "type": "bool"
            }
          ],
          "internalType": "struct Access.Employee[]",
          "name": "",
          "type": "tuple[]"
        }
      ],
      "stateMutability": "view",
      "type": "function"
    },
    {
      "inputs": [
        {
          "internalType": "address",
          "name": "_address",
          "type": "address"
        }
      ],
      "name": "getUserById",
      "outputs": [
        {
          "components": [
            {
              "internalType": "string",
              "name": "name",
              "type": "string"
            },
            {
              "internalType": "enum Access.Role",
              "name": "role",
              "type": "uint8"
            },
            {
              "internalType": "bool",
              "name": "isTerminated",
              "type": "bool"
            }
          ],
          "internalType": "struct Access.Employee[]",
          "name": "",
          "type": "tuple[]"
        }
      ],
      "stateMutability": "view",
      "type": "function"
    },
    {
      "inputs": [
        {
          "internalType": "enum Access.Role",
          "name": "_role",
          "type": "uint8"
        }
      ],
      "name": "hasAccess",
      "outputs": [
        {
          "internalType": "string",
          "name": "",
          "type": "string"
        }
      ],
      "stateMutability": "pure",
      "type": "function"
    },
    {
      "inputs": [
        {
          "internalType": "address",
          "name": "_address",
          "type": "address"
        },
        {
          "internalType": "uint256",
          "name": "_index",
          "type": "uint256"
        },
        {
          "internalType": "string",
          "name": "_newName",
          "type": "string"
        },
        {
          "internalType": "enum Access.Role",
          "name": "_newRole",
          "type": "uint8"
        },
        {
          "internalType": "bool",
          "name": "_isTerminated",
          "type": "bool"
        }
      ],
      "name": "updateEmployee",
      "outputs": [],
      "stateMutability": "nonpayable",
      "type": "function"
    }
  ],
  "bytecode": "0x6080604052348015600f57600080fd5b506114858061001f6000396000f3fe608060405234801561001057600080fd5b50600436106100625760003560e01c80632301ab1e146100675780632d2d03a61461009757806338fdb468146100b357806353ed5143146100e35780639751d6a71461010157806399b65f791461011d575b600080fd5b610081600480360381019061007c91906109bd565b61014f565b60405161008e9190610c1e565b60405180910390f35b6100b160048036038101906100ac9190610d75565b6102d5565b005b6100cd60048036038101906100c89190610de3565b61039c565b6040516100da9190610e5a565b60405180910390f35b6100eb6104a4565b6040516100f89190610c1e565b60405180910390f35b61011b60048036038101906101169190610ede565b6105eb565b005b61013760048036038101906101329190610f75565b61086f565b60405161014693929190610fc0565b60405180910390f35b6060600160008373ffffffffffffffffffffffffffffffffffffffff1673ffffffffffffffffffffffffffffffffffffffff168152602001908152602001600020805480602002602001604051908101604052809291908181526020016000905b828210156102ca57838290600052602060002090600202016040518060600160405290816000820180546101e39061102d565b80601f016020809104026020016040519081016040528092919081815260200182805461020f9061102d565b801561025c5780601f106102315761010080835404028352916020019161025c565b820191906000526020600020905b81548152906001019060200180831161023f57829003601f168201915b505050505081526020016001820160009054906101000a900460ff16600581111561028a57610289610aa6565b5b600581111561029c5761029b610aa6565b5b81526020016001820160019054906101000a900460ff161515151581525050815260200190600101906101b0565b505050509050919050565b60006040518060600160405280838152602001600060058111156102fc576102fb610aa6565b5b81526020016000151581525090806001815401808255809150506001900390600052602060002090600202016000909190919091506000820151816000019081610346919061120a565b5060208201518160010160006101000a81548160ff0219169083600581111561037257610371610aa6565b5b021790555060408201518160010160016101000a81548160ff021916908315150217905550505050565b6060600360058111156103b2576103b1610aa6565b5b8260058111156103c5576103c4610aa6565b5b141580156103f85750600460058111156103e2576103e1610aa6565b5b8260058111156103f5576103f4610aa6565b5b14155b8015610428575060058081111561041257610411610aa6565b5b82600581111561042557610424610aa6565b5b14155b610467576040517f08c379a000000000000000000000000000000000000000000000000000000000815260040161045e90611328565b60405180910390fd5b6040518060400160405280600f81526020017f596f7520686176652061636365737300000000000000000000000000000000008152509050919050565b60606000805480602002602001604051908101604052809291908181526020016000905b828210156105e257838290600052602060002090600202016040518060600160405290816000820180546104fb9061102d565b80601f01602080910402602001604051908101604052809291908181526020018280546105279061102d565b80156105745780601f1061054957610100808354040283529160200191610574565b820191906000526020600020905b81548152906001019060200180831161055757829003601f168201915b505050505081526020016001820160009054906101000a900460ff1660058111156105a2576105a1610aa6565b5b60058111156105b4576105b3610aa6565b5b81526020016001820160019054906101000a900460ff161515151581525050815260200190600101906104c8565b50505050905090565b6000600160008773ffffffffffffffffffffffffffffffffffffffff1673ffffffffffffffffffffffffffffffffffffffff1681526020019081526020016000208054905011610670576040517f08c379a000000000000000000000000000000000000000000000000000000000815260040161066790611394565b60405180910390fd5b600160008673ffffffffffffffffffffffffffffffffffffffff1673ffffffffffffffffffffffffffffffffffffffff1681526020019081526020016000208054905084106106f4576040517f08c379a00000000000000000000000000000000000000000000000000000000081526004016106eb90611400565b60405180910390fd5b82600160008773ffffffffffffffffffffffffffffffffffffffff1673ffffffffffffffffffffffffffffffffffffffff168152602001908152602001600020858154811061074657610745611420565b5b90600052602060002090600202016000019081610763919061120a565b5081600160008773ffffffffffffffffffffffffffffffffffffffff1673ffffffffffffffffffffffffffffffffffffffff16815260200190815260200160002085815481106107b6576107b5611420565b5b906000526020600020906002020160010160006101000a81548160ff021916908360058111156107e9576107e8610aa6565b5b021790555080600160008773ffffffffffffffffffffffffffffffffffffffff1673ffffffffffffffffffffffffffffffffffffffff16815260200190815260200160002085815481106108405761083f611420565b5b906000526020600020906002020160010160016101000a81548160ff0219169083151502179055505050505050565b6000818154811061087f57600080fd5b90600052602060002090600202016000915090508060000180546108a29061102d565b80601f01602080910402602001604051908101604052809291908181526020018280546108ce9061102d565b801561091b5780601f106108f05761010080835404028352916020019161091b565b820191906000526020600020905b8154815290600101906020018083116108fe57829003601f168201915b5050505050908060010160009054906101000a900460ff16908060010160019054906101000a900460ff16905083565b6000604051905090565b600080fd5b600080fd5b600073ffffffffffffffffffffffffffffffffffffffff82169050919050565b600061098a8261095f565b9050919050565b61099a8161097f565b81146109a557600080fd5b50565b6000813590506109b781610991565b92915050565b6000602082840312156109d3576109d2610955565b5b60006109e1848285016109a8565b91505092915050565b600081519050919050565b600082825260208201905092915050565b6000819050602082019050919050565b600081519050919050565b600082825260208201905092915050565b60005b83811015610a50578082015181840152602081019050610a35565b60008484015250505050565b6000601f19601f8301169050919050565b6000610a7882610a16565b610a828185610a21565b9350610a92818560208601610a32565b610a9b81610a5c565b840191505092915050565b7f4e487b7100000000000000000000000000000000000000000000000000000000600052602160045260246000fd5b60068110610ae657610ae5610aa6565b5b50565b6000819050610af782610ad5565b919050565b6000610b0782610ae9565b9050919050565b610b1781610afc565b82525050565b60008115159050919050565b610b3281610b1d565b82525050565b60006060830160008301518482036000860152610b558282610a6d565b9150506020830151610b6a6020860182610b0e565b506040830151610b7d6040860182610b29565b508091505092915050565b6000610b948383610b38565b905092915050565b6000602082019050919050565b6000610bb4826109ea565b610bbe81856109f5565b935083602082028501610bd085610a06565b8060005b85811015610c0c5784840389528151610bed8582610b88565b9450610bf883610b9c565b925060208a01995050600181019050610bd4565b50829750879550505050505092915050565b60006020820190508181036000830152610c388184610ba9565b905092915050565b600080fd5b600080fd5b7f4e487b7100000000000000000000000000000000000000000000000000000000600052604160045260246000fd5b610c8282610a5c565b810181811067ffffffffffffffff82111715610ca157610ca0610c4a565b5b80604052505050565b6000610cb461094b565b9050610cc08282610c79565b919050565b600067ffffffffffffffff821115610ce057610cdf610c4a565b5b610ce982610a5c565b9050602081019050919050565b82818337600083830152505050565b6000610d18610d1384610cc5565b610caa565b905082815260208101848484011115610d3457610d33610c45565b5b610d3f848285610cf6565b509392505050565b600082601f830112610d5c57610d5b610c40565b5b8135610d6c848260208601610d05565b91505092915050565b600060208284031215610d8b57610d8a610955565b5b600082013567ffffffffffffffff811115610da957610da861095a565b5b610db584828501610d47565b91505092915050565b60068110610dcb57600080fd5b50565b600081359050610ddd81610dbe565b92915050565b600060208284031215610df957610df8610955565b5b6000610e0784828501610dce565b91505092915050565b600082825260208201905092915050565b6000610e2c82610a16565b610e368185610e10565b9350610e46818560208601610a32565b610e4f81610a5c565b840191505092915050565b60006020820190508181036000830152610e748184610e21565b905092915050565b6000819050919050565b610e8f81610e7c565b8114610e9a57600080fd5b50565b600081359050610eac81610e86565b92915050565b610ebb81610b1d565b8114610ec657600080fd5b50565b600081359050610ed881610eb2565b92915050565b600080600080600060a08688031215610efa57610ef9610955565b5b6000610f08888289016109a8565b9550506020610f1988828901610e9d565b945050604086013567ffffffffffffffff811115610f3a57610f3961095a565b5b610f4688828901610d47565b9350506060610f5788828901610dce565b9250506080610f6888828901610ec9565b9150509295509295909350565b600060208284031215610f8b57610f8a610955565b5b6000610f9984828501610e9d565b91505092915050565b610fab81610afc565b82525050565b610fba81610b1d565b82525050565b60006060820190508181036000830152610fda8186610e21565b9050610fe96020830185610fa2565b610ff66040830184610fb1565b949350505050565b7f4e487b7100000000000000000000000000000000000000000000000000000000600052602260045260246000fd5b6000600282049050600182168061104557607f821691505b60208210810361105857611057610ffe565b5b50919050565b60008190508160005260206000209050919050565b60006020601f8301049050919050565b600082821b905092915050565b6000600883026110c07fffffffffffffffffffffffffffffffffffffffffffffffffffffffffffffffff82611083565b6110ca8683611083565b95508019841693508086168417925050509392505050565b6000819050919050565b60006111076111026110fd84610e7c565b6110e2565b610e7c565b9050919050565b6000819050919050565b611121836110ec565b61113561112d8261110e565b848454611090565b825550505050565b600090565b61114a61113d565b611155818484611118565b505050565b5b818110156111795761116e600082611142565b60018101905061115b565b5050565b601f8211156111be5761118f8161105e565b61119884611073565b810160208510156111a7578190505b6111bb6111b385611073565b83018261115a565b50505b505050565b600082821c905092915050565b60006111e1600019846008026111c3565b1980831691505092915050565b60006111fa83836111d0565b9150826002028217905092915050565b61121382610a16565b67ffffffffffffffff81111561122c5761122b610c4a565b5b611236825461102d565b61124182828561117d565b600060209050601f8311600181146112745760008415611262578287015190505b61126c85826111ee565b8655506112d4565b601f1984166112828661105e565b60005b828110156112aa57848901518255600182019150602085019450602081019050611285565b868310156112c757848901516112c3601f8916826111d0565b8355505b6001600288020188555050505b505050505050565b7f4163636573732044656e69656400000000000000000000000000000000000000600082015250565b6000611312600d83610e10565b915061131d826112dc565b602082019050919050565b6000602082019050818103600083015261134181611305565b9050919050565b7f55736572206e6f7420666f756e64000000000000000000000000000000000000600082015250565b600061137e600e83610e10565b915061138982611348565b602082019050919050565b600060208201905081810360008301526113ad81611371565b9050919050565b7f456d706c6f79656520696e646578206f7574206f6620626f756e647300000000600082015250565b60006113ea601c83610e10565b91506113f5826113b4565b602082019050919050565b60006020820190508181036000830152611419816113dd565b9050919050565b7f4e487b7100000000000000000000000000000000000000000000000000000000600052603260045260246000fdfea2646970667358221220129e1103aa56ba1b0111afb89605facce4e162ee6df726475445ce62dd0434fd64736f6c634300081c0033",
  "linkReferences": {},
  "deployedLinkReferences": {}
}