{
  "_format": "hh-sol-artifact-1",
  "contractName": "EmployeeManagement",
  "sourceName": "contracts/Paystaff.sol",
  "abi": [
    {
      "inputs": [],
      "stateMutability": "nonpayable",
      "type": "constructor"
    },
    {
      "inputs": [
        {
          "internalType": "uint256",
          "name": "amount",
          "type": "uint256"
        },
        {
          "internalType": "uint256",
          "name": "agreedSalary",
          "type": "uint256"
        }
      ],
      "name": "AmountExceedsAgreedSalary",
      "type": "error"
    },
    {
      "inputs": [
        {
          "internalType": "address",
          "name": "employee",
          "type": "address"
        }
      ],
      "name": "EmployeeAlreadyRegistered",
      "type": "error"
    },
    {
      "inputs": [
        {
          "internalType": "address",
          "name": "employee",
          "type": "address"
        }
      ],
      "name": "EmployeeNotActive",
      "type": "error"
    },
    {
      "inputs": [
        {
          "internalType": "address",
          "name": "employee",
          "type": "address"
        }
      ],
      "name": "EmployeeNotFound",
      "type": "error"
    },
    {
      "inputs": [
        {
          "internalType": "uint256",
          "name": "required",
          "type": "uint256"
        },
        {
          "internalType": "uint256",
          "name": "available",
          "type": "uint256"
        }
      ],
      "name": "InsufficientContractBalance",
      "type": "error"
    },
    {
      "anonymous": false,
      "inputs": [
        {
          "indexed": true,
          "internalType": "address",
          "name": "employee",
          "type": "address"
        },
        {
          "indexed": false,
          "internalType": "string",
          "name": "name",
          "type": "string"
        },
        {
          "indexed": false,
          "internalType": "enum EmployeeManagement.Role",
          "name": "role",
          "type": "uint8"
        },
        {
          "indexed": false,
          "internalType": "uint256",
          "name": "salary",
          "type": "uint256"
        }
      ],
      "name": "EmployeeRegistered",
      "type": "event"
    },
    {
      "anonymous": false,
      "inputs": [
        {
          "indexed": true,
          "internalType": "address",
          "name": "employee",
          "type": "address"
        },
        {
          "indexed": false,
          "internalType": "enum EmployeeManagement.Status",
          "name": "oldStatus",
          "type": "uint8"
        },
        {
          "indexed": false,
          "internalType": "enum EmployeeManagement.Status",
          "name": "newStatus",
          "type": "uint8"
        }
      ],
      "name": "EmployeeStatusChanged",
      "type": "event"
    },
    {
      "anonymous": false,
      "inputs": [
        {
          "indexed": true,
          "internalType": "address",
          "name": "employee",
          "type": "address"
        },
        {
          "indexed": false,
          "internalType": "uint256",
          "name": "amount",
          "type": "uint256"
        },
        {
          "indexed": false,
          "internalType": "uint256",
          "name": "timestamp",
          "type": "uint256"
        }
      ],
      "name": "SalaryDisbursed",
      "type": "event"
    },
    {
      "stateMutability": "payable",
      "type": "fallback"
    },
    {
      "inputs": [
        {
          "internalType": "address",
          "name": "_employee",
          "type": "address"
        }
      ],
      "name": "checkEmployeeRegistration",
      "outputs": [
        {
          "internalType": "bool",
          "name": "",
          "type": "bool"
        }
      ],
      "stateMutability": "view",
      "type": "function"
    },
    {
      "inputs": [
        {
          "internalType": "address payable",
          "name": "_employee",
          "type": "address"
        },
        {
          "internalType": "uint256",
          "name": "_amount",
          "type": "uint256"
        }
      ],
      "name": "disburseSalary",
      "outputs": [],
      "stateMutability": "payable",
      "type": "function"
    },
    {
      "inputs": [
        {
          "internalType": "address",
          "name": "",
          "type": "address"
        }
      ],
      "name": "employeeDetails",
      "outputs": [
        {
          "internalType": "string",
          "name": "name",
          "type": "string"
        },
        {
          "internalType": "uint256",
          "name": "salary",
          "type": "uint256"
        },
        {
          "internalType": "enum EmployeeManagement.Role",
          "name": "role",
          "type": "uint8"
        },
        {
          "internalType": "enum EmployeeManagement.Status",
          "name": "status",
          "type": "uint8"
        },
        {
          "internalType": "uint256",
          "name": "registrationDate",
          "type": "uint256"
        }
      ],
      "stateMutability": "view",
      "type": "function"
    },
    {
      "inputs": [
        {
          "internalType": "address",
          "name": "",
          "type": "address"
        }
      ],
      "name": "employeeIndex",
      "outputs": [
        {
          "internalType": "uint256",
          "name": "",
          "type": "uint256"
        }
      ],
      "stateMutability": "view",
      "type": "function"
    },
    {
      "inputs": [
        {
          "internalType": "uint256",
          "name": "",
          "type": "uint256"
        }
      ],
      "name": "employees",
      "outputs": [
        {
          "internalType": "string",
          "name": "name",
          "type": "string"
        },
        {
          "internalType": "uint256",
          "name": "salary",
          "type": "uint256"
        },
        {
          "internalType": "enum EmployeeManagement.Role",
          "name": "role",
          "type": "uint8"
        },
        {
          "internalType": "enum EmployeeManagement.Status",
          "name": "status",
          "type": "uint8"
        },
        {
          "internalType": "uint256",
          "name": "registrationDate",
          "type": "uint256"
        }
      ],
      "stateMutability": "view",
      "type": "function"
    },
    {
      "inputs": [],
      "name": "fundContract",
      "outputs": [],
      "stateMutability": "payable",
      "type": "function"
    },
    {
      "inputs": [],
      "name": "getActiveEmployeesCount",
      "outputs": [
        {
          "internalType": "uint256",
          "name": "",
          "type": "uint256"
        }
      ],
      "stateMutability": "view",
      "type": "function"
    },
    {
      "inputs": [],
      "name": "getAllEmployees",
      "outputs": [
        {
          "components": [
            {
              "internalType": "string",
              "name": "name",
              "type": "string"
            },
            {
              "internalType": "uint256",
              "name": "salary",
              "type": "uint256"
            },
            {
              "internalType": "enum EmployeeManagement.Role",
              "name": "role",
              "type": "uint8"
            },
            {
              "internalType": "enum EmployeeManagement.Status",
              "name": "status",
              "type": "uint8"
            },
            {
              "internalType": "uint256",
              "name": "registrationDate",
              "type": "uint256"
            }
          ],
          "internalType": "struct EmployeeManagement.Employee[]",
          "name": "",
          "type": "tuple[]"
        }
      ],
      "stateMutability": "view",
      "type": "function"
    },
    {
      "inputs": [],
      "name": "getContractBalance",
      "outputs": [
        {
          "internalType": "uint256",
          "name": "",
          "type": "uint256"
        }
      ],
      "stateMutability": "view",
      "type": "function"
    },
    {
      "inputs": [],
      "name": "getEmployeeCount",
      "outputs": [
        {
          "internalType": "uint256",
          "name": "",
          "type": "uint256"
        }
      ],
      "stateMutability": "view",
      "type": "function"
    },
    {
      "inputs": [
        {
          "internalType": "address",
          "name": "_employee",
          "type": "address"
        }
      ],
      "name": "getEmployeeDetails",
      "outputs": [
        {
          "internalType": "string",
          "name": "name",
          "type": "string"
        },
        {
          "internalType": "uint256",
          "name": "salary",
          "type": "uint256"
        },
        {
          "internalType": "uint8",
          "name": "role",
          "type": "uint8"
        },
        {
          "internalType": "uint8",
          "name": "status",
          "type": "uint8"
        }
      ],
      "stateMutability": "view",
      "type": "function"
    },
    {
      "inputs": [
        {
          "internalType": "enum EmployeeManagement.Role",
          "name": "_role",
          "type": "uint8"
        }
      ],
      "name": "getEmployeesByRole",
      "outputs": [
        {
          "components": [
            {
              "internalType": "string",
              "name": "name",
              "type": "string"
            },
            {
              "internalType": "uint256",
              "name": "salary",
              "type": "uint256"
            },
            {
              "internalType": "enum EmployeeManagement.Role",
              "name": "role",
              "type": "uint8"
            },
            {
              "internalType": "enum EmployeeManagement.Status",
              "name": "status",
              "type": "uint8"
            },
            {
              "internalType": "uint256",
              "name": "registrationDate",
              "type": "uint256"
            }
          ],
          "internalType": "struct EmployeeManagement.Employee[]",
          "name": "",
          "type": "tuple[]"
        }
      ],
      "stateMutability": "view",
      "type": "function"
    },
    {
      "inputs": [
        {
          "internalType": "enum EmployeeManagement.Status",
          "name": "_status",
          "type": "uint8"
        }
      ],
      "name": "getEmployeesByStatus",
      "outputs": [
        {
          "components": [
            {
              "internalType": "string",
              "name": "name",
              "type": "string"
            },
            {
              "internalType": "uint256",
              "name": "salary",
              "type": "uint256"
            },
            {
              "internalType": "enum EmployeeManagement.Role",
              "name": "role",
              "type": "uint8"
            },
            {
              "internalType": "enum EmployeeManagement.Status",
              "name": "status",
              "type": "uint8"
            },
            {
              "internalType": "uint256",
              "name": "registrationDate",
              "type": "uint256"
            }
          ],
          "internalType": "struct EmployeeManagement.Employee[]",
          "name": "",
          "type": "tuple[]"
        }
      ],
      "stateMutability": "view",
      "type": "function"
    },
    {
      "inputs": [
        {
          "internalType": "address",
          "name": "",
          "type": "address"
        }
      ],
      "name": "isRegistered",
      "outputs": [
        {
          "internalType": "bool",
          "name": "",
          "type": "bool"
        }
      ],
      "stateMutability": "view",
      "type": "function"
    },
    {
      "inputs": [],
      "name": "owner",
      "outputs": [
        {
          "internalType": "address",
          "name": "",
          "type": "address"
        }
      ],
      "stateMutability": "view",
      "type": "function"
    },
    {
      "inputs": [
        {
          "internalType": "address",
          "name": "_employee",
          "type": "address"
        },
        {
          "internalType": "string",
          "name": "_name",
          "type": "string"
        },
        {
          "internalType": "uint256",
          "name": "_salary",
          "type": "uint256"
        },
        {
          "internalType": "enum EmployeeManagement.Role",
          "name": "_role",
          "type": "uint8"
        }
      ],
      "name": "registerEmployee",
      "outputs": [],
      "stateMutability": "nonpayable",
      "type": "function"
    },
    {
      "inputs": [],
      "name": "totalEmployees",
      "outputs": [
        {
          "internalType": "uint256",
          "name": "",
          "type": "uint256"
        }
      ],
      "stateMutability": "view",
      "type": "function"
    },
    {
      "inputs": [
        {
          "internalType": "address",
          "name": "_employee",
          "type": "address"
        },
        {
          "internalType": "enum EmployeeManagement.Status",
          "name": "_newStatus",
          "type": "uint8"
        }
      ],
      "name": "updateEmployeeStatus",
      "outputs": [],
      "stateMutability": "nonpayable",
      "type": "function"
    },
    {
      "inputs": [
        {
          "internalType": "uint256",
          "name": "_amount",
          "type": "uint256"
        }
      ],
      "name": "withdrawFunds",
      "outputs": [],
      "stateMutability": "nonpayable",
      "type": "function"
    },
    {
      "stateMutability": "payable",
      "type": "receive"
    }
  ],
  "bytecode": "0x6080604052348015600f57600080fd5b5060286741f1ede91a672d0e60c01b608560201b60201c565b60406716ce822f7f81446860c01b608560201b60201c565b33600460006101000a81548173ffffffffffffffffffffffffffffffffffffffff021916908373ffffffffffffffffffffffffffffffffffffffff1602179055506088565b50565b613b44806100976000396000f3fe6080604052600436106101185760003560e01c80636f9fb98a116100a0578063bd097e2111610064578063bd097e21146103ed578063c2a63e3b146103f7578063c3c5a54714610422578063df35f9691461045f578063e3366fed146104a05761011f565b80636f9fb98a146103155780638da5cb5b1461034057806393db427f1461036b578063b48b41e7146103a8578063bba2270a146103d15761011f565b80631d7a7344116100e75780631d7a7344146102185780634739326b146102555780634f49dede146102965780634f90f6ec146102bf57806352b9b973146102ea5761011f565b8063079277aa14610135578063155dd5ee146101725780631caafcf11461019b5780631d019ebe146101db5761011f565b3661011f57005b61013367e79b8038515ad0a760c01b6104cb565b005b34801561014157600080fd5b5061015c60048036038101906101579190612de6565b6104ce565b6040516101699190612e2e565b60405180910390f35b34801561017e57600080fd5b5061019960048036038101906101949190612e7f565b610560565b005b3480156101a757600080fd5b506101c260048036038101906101bd9190612de6565b6107cb565b6040516101d29493929190612f67565b60405180910390f35b3480156101e757600080fd5b5061020260048036038101906101fd9190612fd8565b610b2c565b60405161020f9190613255565b60405180910390f35b34801561022457600080fd5b5061023f600480360381019061023a9190612de6565b610ffa565b60405161024c9190613277565b60405180910390f35b34801561026157600080fd5b5061027c60048036038101906102779190612e7f565b611012565b60405161028d9594939291906132b0565b60405180910390f35b3480156102a257600080fd5b506102bd60048036038101906102b8919061343f565b6110fa565b005b3480156102cb57600080fd5b506102d46116dd565b6040516102e19190613277565b60405180910390f35b3480156102f657600080fd5b506102ff611868565b60405161030c9190613277565b60405180910390f35b34801561032157600080fd5b5061032a61186e565b6040516103379190613277565b60405180910390f35b34801561034c57600080fd5b506103556118b2565b60405161036291906134d1565b60405180910390f35b34801561037757600080fd5b50610392600480360381019061038d9190613511565b6118d8565b60405161039f9190613255565b60405180910390f35b3480156103b457600080fd5b506103cf60048036038101906103ca919061353e565b611da6565b005b6103eb60048036038101906103e691906135bc565b612245565b005b6103f56128e6565b005b34801561040357600080fd5b5061040c612a2c565b6040516104199190613277565b60405180910390f35b34801561042e57600080fd5b5061044960048036038101906104449190612de6565b612a72565b6040516104569190612e2e565b60405180910390f35b34801561046b57600080fd5b5061048660048036038101906104819190612de6565b612a92565b6040516104979594939291906132b0565b60405180910390f35b3480156104ac57600080fd5b506104b5612b6a565b6040516104c29190613255565b60405180910390f35b50565b60006104e467eadb22fd2a88bbc760c01b6104cb565b6104f86748fd2a06c551be4660c01b6104cb565b61050c67710e184de054c07960c01b6104cb565b600360008373ffffffffffffffffffffffffffffffffffffffff1673ffffffffffffffffffffffffffffffffffffffff16815260200190815260200160002060009054906101000a900460ff169050919050565b61057467d0eb466d4d42953c60c01b6104cb565b610588673dce14a656b3790e60c01b6104cb565b61059c67dfafa37b3c323dc160c01b6104cb565b6105b067792d9534599153ed60c01b6104cb565b6105c467c2f915c14052689660c01b6104cb565b600460009054906101000a900473ffffffffffffffffffffffffffffffffffffffff1673ffffffffffffffffffffffffffffffffffffffff163373ffffffffffffffffffffffffffffffffffffffff1614610654576040517f08c379a000000000000000000000000000000000000000000000000000000000815260040161064b9061366e565b60405180910390fd5b610668670cd292dd9ffbb37360c01b6104cb565b61067c67bafc0934c2a7d87b60c01b6104cb565b610690676a80ff52d295e21d60c01b6104cb565b6106a4674b73e84fbd372bb860c01b6104cb565b6106b867b0722fa9e0db27f060c01b6104cb565b6106cc671adbd9c3ae00667560c01b6104cb565b6106e0670ffb4fa44d6a675560c01b6104cb565b80471015610723576040517f08c379a000000000000000000000000000000000000000000000000000000000815260040161071a906136da565b60405180910390fd5b610737674943133f13db82cc60c01b6104cb565b61074b6763f8b39feb2c0afd60c01b6104cb565b61075f6734956a6eef93349a60c01b6104cb565b600460009054906101000a900473ffffffffffffffffffffffffffffffffffffffff1673ffffffffffffffffffffffffffffffffffffffff166108fc829081150290604051600060405180830381858888f193505050501580156107c7573d6000803e3d6000fd5b5050565b606060008060006107e6672d898004ce32e48f60c01b6104cb565b846107fb67501a027fa29056c760c01b6104cb565b61080f67adce88107dc9702c60c01b6104cb565b61082367f20835daec63c8d960c01b6104cb565b600360008273ffffffffffffffffffffffffffffffffffffffff1673ffffffffffffffffffffffffffffffffffffffff16815260200190815260200160002060009054906101000a900460ff166108d95761088867622866122a8a8fe660c01b6104cb565b61089c674417ff106af691ce60c01b6104cb565b806040517fb7f1343f0000000000000000000000000000000000000000000000000000000081526004016108d091906134d1565b60405180910390fd5b6108ed67ec61dc5e06ddac5360c01b6104cb565b610901673ea7efe3ee2782fb60c01b6104cb565b6109156785e3a678feb9b1af60c01b6104cb565b61092967735213874f0ee43660c01b6104cb565b61093d67fae9a4b461050e1b60c01b6104cb565b610951673a77e90719bad6b860c01b6104cb565b6000600160008873ffffffffffffffffffffffffffffffffffffffff1673ffffffffffffffffffffffffffffffffffffffff1681526020019081526020016000206040518060a00160405290816000820180546109ad90613729565b80601f01602080910402602001604051908101604052809291908181526020018280546109d990613729565b8015610a265780601f106109fb57610100808354040283529160200191610a26565b820191906000526020600020905b815481529060010190602001808311610a0957829003601f168201915b50505050508152602001600182015481526020016002820160009054906101000a900460ff166002811115610a5e57610a5d61308a565b5b6002811115610a7057610a6f61308a565b5b81526020016002820160019054906101000a900460ff166002811115610a9957610a9861308a565b5b6002811115610aab57610aaa61308a565b5b81526020016003820154815250509050610acf679516cd5d76e7222e60c01b6104cb565b610ae3676abaf1784849856260c01b6104cb565b8060000151816020015182604001516002811115610b0457610b0361308a565b5b83606001516002811115610b1b57610b1a61308a565b5b955095509550955050509193509193565b6060610b42675f78af83ff369ac860c01b6104cb565b610b56676bec901f8a2b673860c01b6104cb565b610b6a67d6af3035167ea16760c01b6104cb565b6000610b8067c0e7a722fcfaded960c01b6104cb565b610b94679f09f7abe18b556060c01b6104cb565b60005b600080549050811015610c8657610bb86766d4cdeafba3185960c01b6104cb565b610bcc67f307ff7c6637336660c01b6104cb565b836002811115610bdf57610bde61308a565b5b60008281548110610bf357610bf261375a565b5b906000526020600020906004020160020160009054906101000a900460ff166002811115610c2457610c2361308a565b5b03610c6457610c3d678cb89019b56a829d60c01b6104cb565b610c51672fc2b76d6644315760c01b6104cb565b8180610c5c906137b8565b925050610c79565b610c78679e53d8f9e351163f60c01b6104cb565b5b8080600101915050610b97565b50610c9b67f915a2cf3966622c60c01b6104cb565b610caf67787ba88f9b75a43b60c01b6104cb565b60008167ffffffffffffffff811115610ccb57610cca613314565b5b604051908082528060200260200182016040528015610d0457816020015b610cf1612d21565b815260200190600190039081610ce95790505b509050610d1b678d290d6bd1c6733d60c01b6104cb565b610d2f675f412297e426b60860c01b6104cb565b6000610d45673be23a99d0ed7b5360c01b6104cb565b610d59674d1d1f7704a708f260c01b6104cb565b60005b600080549050811015610fc657610d7d67f9e3b124b56e9b6c60c01b6104cb565b610d916780fcda46588b4e8660c01b6104cb565b856002811115610da457610da361308a565b5b60008281548110610db857610db761375a565b5b906000526020600020906004020160020160009054906101000a900460ff166002811115610de957610de861308a565b5b03610fa457610e02674629fd993143014d60c01b6104cb565b610e16678dbd79a81305206660c01b6104cb565b60008181548110610e2a57610e2961375a565b5b90600052602060002090600402016040518060a0016040529081600082018054610e5390613729565b80601f0160208091040260200160405190810160405280929190818152602001828054610e7f90613729565b8015610ecc5780601f10610ea157610100808354040283529160200191610ecc565b820191906000526020600020905b815481529060010190602001808311610eaf57829003601f168201915b50505050508152602001600182015481526020016002820160009054906101000a900460ff166002811115610f0457610f0361308a565b5b6002811115610f1657610f1561308a565b5b81526020016002820160019054906101000a900460ff166002811115610f3f57610f3e61308a565b5b6002811115610f5157610f5061308a565b5b8152602001600382015481525050838381518110610f7257610f7161375a565b5b6020026020010181905250610f9167f3afe3189e47253c60c01b6104cb565b8180610f9c906137b8565b925050610fb9565b610fb86756f4e8494863c33360c01b6104cb565b5b8080600101915050610d5c565b50610fdb67618c6691af7c61b560c01b6104cb565b610fef67f0773b7911f5e03060c01b6104cb565b819350505050919050565b60026020528060005260406000206000915090505481565b6000818154811061102257600080fd5b906000526020600020906004020160009150905080600001805461104590613729565b80601f016020809104026020016040519081016040528092919081815260200182805461107190613729565b80156110be5780601f10611093576101008083540402835291602001916110be565b820191906000526020600020905b8154815290600101906020018083116110a157829003601f168201915b5050505050908060010154908060020160009054906101000a900460ff16908060020160019054906101000a900460ff16908060030154905085565b61110e67ed4965a129a366c760c01b6104cb565b611122673dce14a656b3790e60c01b6104cb565b61113667dfafa37b3c323dc160c01b6104cb565b61114a67792d9534599153ed60c01b6104cb565b61115e67c2f915c14052689660c01b6104cb565b600460009054906101000a900473ffffffffffffffffffffffffffffffffffffffff1673ffffffffffffffffffffffffffffffffffffffff163373ffffffffffffffffffffffffffffffffffffffff16146111ee576040517f08c379a00000000000000000000000000000000000000000000000000000000081526004016111e59061366e565b60405180910390fd5b611202670cd292dd9ffbb37360c01b6104cb565b61121667bafc0934c2a7d87b60c01b6104cb565b61122a675be435218bf8ac9560c01b6104cb565b61123e671fc78b284b46274660c01b6104cb565b6112526742a22b2738ad9d4960c01b6104cb565b61126667878ca57d8a26491760c01b6104cb565b600360008573ffffffffffffffffffffffffffffffffffffffff1673ffffffffffffffffffffffffffffffffffffffff16815260200190815260200160002060009054906101000a900460ff161561131d576112cc67cb210517db1c6f4460c01b6104cb565b6112e0679dddc73c0cbe43f860c01b6104cb565b836040517f8f64dc1200000000000000000000000000000000000000000000000000000000815260040161131491906134d1565b60405180910390fd5b611331670951401bf10b13c660c01b6104cb565b611345674387e677f707dbaa60c01b6104cb565b61135967fea3fc3093d2b18360c01b6104cb565b60006040518060a001604052808581526020018481526020018360028111156113855761138461308a565b5b81526020016000600281111561139e5761139d61308a565b5b81526020014281525090506113bd677157011d0944069060c01b6104cb565b6113d167191a2a701be7a39c60c01b6104cb565b6000819080600181540180825580915050600190039060005260206000209060040201600090919091909150600082015181600001908161141291906139ac565b506020820151816001015560408201518160020160006101000a81548160ff021916908360028111156114485761144761308a565b5b021790555060608201518160020160016101000a81548160ff021916908360028111156114785761147761308a565b5b021790555060808201518160030155505061149d67c6fb34f798296e5860c01b6104cb565b80600160008773ffffffffffffffffffffffffffffffffffffffff1673ffffffffffffffffffffffffffffffffffffffff16815260200190815260200160002060008201518160000190816114f291906139ac565b506020820151816001015560408201518160020160006101000a81548160ff021916908360028111156115285761152761308a565b5b021790555060608201518160020160016101000a81548160ff021916908360028111156115585761155761308a565b5b02179055506080820151816003015590505061157e678489251548af142860c01b6104cb565b600554600260008773ffffffffffffffffffffffffffffffffffffffff1673ffffffffffffffffffffffffffffffffffffffff168152602001908152602001600020819055506115d867ac1c145541572d2b60c01b6104cb565b6001600360008773ffffffffffffffffffffffffffffffffffffffff1673ffffffffffffffffffffffffffffffffffffffff16815260200190815260200160002060006101000a81548160ff02191690831515021790555061164467bcb6cf55a6d6ec3860c01b6104cb565b60056000815480929190611657906137b8565b919050555061167067a513df685f8d84f160c01b6104cb565b61168467e939dfb749d1c44160c01b6104cb565b8473ffffffffffffffffffffffffffffffffffffffff167f1a50fd646625b0aea99cbfd06d5609b6336d9663baee259dff4ce194a82cd5548584866040516116ce93929190613a7e565b60405180910390a25050505050565b60006116f367e09bf3c29d87964660c01b6104cb565b611707677eef8821dde97eeb60c01b6104cb565b61171b675b558278853943d260c01b6104cb565b60006117316738d07a648ccb2bc160c01b6104cb565b6117456782aa37f2464fd68160c01b6104cb565b60005b6000805490508110156118385761176967bf573836a8bc0bbb60c01b6104cb565b61177d672875912459ca472260c01b6104cb565b600060028111156117915761179061308a565b5b600082815481106117a5576117a461375a565b5b906000526020600020906004020160020160019054906101000a900460ff1660028111156117d6576117d561308a565b5b03611816576117ef67731f33c8ca35e15a60c01b6104cb565b6118036745f94a31d654600f60c01b6104cb565b818061180e906137b8565b92505061182b565b61182a673f6862ac6513437560c01b6104cb565b5b8080600101915050611748565b5061184d67266bba42ae7c323860c01b6104cb565b611861675b181aa9c09fab8d60c01b6104cb565b8091505090565b60055481565b6000611884677062b5709eb0adf360c01b6104cb565b611898675a6020d78b824bbd60c01b6104cb565b6118ac679950773858b82d0460c01b6104cb565b47905090565b600460009054906101000a900473ffffffffffffffffffffffffffffffffffffffff1681565b60606118ee67bd807cc0db3249c260c01b6104cb565b611902679f4e6d5b1cf3429560c01b6104cb565b611916675faee17ae0d4038260c01b6104cb565b600061192c67f28b036e8db9d04360c01b6104cb565b61194067eea885887399f7ff60c01b6104cb565b60005b600080549050811015611a32576119646705677ba4902d70c560c01b6104cb565b61197867535e1669419d8b9160c01b6104cb565b83600281111561198b5761198a61308a565b5b6000828154811061199f5761199e61375a565b5b906000526020600020906004020160020160019054906101000a900460ff1660028111156119d0576119cf61308a565b5b03611a10576119e9674d86013f27b7382360c01b6104cb565b6119fd672ade348555acba9060c01b6104cb565b8180611a08906137b8565b925050611a25565b611a24674bc17269fe5b033a60c01b6104cb565b5b8080600101915050611943565b50611a4767fe56212f759e9cd460c01b6104cb565b611a5b67ff62c657e1a63dfd60c01b6104cb565b60008167ffffffffffffffff811115611a7757611a76613314565b5b604051908082528060200260200182016040528015611ab057816020015b611a9d612d21565b815260200190600190039081611a955790505b509050611ac767e5ec96261d4c512e60c01b6104cb565b611adb67951ff86a545e3c2760c01b6104cb565b6000611af1676fe966893db11fe860c01b6104cb565b611b0567a32951a99a1209e860c01b6104cb565b60005b600080549050811015611d7257611b2967327338d0822a4fb660c01b6104cb565b611b3d672c3fff7ac1b208d660c01b6104cb565b856002811115611b5057611b4f61308a565b5b60008281548110611b6457611b6361375a565b5b906000526020600020906004020160020160019054906101000a900460ff166002811115611b9557611b9461308a565b5b03611d5057611bae67c28009e13913bcf360c01b6104cb565b611bc26776f386ebee04e46460c01b6104cb565b60008181548110611bd657611bd561375a565b5b90600052602060002090600402016040518060a0016040529081600082018054611bff90613729565b80601f0160208091040260200160405190810160405280929190818152602001828054611c2b90613729565b8015611c785780601f10611c4d57610100808354040283529160200191611c78565b820191906000526020600020905b815481529060010190602001808311611c5b57829003601f168201915b50505050508152602001600182015481526020016002820160009054906101000a900460ff166002811115611cb057611caf61308a565b5b6002811115611cc257611cc161308a565b5b81526020016002820160019054906101000a900460ff166002811115611ceb57611cea61308a565b5b6002811115611cfd57611cfc61308a565b5b8152602001600382015481525050838381518110611d1e57611d1d61375a565b5b6020026020010181905250611d3d672907c25361c9823860c01b6104cb565b8180611d48906137b8565b925050611d65565b611d646739ddcb5db81ea99860c01b6104cb565b5b8080600101915050611b08565b50611d87676cd818a860031ca160c01b6104cb565b611d9b675266fc2b1940b55960c01b6104cb565b819350505050919050565b611dba678fe6021353186ed560c01b6104cb565b611dce673dce14a656b3790e60c01b6104cb565b611de267dfafa37b3c323dc160c01b6104cb565b611df667792d9534599153ed60c01b6104cb565b611e0a67c2f915c14052689660c01b6104cb565b600460009054906101000a900473ffffffffffffffffffffffffffffffffffffffff1673ffffffffffffffffffffffffffffffffffffffff163373ffffffffffffffffffffffffffffffffffffffff1614611e9a576040517f08c379a0000000000000000000000000000000000000000000000000000000008152600401611e919061366e565b60405180910390fd5b611eae670cd292dd9ffbb37360c01b6104cb565b611ec267bafc0934c2a7d87b60c01b6104cb565b611ed6672106d0420502b86c60c01b6104cb565b611eea6784f0820204e6afcd60c01b6104cb565b81611eff67501a027fa29056c760c01b6104cb565b611f1367adce88107dc9702c60c01b6104cb565b611f2767f20835daec63c8d960c01b6104cb565b600360008273ffffffffffffffffffffffffffffffffffffffff1673ffffffffffffffffffffffffffffffffffffffff16815260200190815260200160002060009054906101000a900460ff16611fdd57611f8c67622866122a8a8fe660c01b6104cb565b611fa0674417ff106af691ce60c01b6104cb565b806040517fb7f1343f000000000000000000000000000000000000000000000000000000008152600401611fd491906134d1565b60405180910390fd5b611ff167ec61dc5e06ddac5360c01b6104cb565b612005673ea7efe3ee2782fb60c01b6104cb565b612019679d0a069923b12c5160c01b6104cb565b61202d67897579fd5ca0e45460c01b6104cb565b6120416755ae63db811de1d260c01b6104cb565b6120556721f322b2b048e47560c01b6104cb565b6000600160008573ffffffffffffffffffffffffffffffffffffffff1673ffffffffffffffffffffffffffffffffffffffff16815260200190815260200160002060020160019054906101000a900460ff1690506120bd674000cbf51beb0f2f60c01b6104cb565b82600160008673ffffffffffffffffffffffffffffffffffffffff1673ffffffffffffffffffffffffffffffffffffffff16815260200190815260200160002060020160016101000a81548160ff021916908360028111156121225761212161308a565b5b021790555061213b67abe528005db44eeb60c01b6104cb565b826000600260008773ffffffffffffffffffffffffffffffffffffffff1673ffffffffffffffffffffffffffffffffffffffff168152602001908152602001600020548154811061218f5761218e61375a565b5b906000526020600020906004020160020160016101000a81548160ff021916908360028111156121c2576121c161308a565b5b02179055506121db677a289377ab1b305160c01b6104cb565b6121ef673205ee156f44b02860c01b6104cb565b8373ffffffffffffffffffffffffffffffffffffffff167f7d57a17c417d3fac3f01bcc0f93e3e76266e40fda49e690f26446693d0bd838f8285604051612237929190613abc565b60405180910390a250505050565b61225967791b4a0f5b528a8d60c01b6104cb565b8161226e67501a027fa29056c760c01b6104cb565b61228267adce88107dc9702c60c01b6104cb565b61229667f20835daec63c8d960c01b6104cb565b600360008273ffffffffffffffffffffffffffffffffffffffff1673ffffffffffffffffffffffffffffffffffffffff16815260200190815260200160002060009054906101000a900460ff1661234c576122fb67622866122a8a8fe660c01b6104cb565b61230f674417ff106af691ce60c01b6104cb565b806040517fb7f1343f00000000000000000000000000000000000000000000000000000000815260040161234391906134d1565b60405180910390fd5b61236067ec61dc5e06ddac5360c01b6104cb565b612374673ea7efe3ee2782fb60c01b6104cb565b61238867357753d0e97c9dd660c01b6104cb565b61239c67af2dda860b9a3cdd60c01b6104cb565b826123b167e299ff46dce38bed60c01b6104cb565b6123c567258aea2f1a2fa36960c01b6104cb565b6123d9678011bffc6bde4f4560c01b6104cb565b600060028111156123ed576123ec61308a565b5b600160008373ffffffffffffffffffffffffffffffffffffffff1673ffffffffffffffffffffffffffffffffffffffff16815260200190815260200160002060020160019054906101000a900460ff16600281111561244f5761244e61308a565b5b146124b95761246867739a7f26e52000b360c01b6104cb565b61247c67dcf9b9ba6773259260c01b6104cb565b806040517f5c21a0660000000000000000000000000000000000000000000000000000000081526004016124b091906134d1565b60405180910390fd5b6124cd67e2e3593b7be9ac2460c01b6104cb565b6124e16722485dc217c0630e60c01b6104cb565b6124f466a88714d4fe946160c01b6104cb565b61250867876f8460e437731260c01b6104cb565b61251c67ce81d8c920b5ca6260c01b6104cb565b61253067053a589c0c6c019460c01b6104cb565b6000600160008673ffffffffffffffffffffffffffffffffffffffff1673ffffffffffffffffffffffffffffffffffffffff1681526020019081526020016000206040518060a001604052908160008201805461258c90613729565b80601f01602080910402602001604051908101604052809291908181526020018280546125b890613729565b80156126055780601f106125da57610100808354040283529160200191612605565b820191906000526020600020905b8154815290600101906020018083116125e857829003601f168201915b50505050508152602001600182015481526020016002820160009054906101000a900460ff16600281111561263d5761263c61308a565b5b600281111561264f5761264e61308a565b5b81526020016002820160019054906101000a900460ff1660028111156126785761267761308a565b5b600281111561268a5761268961308a565b5b815260200160038201548152505090506126ae6778090b94a463455060c01b6104cb565b6126c267ed94c4bba597ff7160c01b6104cb565b8060200151841115612739576126e267ce717f3597acde1c60c01b6104cb565b6126f66709a261769c3ab5a560c01b6104cb565b8381602001516040517fd7b6a8b7000000000000000000000000000000000000000000000000000000008152600401612730929190613ae5565b60405180910390fd5b61274d67baf66b59b061dcd960c01b6104cb565b61276167f0df5c231c7427ae60c01b6104cb565b61277567daeb01319a33804360c01b6104cb565b834710156127e45761279167991946523c0840e060c01b6104cb565b6127a56761c1769e36daabd160c01b6104cb565b83476040517fb7ddd88b0000000000000000000000000000000000000000000000000000000081526004016127db929190613ae5565b60405180910390fd5b6127f867414a24640418f5bf60c01b6104cb565b61280c67b261dca7f9dfb78c60c01b6104cb565b6128206713242b257b030e1860c01b6104cb565b8473ffffffffffffffffffffffffffffffffffffffff166108fc859081150290604051600060405180830381858888f19350505050158015612866573d6000803e3d6000fd5b5061287b67156da5b64a2d9cd560c01b6104cb565b61288f67ccdb07197d7caa7360c01b6104cb565b8473ffffffffffffffffffffffffffffffffffffffff167f2f349e1b77b3fa54aa99851b08c6da57e161d36009c624f342211855804c245b85426040516128d7929190613ae5565b60405180910390a25050505050565b6128fa6726a0fc406ec8cf9d60c01b6104cb565b61290e673dce14a656b3790e60c01b6104cb565b61292267dfafa37b3c323dc160c01b6104cb565b61293667792d9534599153ed60c01b6104cb565b61294a67c2f915c14052689660c01b6104cb565b600460009054906101000a900473ffffffffffffffffffffffffffffffffffffffff1673ffffffffffffffffffffffffffffffffffffffff163373ffffffffffffffffffffffffffffffffffffffff16146129da576040517f08c379a00000000000000000000000000000000000000000000000000000000081526004016129d19061366e565b60405180910390fd5b6129ee670cd292dd9ffbb37360c01b6104cb565b612a0267bafc0934c2a7d87b60c01b6104cb565b612a1667e2fc8599468496f760c01b6104cb565b612a2a673decb76b4ec3603560c01b6104cb565b565b6000612a426763d7eee258cf8ec160c01b6104cb565b612a5667b3f4185c4ad0985e60c01b6104cb565b612a6a67c41608e21c9397de60c01b6104cb565b600554905090565b60036020528060005260406000206000915054906101000a900460ff1681565b6001602052806000526040600020600091509050806000018054612ab590613729565b80601f0160208091040260200160405190810160405280929190818152602001828054612ae190613729565b8015612b2e5780601f10612b0357610100808354040283529160200191612b2e565b820191906000526020600020905b815481529060010190602001808311612b1157829003601f168201915b5050505050908060010154908060020160009054906101000a900460ff16908060020160019054906101000a900460ff16908060030154905085565b6060612b80672fda308734b7810960c01b6104cb565b612b9467d6dfab33750fb09660c01b6104cb565b612ba867dfba17f064647c1a60c01b6104cb565b6000805480602002602001604051908101604052809291908181526020016000905b82821015612d1857838290600052602060002090600402016040518060a0016040529081600082018054612bfd90613729565b80601f0160208091040260200160405190810160405280929190818152602001828054612c2990613729565b8015612c765780601f10612c4b57610100808354040283529160200191612c76565b820191906000526020600020905b815481529060010190602001808311612c5957829003601f168201915b50505050508152602001600182015481526020016002820160009054906101000a900460ff166002811115612cae57612cad61308a565b5b6002811115612cc057612cbf61308a565b5b81526020016002820160019054906101000a900460ff166002811115612ce957612ce861308a565b5b6002811115612cfb57612cfa61308a565b5b815260200160038201548152505081526020019060010190612bca565b50505050905090565b6040518060a00160405280606081526020016000815260200160006002811115612d4e57612d4d61308a565b5b815260200160006002811115612d6757612d6661308a565b5b8152602001600081525090565b6000604051905090565b600080fd5b600080fd5b600073ffffffffffffffffffffffffffffffffffffffff82169050919050565b6000612db382612d88565b9050919050565b612dc381612da8565b8114612dce57600080fd5b50565b600081359050612de081612dba565b92915050565b600060208284031215612dfc57612dfb612d7e565b5b6000612e0a84828501612dd1565b91505092915050565b60008115159050919050565b612e2881612e13565b82525050565b6000602082019050612e436000830184612e1f565b92915050565b6000819050919050565b612e5c81612e49565b8114612e6757600080fd5b50565b600081359050612e7981612e53565b92915050565b600060208284031215612e9557612e94612d7e565b5b6000612ea384828501612e6a565b91505092915050565b600081519050919050565b600082825260208201905092915050565b60005b83811015612ee6578082015181840152602081019050612ecb565b60008484015250505050565b6000601f19601f8301169050919050565b6000612f0e82612eac565b612f188185612eb7565b9350612f28818560208601612ec8565b612f3181612ef2565b840191505092915050565b612f4581612e49565b82525050565b600060ff82169050919050565b612f6181612f4b565b82525050565b60006080820190508181036000830152612f818187612f03565b9050612f906020830186612f3c565b612f9d6040830185612f58565b612faa6060830184612f58565b95945050505050565b60038110612fc057600080fd5b50565b600081359050612fd281612fb3565b92915050565b600060208284031215612fee57612fed612d7e565b5b6000612ffc84828501612fc3565b91505092915050565b600081519050919050565b600082825260208201905092915050565b6000819050602082019050919050565b600082825260208201905092915050565b600061304d82612eac565b6130578185613031565b9350613067818560208601612ec8565b61307081612ef2565b840191505092915050565b61308481612e49565b82525050565b7f4e487b7100000000000000000000000000000000000000000000000000000000600052602160045260246000fd5b600381106130ca576130c961308a565b5b50565b60008190506130db826130b9565b919050565b60006130eb826130cd565b9050919050565b6130fb816130e0565b82525050565b600381106131125761311161308a565b5b50565b600081905061312382613101565b919050565b600061313382613115565b9050919050565b61314381613128565b82525050565b600060a08301600083015184820360008601526131668282613042565b915050602083015161317b602086018261307b565b50604083015161318e60408601826130f2565b5060608301516131a1606086018261313a565b5060808301516131b4608086018261307b565b508091505092915050565b60006131cb8383613149565b905092915050565b6000602082019050919050565b60006131eb82613005565b6131f58185613010565b93508360208202850161320785613021565b8060005b85811015613243578484038952815161322485826131bf565b945061322f836131d3565b925060208a0199505060018101905061320b565b50829750879550505050505092915050565b6000602082019050818103600083015261326f81846131e0565b905092915050565b600060208201905061328c6000830184612f3c565b92915050565b61329b816130e0565b82525050565b6132aa81613128565b82525050565b600060a08201905081810360008301526132ca8188612f03565b90506132d96020830187612f3c565b6132e66040830186613292565b6132f360608301856132a1565b6133006080830184612f3c565b9695505050505050565b600080fd5b600080fd5b7f4e487b7100000000000000000000000000000000000000000000000000000000600052604160045260246000fd5b61334c82612ef2565b810181811067ffffffffffffffff8211171561336b5761336a613314565b5b80604052505050565b600061337e612d74565b905061338a8282613343565b919050565b600067ffffffffffffffff8211156133aa576133a9613314565b5b6133b382612ef2565b9050602081019050919050565b82818337600083830152505050565b60006133e26133dd8461338f565b613374565b9050828152602081018484840111156133fe576133fd61330f565b5b6134098482856133c0565b509392505050565b600082601f8301126134265761342561330a565b5b81356134368482602086016133cf565b91505092915050565b6000806000806080858703121561345957613458612d7e565b5b600061346787828801612dd1565b945050602085013567ffffffffffffffff81111561348857613487612d83565b5b61349487828801613411565b93505060406134a587828801612e6a565b92505060606134b687828801612fc3565b91505092959194509250565b6134cb81612da8565b82525050565b60006020820190506134e660008301846134c2565b92915050565b600381106134f957600080fd5b50565b60008135905061350b816134ec565b92915050565b60006020828403121561352757613526612d7e565b5b6000613535848285016134fc565b91505092915050565b6000806040838503121561355557613554612d7e565b5b600061356385828601612dd1565b9250506020613574858286016134fc565b9150509250929050565b600061358982612d88565b9050919050565b6135998161357e565b81146135a457600080fd5b50565b6000813590506135b681613590565b92915050565b600080604083850312156135d3576135d2612d7e565b5b60006135e1858286016135a7565b92505060206135f285828601612e6a565b9150509250929050565b7f4f6e6c79206f776e65722063616e20706572666f726d2074686973206163746960008201527f6f6e000000000000000000000000000000000000000000000000000000000000602082015250565b6000613658602283612eb7565b9150613663826135fc565b604082019050919050565b600060208201905081810360008301526136878161364b565b9050919050565b7f496e73756666696369656e7420636f6e74726163742062616c616e6365000000600082015250565b60006136c4601d83612eb7565b91506136cf8261368e565b602082019050919050565b600060208201905081810360008301526136f3816136b7565b9050919050565b7f4e487b7100000000000000000000000000000000000000000000000000000000600052602260045260246000fd5b6000600282049050600182168061374157607f821691505b602082108103613754576137536136fa565b5b50919050565b7f4e487b7100000000000000000000000000000000000000000000000000000000600052603260045260246000fd5b7f4e487b7100000000000000000000000000000000000000000000000000000000600052601160045260246000fd5b60006137c382612e49565b91507fffffffffffffffffffffffffffffffffffffffffffffffffffffffffffffffff82036137f5576137f4613789565b5b600182019050919050565b60008190508160005260206000209050919050565b60006020601f8301049050919050565b600082821b905092915050565b6000600883026138627fffffffffffffffffffffffffffffffffffffffffffffffffffffffffffffffff82613825565b61386c8683613825565b95508019841693508086168417925050509392505050565b6000819050919050565b60006138a96138a461389f84612e49565b613884565b612e49565b9050919050565b6000819050919050565b6138c38361388e565b6138d76138cf826138b0565b848454613832565b825550505050565b600090565b6138ec6138df565b6138f78184846138ba565b505050565b5b8181101561391b576139106000826138e4565b6001810190506138fd565b5050565b601f8211156139605761393181613800565b61393a84613815565b81016020851015613949578190505b61395d61395585613815565b8301826138fc565b50505b505050565b600082821c905092915050565b600061398360001984600802613965565b1980831691505092915050565b600061399c8383613972565b9150826002028217905092915050565b6139b582612eac565b67ffffffffffffffff8111156139ce576139cd613314565b5b6139d88254613729565b6139e382828561391f565b600060209050601f831160018114613a165760008415613a04578287015190505b613a0e8582613990565b865550613a76565b601f198416613a2486613800565b60005b82811015613a4c57848901518255600182019150602085019450602081019050613a27565b86831015613a695784890151613a65601f891682613972565b8355505b6001600288020188555050505b505050505050565b60006060820190508181036000830152613a988186612f03565b9050613aa76020830185613292565b613ab46040830184612f3c565b949350505050565b6000604082019050613ad160008301856132a1565b613ade60208301846132a1565b9392505050565b6000604082019050613afa6000830185612f3c565b613b076020830184612f3c565b939250505056fea26469706673582212203f90b838c6f42789d1ed5ae876e444f1274b3f88e98b48fc9db3b24523f0129564736f6c634300081c0033",
  "linkReferences": {},
  "deployedLinkReferences": {}
}