{
  "_format": "hh-sol-artifact-1",
  "contractName": "MyToken",
  "sourceName": "contracts/Token.sol",
  "abi": [
    {
      "inputs": [
        {
          "internalType": "uint256",
          "name": "_initialSupply",
          "type": "uint256"
        },
        {
          "internalType": "string",
          "name": "_name",
          "type": "string"
        },
        {
          "internalType": "string",
          "name": "_symbol",
          "type": "string"
        },
        {
          "internalType": "string",
          "name": "_logoURI",
          "type": "string"
        }
      ],
      "stateMutability": "nonpayable",
      "type": "constructor"
    },
    {
      "inputs": [
        {
          "internalType": "address",
          "name": "",
          "type": "address"
        },
        {
          "internalType": "address",
          "name": "",
          "type": "address"
        }
      ],
      "name": "_allowances",
      "outputs": [
        {
          "internalType": "uint256",
          "name": "",
          "type": "uint256"
        }
      ],
      "stateMutability": "view",
      "type": "function"
    },
    {
      "inputs": [
        {
          "internalType": "address",
          "name": "",
          "type": "address"
        }
      ],
      "name": "_balances",
      "outputs": [
        {
          "internalType": "uint256",
          "name": "",
          "type": "uint256"
        }
      ],
      "stateMutability": "view",
      "type": "function"
    },
    {
      "inputs": [],
      "name": "_totalSupply",
      "outputs": [
        {
          "internalType": "uint256",
          "name": "",
          "type": "uint256"
        }
      ],
      "stateMutability": "view",
      "type": "function"
    },
    {
      "inputs": [
        {
          "internalType": "address",
          "name": "_owner",
          "type": "address"
        },
        {
          "internalType": "address",
          "name": "_spender",
          "type": "address"
        }
      ],
      "name": "allowance",
      "outputs": [
        {
          "internalType": "uint256",
          "name": "",
          "type": "uint256"
        }
      ],
      "stateMutability": "view",
      "type": "function"
    },
    {
      "inputs": [
        {
          "internalType": "address",
          "name": "_spender",
          "type": "address"
        },
        {
          "internalType": "uint256",
          "name": "_value",
          "type": "uint256"
        }
      ],
      "name": "approve",
      "outputs": [
        {
          "internalType": "bool",
          "name": "",
          "type": "bool"
        }
      ],
      "stateMutability": "nonpayable",
      "type": "function"
    },
    {
      "inputs": [
        {
          "internalType": "address",
          "name": "_owner",
          "type": "address"
        }
      ],
      "name": "balanceOf",
      "outputs": [
        {
          "internalType": "uint256",
          "name": "",
          "type": "uint256"
        }
      ],
      "stateMutability": "view",
      "type": "function"
    },
    {
      "inputs": [],
      "name": "logoURI",
      "outputs": [
        {
          "internalType": "string",
          "name": "",
          "type": "string"
        }
      ],
      "stateMutability": "view",
      "type": "function"
    },
    {
      "inputs": [],
      "name": "name",
      "outputs": [
        {
          "internalType": "string",
          "name": "",
          "type": "string"
        }
      ],
      "stateMutability": "view",
      "type": "function"
    },
    {
      "inputs": [],
      "name": "symbol",
      "outputs": [
        {
          "internalType": "string",
          "name": "",
          "type": "string"
        }
      ],
      "stateMutability": "view",
      "type": "function"
    },
    {
      "inputs": [],
      "name": "totalSupply",
      "outputs": [
        {
          "internalType": "uint256",
          "name": "",
          "type": "uint256"
        }
      ],
      "stateMutability": "view",
      "type": "function"
    },
    {
      "inputs": [
        {
          "internalType": "address",
          "name": "_to",
          "type": "address"
        },
        {
          "internalType": "uint256",
          "name": "_amount",
          "type": "uint256"
        }
      ],
      "name": "transfer",
      "outputs": [
        {
          "internalType": "bool",
          "name": "success",
          "type": "bool"
        }
      ],
      "stateMutability": "nonpayable",
      "type": "function"
    },
    {
      "inputs": [
        {
          "internalType": "address",
          "name": "_from",
          "type": "address"
        },
        {
          "internalType": "address",
          "name": "_to",
          "type": "address"
        },
        {
          "internalType": "uint256",
          "name": "_amount",
          "type": "uint256"
        }
      ],
      "name": "transferFrom",
      "outputs": [
        {
          "internalType": "bool",
          "name": "",
          "type": "bool"
        }
      ],
      "stateMutability": "nonpayable",
      "type": "function"
    }
  ],
  "bytecode": "0x608060405234801561001057600080fd5b506040516116b03803806116b083398181016040528101906100329190610275565b82600390816100419190610547565b5081600490816100519190610547565b50670de0b6b3a7640000846100669190610648565b6002819055506002546000803373ffffffffffffffffffffffffffffffffffffffff1673ffffffffffffffffffffffffffffffffffffffff1681526020019081526020016000208190555080600590816100c09190610547565b505050505061068a565b6000604051905090565b600080fd5b600080fd5b6000819050919050565b6100f1816100de565b81146100fc57600080fd5b50565b60008151905061010e816100e8565b92915050565b600080fd5b600080fd5b6000601f19601f8301169050919050565b7f4e487b7100000000000000000000000000000000000000000000000000000000600052604160045260246000fd5b6101678261011e565b810181811067ffffffffffffffff821117156101865761018561012f565b5b80604052505050565b60006101996100ca565b90506101a5828261015e565b919050565b600067ffffffffffffffff8211156101c5576101c461012f565b5b6101ce8261011e565b9050602081019050919050565b60005b838110156101f95780820151818401526020810190506101de565b60008484015250505050565b6000610218610213846101aa565b61018f565b90508281526020810184848401111561023457610233610119565b5b61023f8482856101db565b509392505050565b600082601f83011261025c5761025b610114565b5b815161026c848260208601610205565b91505092915050565b6000806000806080858703121561028f5761028e6100d4565b5b600061029d878288016100ff565b945050602085015167ffffffffffffffff8111156102be576102bd6100d9565b5b6102ca87828801610247565b935050604085015167ffffffffffffffff8111156102eb576102ea6100d9565b5b6102f787828801610247565b925050606085015167ffffffffffffffff811115610318576103176100d9565b5b61032487828801610247565b91505092959194509250565b600081519050919050565b7f4e487b7100000000000000000000000000000000000000000000000000000000600052602260045260246000fd5b6000600282049050600182168061038257607f821691505b6020821081036103955761039461033b565b5b50919050565b60008190508160005260206000209050919050565b60006020601f8301049050919050565b600082821b905092915050565b6000600883026103fd7fffffffffffffffffffffffffffffffffffffffffffffffffffffffffffffffff826103c0565b61040786836103c0565b95508019841693508086168417925050509392505050565b6000819050919050565b600061044461043f61043a846100de565b61041f565b6100de565b9050919050565b6000819050919050565b61045e83610429565b61047261046a8261044b565b8484546103cd565b825550505050565b600090565b61048761047a565b610492818484610455565b505050565b5b818110156104b6576104ab60008261047f565b600181019050610498565b5050565b601f8211156104fb576104cc8161039b565b6104d5846103b0565b810160208510156104e4578190505b6104f86104f0856103b0565b830182610497565b50505b505050565b600082821c905092915050565b600061051e60001984600802610500565b1980831691505092915050565b6000610537838361050d565b9150826002028217905092915050565b61055082610330565b67ffffffffffffffff8111156105695761056861012f565b5b610573825461036a565b61057e8282856104ba565b600060209050601f8311600181146105b1576000841561059f578287015190505b6105a9858261052b565b865550610611565b601f1984166105bf8661039b565b60005b828110156105e7578489015182556001820191506020850194506020810190506105c2565b868310156106045784890151610600601f89168261050d565b8355505b6001600288020188555050505b505050505050565b7f4e487b7100000000000000000000000000000000000000000000000000000000600052601160045260246000fd5b6000610653826100de565b915061065e836100de565b925082820261066c816100de565b9150828204841483151761068357610682610619565b5b5092915050565b611017806106996000396000f3fe608060405234801561001057600080fd5b50600436106100b45760003560e01c80636bb38b28116100715780636bb38b28146101a35780636ebcf607146101c157806370a08231146101f157806395d89b4114610221578063a9059cbb1461023f578063dd62ed3e1461026f576100b4565b8063024c2ddd146100b957806306fdde03146100e9578063095ea7b31461010757806318160ddd1461013757806323b872dd146101555780633eaaf86b14610185575b600080fd5b6100d360048036038101906100ce9190610af2565b61029f565b6040516100e09190610b4b565b60405180910390f35b6100f16102c4565b6040516100fe9190610bf6565b60405180910390f35b610121600480360381019061011c9190610c44565b610352565b60405161012e9190610c9f565b60405180910390f35b61013f6103df565b60405161014c9190610b4b565b60405180910390f35b61016f600480360381019061016a9190610cba565b6103e9565b60405161017c9190610c9f565b60405180910390f35b61018d6106e1565b60405161019a9190610b4b565b60405180910390f35b6101ab6106e7565b6040516101b89190610bf6565b60405180910390f35b6101db60048036038101906101d69190610d0d565b610775565b6040516101e89190610b4b565b60405180910390f35b61020b60048036038101906102069190610d0d565b61078d565b6040516102189190610b4b565b60405180910390f35b6102296107d5565b6040516102369190610bf6565b60405180910390f35b61025960048036038101906102549190610c44565b610863565b6040516102669190610c9f565b60405180910390f35b61028960048036038101906102849190610af2565b610a08565b6040516102969190610b4b565b60405180910390f35b6001602052816000526040600020602052806000526040600020600091509150505481565b600380546102d190610d69565b80601f01602080910402602001604051908101604052809291908181526020018280546102fd90610d69565b801561034a5780601f1061031f5761010080835404028352916020019161034a565b820191906000526020600020905b81548152906001019060200180831161032d57829003601f168201915b505050505081565b600081600160003373ffffffffffffffffffffffffffffffffffffffff1673ffffffffffffffffffffffffffffffffffffffff16815260200190815260200160002060008573ffffffffffffffffffffffffffffffffffffffff1673ffffffffffffffffffffffffffffffffffffffff168152602001908152602001600020819055506001905092915050565b6000600254905090565b60008073ffffffffffffffffffffffffffffffffffffffff168373ffffffffffffffffffffffffffffffffffffffff1603610459576040517f08c379a000000000000000000000000000000000000000000000000000000000815260040161045090610de6565b60405180910390fd5b6000808573ffffffffffffffffffffffffffffffffffffffff1673ffffffffffffffffffffffffffffffffffffffff168152602001908152602001600020548211156104da576040517f08c379a00000000000000000000000000000000000000000000000000000000081526004016104d190610e52565b60405180910390fd5b600160008573ffffffffffffffffffffffffffffffffffffffff1673ffffffffffffffffffffffffffffffffffffffff16815260200190815260200160002060003373ffffffffffffffffffffffffffffffffffffffff1673ffffffffffffffffffffffffffffffffffffffff16815260200190815260200160002054821115610599576040517f08c379a000000000000000000000000000000000000000000000000000000000815260040161059090610ebe565b60405180910390fd5b816000808673ffffffffffffffffffffffffffffffffffffffff1673ffffffffffffffffffffffffffffffffffffffff16815260200190815260200160002060008282546105e79190610f0d565b92505081905550816000808573ffffffffffffffffffffffffffffffffffffffff1673ffffffffffffffffffffffffffffffffffffffff168152602001908152602001600020600082825461063c9190610f41565b9250508190555081600160008673ffffffffffffffffffffffffffffffffffffffff1673ffffffffffffffffffffffffffffffffffffffff16815260200190815260200160002060003373ffffffffffffffffffffffffffffffffffffffff1673ffffffffffffffffffffffffffffffffffffffff16815260200190815260200160002060008282546106cf9190610f0d565b92505081905550600190509392505050565b60025481565b600580546106f490610d69565b80601f016020809104026020016040519081016040528092919081815260200182805461072090610d69565b801561076d5780601f106107425761010080835404028352916020019161076d565b820191906000526020600020905b81548152906001019060200180831161075057829003601f168201915b505050505081565b60006020528060005260406000206000915090505481565b60008060008373ffffffffffffffffffffffffffffffffffffffff1673ffffffffffffffffffffffffffffffffffffffff168152602001908152602001600020549050919050565b600480546107e290610d69565b80601f016020809104026020016040519081016040528092919081815260200182805461080e90610d69565b801561085b5780601f106108305761010080835404028352916020019161085b565b820191906000526020600020905b81548152906001019060200180831161083e57829003601f168201915b505050505081565b60008073ffffffffffffffffffffffffffffffffffffffff168373ffffffffffffffffffffffffffffffffffffffff16036108d3576040517f08c379a00000000000000000000000000000000000000000000000000000000081526004016108ca90610de6565b60405180910390fd5b6000803373ffffffffffffffffffffffffffffffffffffffff1673ffffffffffffffffffffffffffffffffffffffff16815260200190815260200160002054821115610954576040517f08c379a000000000000000000000000000000000000000000000000000000000815260040161094b90610fc1565b60405180910390fd5b816000803373ffffffffffffffffffffffffffffffffffffffff1673ffffffffffffffffffffffffffffffffffffffff16815260200190815260200160002060008282546109a29190610f0d565b92505081905550816000808573ffffffffffffffffffffffffffffffffffffffff1673ffffffffffffffffffffffffffffffffffffffff16815260200190815260200160002060008282546109f79190610f41565b925050819055506001905092915050565b6000600160008473ffffffffffffffffffffffffffffffffffffffff1673ffffffffffffffffffffffffffffffffffffffff16815260200190815260200160002060008373ffffffffffffffffffffffffffffffffffffffff1673ffffffffffffffffffffffffffffffffffffffff16815260200190815260200160002054905092915050565b600080fd5b600073ffffffffffffffffffffffffffffffffffffffff82169050919050565b6000610abf82610a94565b9050919050565b610acf81610ab4565b8114610ada57600080fd5b50565b600081359050610aec81610ac6565b92915050565b60008060408385031215610b0957610b08610a8f565b5b6000610b1785828601610add565b9250506020610b2885828601610add565b9150509250929050565b6000819050919050565b610b4581610b32565b82525050565b6000602082019050610b606000830184610b3c565b92915050565b600081519050919050565b600082825260208201905092915050565b60005b83811015610ba0578082015181840152602081019050610b85565b60008484015250505050565b6000601f19601f8301169050919050565b6000610bc882610b66565b610bd28185610b71565b9350610be2818560208601610b82565b610beb81610bac565b840191505092915050565b60006020820190508181036000830152610c108184610bbd565b905092915050565b610c2181610b32565b8114610c2c57600080fd5b50565b600081359050610c3e81610c18565b92915050565b60008060408385031215610c5b57610c5a610a8f565b5b6000610c6985828601610add565b9250506020610c7a85828601610c2f565b9150509250929050565b60008115159050919050565b610c9981610c84565b82525050565b6000602082019050610cb46000830184610c90565b92915050565b600080600060608486031215610cd357610cd2610a8f565b5b6000610ce186828701610add565b9350506020610cf286828701610add565b9250506040610d0386828701610c2f565b9150509250925092565b600060208284031215610d2357610d22610a8f565b5b6000610d3184828501610add565b91505092915050565b7f4e487b7100000000000000000000000000000000000000000000000000000000600052602260045260246000fd5b60006002820490506001821680610d8157607f821691505b602082108103610d9457610d93610d3a565b5b50919050565b7f496e76616c696420616464726573730000000000000000000000000000000000600082015250565b6000610dd0600f83610b71565b9150610ddb82610d9a565b602082019050919050565b60006020820190508181036000830152610dff81610dc3565b9050919050565b7f496e73756666696369656e742062616c616e6365000000000000000000000000600082015250565b6000610e3c601483610b71565b9150610e4782610e06565b602082019050919050565b60006020820190508181036000830152610e6b81610e2f565b9050919050565b7f496e73756666696369656e7420616c6c6f77616e636500000000000000000000600082015250565b6000610ea8601683610b71565b9150610eb382610e72565b602082019050919050565b60006020820190508181036000830152610ed781610e9b565b9050919050565b7f4e487b7100000000000000000000000000000000000000000000000000000000600052601160045260246000fd5b6000610f1882610b32565b9150610f2383610b32565b9250828203905081811115610f3b57610f3a610ede565b5b92915050565b6000610f4c82610b32565b9150610f5783610b32565b9250828201905080821115610f6f57610f6e610ede565b5b92915050565b7f696e73756666696369656e742062616c616e6365000000000000000000000000600082015250565b6000610fab601483610b71565b9150610fb682610f75565b602082019050919050565b60006020820190508181036000830152610fda81610f9e565b905091905056fea2646970667358221220781336239cc9435a54c770f397bab639437ae3058d8a4454d63c303ed93341b164736f6c634300081c0033",
  "linkReferences": {},
  "deployedLinkReferences": {}
}