{
  "_format": "hh-sol-artifact-1",
  "contractName": "EmployeeManagement",
  "sourceName": "contracts/Paystaff.sol",
  "abi": [
    {
      "inputs": [],
      "stateMutability": "nonpayable",
      "type": "constructor"
    },
    {
      "inputs": [
        {
          "internalType": "uint256",
          "name": "amount",
          "type": "uint256"
        },
        {
          "internalType": "uint256",
          "name": "agreedSalary",
          "type": "uint256"
        }
      ],
      "name": "AmountExceedsAgreedSalary",
      "type": "error"
    },
    {
      "inputs": [
        {
          "internalType": "address",
          "name": "employee",
          "type": "address"
        }
      ],
      "name": "EmployeeAlreadyRegistered",
      "type": "error"
    },
    {
      "inputs": [
        {
          "internalType": "address",
          "name": "employee",
          "type": "address"
        }
      ],
      "name": "EmployeeNotActive",
      "type": "error"
    },
    {
      "inputs": [
        {
          "internalType": "address",
          "name": "employee",
          "type": "address"
        }
      ],
      "name": "EmployeeNotFound",
      "type": "error"
    },
    {
      "inputs": [
        {
          "internalType": "uint256",
          "name": "required",
          "type": "uint256"
        },
        {
          "internalType": "uint256",
          "name": "available",
          "type": "uint256"
        }
      ],
      "name": "InsufficientContractBalance",
      "type": "error"
    },
    {
      "anonymous": false,
      "inputs": [
        {
          "indexed": true,
          "internalType": "address",
          "name": "employee",
          "type": "address"
        },
        {
          "indexed": false,
          "internalType": "string",
          "name": "name",
          "type": "string"
        },
        {
          "indexed": false,
          "internalType": "enum EmployeeManagement.Role",
          "name": "role",
          "type": "uint8"
        },
        {
          "indexed": false,
          "internalType": "uint256",
          "name": "salary",
          "type": "uint256"
        }
      ],
      "name": "EmployeeRegistered",
      "type": "event"
    },
    {
      "anonymous": false,
      "inputs": [
        {
          "indexed": true,
          "internalType": "address",
          "name": "employee",
          "type": "address"
        },
        {
          "indexed": false,
          "internalType": "enum EmployeeManagement.Status",
          "name": "oldStatus",
          "type": "uint8"
        },
        {
          "indexed": false,
          "internalType": "enum EmployeeManagement.Status",
          "name": "newStatus",
          "type": "uint8"
        }
      ],
      "name": "EmployeeStatusChanged",
      "type": "event"
    },
    {
      "anonymous": false,
      "inputs": [
        {
          "indexed": true,
          "internalType": "address",
          "name": "employee",
          "type": "address"
        },
        {
          "indexed": false,
          "internalType": "uint256",
          "name": "amount",
          "type": "uint256"
        },
        {
          "indexed": false,
          "internalType": "uint256",
          "name": "timestamp",
          "type": "uint256"
        }
      ],
      "name": "SalaryDisbursed",
      "type": "event"
    },
    {
      "stateMutability": "payable",
      "type": "fallback"
    },
    {
      "inputs": [
        {
          "internalType": "address",
          "name": "_employee",
          "type": "address"
        }
      ],
      "name": "checkEmployeeRegistration",
      "outputs": [
        {
          "internalType": "bool",
          "name": "",
          "type": "bool"
        }
      ],
      "stateMutability": "view",
      "type": "function"
    },
    {
      "inputs": [
        {
          "internalType": "address payable",
          "name": "_employee",
          "type": "address"
        },
        {
          "internalType": "uint256",
          "name": "_amount",
          "type": "uint256"
        }
      ],
      "name": "disburseSalary",
      "outputs": [],
      "stateMutability": "payable",
      "type": "function"
    },
    {
      "inputs": [
        {
          "internalType": "address",
          "name": "",
          "type": "address"
        }
      ],
      "name": "employeeDetails",
      "outputs": [
        {
          "internalType": "string",
          "name": "name",
          "type": "string"
        },
        {
          "internalType": "uint256",
          "name": "salary",
          "type": "uint256"
        },
        {
          "internalType": "enum EmployeeManagement.Role",
          "name": "role",
          "type": "uint8"
        },
        {
          "internalType": "enum EmployeeManagement.Status",
          "name": "status",
          "type": "uint8"
        },
        {
          "internalType": "uint256",
          "name": "registrationDate",
          "type": "uint256"
        }
      ],
      "stateMutability": "view",
      "type": "function"
    },
    {
      "inputs": [
        {
          "internalType": "address",
          "name": "",
          "type": "address"
        }
      ],
      "name": "employeeIndex",
      "outputs": [
        {
          "internalType": "uint256",
          "name": "",
          "type": "uint256"
        }
      ],
      "stateMutability": "view",
      "type": "function"
    },
    {
      "inputs": [
        {
          "internalType": "uint256",
          "name": "",
          "type": "uint256"
        }
      ],
      "name": "employees",
      "outputs": [
        {
          "internalType": "string",
          "name": "name",
          "type": "string"
        },
        {
          "internalType": "uint256",
          "name": "salary",
          "type": "uint256"
        },
        {
          "internalType": "enum EmployeeManagement.Role",
          "name": "role",
          "type": "uint8"
        },
        {
          "internalType": "enum EmployeeManagement.Status",
          "name": "status",
          "type": "uint8"
        },
        {
          "internalType": "uint256",
          "name": "registrationDate",
          "type": "uint256"
        }
      ],
      "stateMutability": "view",
      "type": "function"
    },
    {
      "inputs": [],
      "name": "fundContract",
      "outputs": [],
      "stateMutability": "payable",
      "type": "function"
    },
    {
      "inputs": [],
      "name": "getActiveEmployeesCount",
      "outputs": [
        {
          "internalType": "uint256",
          "name": "",
          "type": "uint256"
        }
      ],
      "stateMutability": "view",
      "type": "function"
    },
    {
      "inputs": [],
      "name": "getAllEmployees",
      "outputs": [
        {
          "components": [
            {
              "internalType": "string",
              "name": "name",
              "type": "string"
            },
            {
              "internalType": "uint256",
              "name": "salary",
              "type": "uint256"
            },
            {
              "internalType": "enum EmployeeManagement.Role",
              "name": "role",
              "type": "uint8"
            },
            {
              "internalType": "enum EmployeeManagement.Status",
              "name": "status",
              "type": "uint8"
            },
            {
              "internalType": "uint256",
              "name": "registrationDate",
              "type": "uint256"
            }
          ],
          "internalType": "struct EmployeeManagement.Employee[]",
          "name": "",
          "type": "tuple[]"
        }
      ],
      "stateMutability": "view",
      "type": "function"
    },
    {
      "inputs": [],
      "name": "getContractBalance",
      "outputs": [
        {
          "internalType": "uint256",
          "name": "",
          "type": "uint256"
        }
      ],
      "stateMutability": "view",
      "type": "function"
    },
    {
      "inputs": [],
      "name": "getEmployeeCount",
      "outputs": [
        {
          "internalType": "uint256",
          "name": "",
          "type": "uint256"
        }
      ],
      "stateMutability": "view",
      "type": "function"
    },
    {
      "inputs": [
        {
          "internalType": "address",
          "name": "_employee",
          "type": "address"
        }
      ],
      "name": "getEmployeeDetails",
      "outputs": [
        {
          "internalType": "string",
          "name": "name",
          "type": "string"
        },
        {
          "internalType": "uint256",
          "name": "salary",
          "type": "uint256"
        },
        {
          "internalType": "uint8",
          "name": "role",
          "type": "uint8"
        },
        {
          "internalType": "uint8",
          "name": "status",
          "type": "uint8"
        }
      ],
      "stateMutability": "view",
      "type": "function"
    },
    {
      "inputs": [
        {
          "internalType": "enum EmployeeManagement.Role",
          "name": "_role",
          "type": "uint8"
        }
      ],
      "name": "getEmployeesByRole",
      "outputs": [
        {
          "components": [
            {
              "internalType": "string",
              "name": "name",
              "type": "string"
            },
            {
              "internalType": "uint256",
              "name": "salary",
              "type": "uint256"
            },
            {
              "internalType": "enum EmployeeManagement.Role",
              "name": "role",
              "type": "uint8"
            },
            {
              "internalType": "enum EmployeeManagement.Status",
              "name": "status",
              "type": "uint8"
            },
            {
              "internalType": "uint256",
              "name": "registrationDate",
              "type": "uint256"
            }
          ],
          "internalType": "struct EmployeeManagement.Employee[]",
          "name": "",
          "type": "tuple[]"
        }
      ],
      "stateMutability": "view",
      "type": "function"
    },
    {
      "inputs": [
        {
          "internalType": "enum EmployeeManagement.Status",
          "name": "_status",
          "type": "uint8"
        }
      ],
      "name": "getEmployeesByStatus",
      "outputs": [
        {
          "components": [
            {
              "internalType": "string",
              "name": "name",
              "type": "string"
            },
            {
              "internalType": "uint256",
              "name": "salary",
              "type": "uint256"
            },
            {
              "internalType": "enum EmployeeManagement.Role",
              "name": "role",
              "type": "uint8"
            },
            {
              "internalType": "enum EmployeeManagement.Status",
              "name": "status",
              "type": "uint8"
            },
            {
              "internalType": "uint256",
              "name": "registrationDate",
              "type": "uint256"
            }
          ],
          "internalType": "struct EmployeeManagement.Employee[]",
          "name": "",
          "type": "tuple[]"
        }
      ],
      "stateMutability": "view",
      "type": "function"
    },
    {
      "inputs": [
        {
          "internalType": "address",
          "name": "",
          "type": "address"
        }
      ],
      "name": "isRegistered",
      "outputs": [
        {
          "internalType": "bool",
          "name": "",
          "type": "bool"
        }
      ],
      "stateMutability": "view",
      "type": "function"
    },
    {
      "inputs": [],
      "name": "owner",
      "outputs": [
        {
          "internalType": "address",
          "name": "",
          "type": "address"
        }
      ],
      "stateMutability": "view",
      "type": "function"
    },
    {
      "inputs": [
        {
          "internalType": "address",
          "name": "_employee",
          "type": "address"
        },
        {
          "internalType": "string",
          "name": "_name",
          "type": "string"
        },
        {
          "internalType": "uint256",
          "name": "_salary",
          "type": "uint256"
        },
        {
          "internalType": "enum EmployeeManagement.Role",
          "name": "_role",
          "type": "uint8"
        }
      ],
      "name": "registerEmployee",
      "outputs": [],
      "stateMutability": "nonpayable",
      "type": "function"
    },
    {
      "inputs": [],
      "name": "totalEmployees",
      "outputs": [
        {
          "internalType": "uint256",
          "name": "",
          "type": "uint256"
        }
      ],
      "stateMutability": "view",
      "type": "function"
    },
    {
      "inputs": [
        {
          "internalType": "address",
          "name": "_employee",
          "type": "address"
        },
        {
          "internalType": "enum EmployeeManagement.Status",
          "name": "_newStatus",
          "type": "uint8"
        }
      ],
      "name": "updateEmployeeStatus",
      "outputs": [],
      "stateMutability": "nonpayable",
      "type": "function"
    },
    {
      "inputs": [
        {
          "internalType": "uint256",
          "name": "_amount",
          "type": "uint256"
        }
      ],
      "name": "withdrawFunds",
      "outputs": [],
      "stateMutability": "nonpayable",
      "type": "function"
    },
    {
      "stateMutability": "payable",
      "type": "receive"
    }
  ],
  "bytecode": "0x6080604052348015600f57600080fd5b5033600460006101000a81548173ffffffffffffffffffffffffffffffffffffffff021916908373ffffffffffffffffffffffffffffffffffffffff160217905550612bfa806100606000396000f3fe6080604052600436106101185760003560e01c80636f9fb98a116100a0578063bd097e2111610064578063bd097e21146103d3578063c2a63e3b146103dd578063c3c5a54714610408578063df35f96914610445578063e3366fed1461048657610119565b80636f9fb98a146102fb5780638da5cb5b1461032657806393db427f14610351578063b48b41e71461038e578063bba2270a146103b757610119565b80631d7a7344116100e75780631d7a7344146101fe5780634739326b1461023b5780634f49dede1461027c5780634f90f6ec146102a557806352b9b973146102d057610119565b8063079277aa1461011b578063155dd5ee146101585780631caafcf1146101815780631d019ebe146101c157610119565b5b005b34801561012757600080fd5b50610142600480360381019061013d9190611e9c565b6104b1565b60405161014f9190611ee4565b60405180910390f35b34801561016457600080fd5b5061017f600480360381019061017a9190611f35565b610507565b005b34801561018d57600080fd5b506101a860048036038101906101a39190611e9c565b610646565b6040516101b8949392919061201d565b60405180910390f35b3480156101cd57600080fd5b506101e860048036038101906101e3919061208e565b61088f565b6040516101f5919061230b565b60405180910390f35b34801561020a57600080fd5b5061022560048036038101906102209190611e9c565b610b71565b604051610232919061232d565b60405180910390f35b34801561024757600080fd5b50610262600480360381019061025d9190611f35565b610b89565b604051610273959493929190612366565b60405180910390f35b34801561028857600080fd5b506102a3600480360381019061029e91906124f5565b610c71565b005b3480156102b157600080fd5b506102ba611074565b6040516102c7919061232d565b60405180910390f35b3480156102dc57600080fd5b506102e561110d565b6040516102f2919061232d565b60405180910390f35b34801561030757600080fd5b50610310611113565b60405161031d919061232d565b60405180910390f35b34801561033257600080fd5b5061033b61111b565b6040516103489190612587565b60405180910390f35b34801561035d57600080fd5b50610378600480360381019061037391906125c7565b611141565b604051610385919061230b565b60405180910390f35b34801561039a57600080fd5b506103b560048036038101906103b091906125f4565b611423565b005b6103d160048036038101906103cc9190612672565b6116e2565b005b6103db611ac8565b005b3480156103e957600080fd5b506103f2611b5a565b6040516103ff919061232d565b60405180910390f35b34801561041457600080fd5b5061042f600480360381019061042a9190611e9c565b611b64565b60405161043c9190611ee4565b60405180910390f35b34801561045157600080fd5b5061046c60048036038101906104679190611e9c565b611b84565b60405161047d959493929190612366565b60405180910390f35b34801561049257600080fd5b5061049b611c5c565b6040516104a8919061230b565b60405180910390f35b6000600360008373ffffffffffffffffffffffffffffffffffffffff1673ffffffffffffffffffffffffffffffffffffffff16815260200190815260200160002060009054906101000a900460ff169050919050565b600460009054906101000a900473ffffffffffffffffffffffffffffffffffffffff1673ffffffffffffffffffffffffffffffffffffffff163373ffffffffffffffffffffffffffffffffffffffff1614610597576040517f08c379a000000000000000000000000000000000000000000000000000000000815260040161058e90612724565b60405180910390fd5b804710156105da576040517f08c379a00000000000000000000000000000000000000000000000000000000081526004016105d190612790565b60405180910390fd5b600460009054906101000a900473ffffffffffffffffffffffffffffffffffffffff1673ffffffffffffffffffffffffffffffffffffffff166108fc829081150290604051600060405180830381858888f19350505050158015610642573d6000803e3d6000fd5b5050565b6060600080600084600360008273ffffffffffffffffffffffffffffffffffffffff1673ffffffffffffffffffffffffffffffffffffffff16815260200190815260200160002060009054906101000a900460ff166106dc57806040517fb7f1343f0000000000000000000000000000000000000000000000000000000081526004016106d39190612587565b60405180910390fd5b6000600160008873ffffffffffffffffffffffffffffffffffffffff1673ffffffffffffffffffffffffffffffffffffffff1681526020019081526020016000206040518060a0016040529081600082018054610738906127df565b80601f0160208091040260200160405190810160405280929190818152602001828054610764906127df565b80156107b15780601f10610786576101008083540402835291602001916107b1565b820191906000526020600020905b81548152906001019060200180831161079457829003601f168201915b50505050508152602001600182015481526020016002820160009054906101000a900460ff1660028111156107e9576107e8612140565b5b60028111156107fb576107fa612140565b5b81526020016002820160019054906101000a900460ff16600281111561082457610823612140565b5b600281111561083657610835612140565b5b81526020016003820154815250509050806000015181602001518260400151600281111561086757610866612140565b5b8360600151600281111561087e5761087d612140565b5b955095509550955050509193509193565b60606000805b60008054905081101561091b578360028111156108b5576108b4612140565b5b600082815481106108c9576108c8612810565b5b906000526020600020906004020160020160009054906101000a900460ff1660028111156108fa576108f9612140565b5b0361090e57818061090a9061286e565b9250505b8080600101915050610895565b5060008167ffffffffffffffff811115610938576109376123ca565b5b60405190808252806020026020018201604052801561097157816020015b61095e611dd7565b8152602001906001900390816109565790505b5090506000805b600080549050811015610b655785600281111561099857610997612140565b5b600082815481106109ac576109ab612810565b5b906000526020600020906004020160020160009054906101000a900460ff1660028111156109dd576109dc612140565b5b03610b5857600081815481106109f6576109f5612810565b5b90600052602060002090600402016040518060a0016040529081600082018054610a1f906127df565b80601f0160208091040260200160405190810160405280929190818152602001828054610a4b906127df565b8015610a985780601f10610a6d57610100808354040283529160200191610a98565b820191906000526020600020905b815481529060010190602001808311610a7b57829003601f168201915b50505050508152602001600182015481526020016002820160009054906101000a900460ff166002811115610ad057610acf612140565b5b6002811115610ae257610ae1612140565b5b81526020016002820160019054906101000a900460ff166002811115610b0b57610b0a612140565b5b6002811115610b1d57610b1c612140565b5b8152602001600382015481525050838381518110610b3e57610b3d612810565b5b60200260200101819052508180610b549061286e565b9250505b8080600101915050610978565b50819350505050919050565b60026020528060005260406000206000915090505481565b60008181548110610b9957600080fd5b9060005260206000209060040201600091509050806000018054610bbc906127df565b80601f0160208091040260200160405190810160405280929190818152602001828054610be8906127df565b8015610c355780601f10610c0a57610100808354040283529160200191610c35565b820191906000526020600020905b815481529060010190602001808311610c1857829003601f168201915b5050505050908060010154908060020160009054906101000a900460ff16908060020160019054906101000a900460ff16908060030154905085565b600460009054906101000a900473ffffffffffffffffffffffffffffffffffffffff1673ffffffffffffffffffffffffffffffffffffffff163373ffffffffffffffffffffffffffffffffffffffff1614610d01576040517f08c379a0000000000000000000000000000000000000000000000000000000008152600401610cf890612724565b60405180910390fd5b600360008573ffffffffffffffffffffffffffffffffffffffff1673ffffffffffffffffffffffffffffffffffffffff16815260200190815260200160002060009054906101000a900460ff1615610d9057836040517f8f64dc12000000000000000000000000000000000000000000000000000000008152600401610d879190612587565b60405180910390fd5b60006040518060a00160405280858152602001848152602001836002811115610dbc57610dbb612140565b5b815260200160006002811115610dd557610dd4612140565b5b815260200142815250905060008190806001815401808255809150506001900390600052602060002090600402016000909190919091506000820151816000019081610e219190612a62565b506020820151816001015560408201518160020160006101000a81548160ff02191690836002811115610e5757610e56612140565b5b021790555060608201518160020160016101000a81548160ff02191690836002811115610e8757610e86612140565b5b021790555060808201518160030155505080600160008773ffffffffffffffffffffffffffffffffffffffff1673ffffffffffffffffffffffffffffffffffffffff1681526020019081526020016000206000820151816000019081610eed9190612a62565b506020820151816001015560408201518160020160006101000a81548160ff02191690836002811115610f2357610f22612140565b5b021790555060608201518160020160016101000a81548160ff02191690836002811115610f5357610f52612140565b5b021790555060808201518160030155905050600554600260008773ffffffffffffffffffffffffffffffffffffffff1673ffffffffffffffffffffffffffffffffffffffff168152602001908152602001600020819055506001600360008773ffffffffffffffffffffffffffffffffffffffff1673ffffffffffffffffffffffffffffffffffffffff16815260200190815260200160002060006101000a81548160ff021916908315150217905550600560008154809291906110169061286e565b91905055508473ffffffffffffffffffffffffffffffffffffffff167f1a50fd646625b0aea99cbfd06d5609b6336d9663baee259dff4ce194a82cd55485848660405161106593929190612b34565b60405180910390a25050505050565b6000806000905060005b600080549050811015611105576000600281111561109f5761109e612140565b5b600082815481106110b3576110b2612810565b5b906000526020600020906004020160020160019054906101000a900460ff1660028111156110e4576110e3612140565b5b036110f85781806110f49061286e565b9250505b808060010191505061107e565b508091505090565b60055481565b600047905090565b600460009054906101000a900473ffffffffffffffffffffffffffffffffffffffff1681565b60606000805b6000805490508110156111cd5783600281111561116757611166612140565b5b6000828154811061117b5761117a612810565b5b906000526020600020906004020160020160019054906101000a900460ff1660028111156111ac576111ab612140565b5b036111c05781806111bc9061286e565b9250505b8080600101915050611147565b5060008167ffffffffffffffff8111156111ea576111e96123ca565b5b60405190808252806020026020018201604052801561122357816020015b611210611dd7565b8152602001906001900390816112085790505b5090506000805b6000805490508110156114175785600281111561124a57611249612140565b5b6000828154811061125e5761125d612810565b5b906000526020600020906004020160020160019054906101000a900460ff16600281111561128f5761128e612140565b5b0361140a57600081815481106112a8576112a7612810565b5b90600052602060002090600402016040518060a00160405290816000820180546112d1906127df565b80601f01602080910402602001604051908101604052809291908181526020018280546112fd906127df565b801561134a5780601f1061131f5761010080835404028352916020019161134a565b820191906000526020600020905b81548152906001019060200180831161132d57829003601f168201915b50505050508152602001600182015481526020016002820160009054906101000a900460ff16600281111561138257611381612140565b5b600281111561139457611393612140565b5b81526020016002820160019054906101000a900460ff1660028111156113bd576113bc612140565b5b60028111156113cf576113ce612140565b5b81526020016003820154815250508383815181106113f0576113ef612810565b5b602002602001018190525081806114069061286e565b9250505b808060010191505061122a565b50819350505050919050565b600460009054906101000a900473ffffffffffffffffffffffffffffffffffffffff1673ffffffffffffffffffffffffffffffffffffffff163373ffffffffffffffffffffffffffffffffffffffff16146114b3576040517f08c379a00000000000000000000000000000000000000000000000000000000081526004016114aa90612724565b60405180910390fd5b81600360008273ffffffffffffffffffffffffffffffffffffffff1673ffffffffffffffffffffffffffffffffffffffff16815260200190815260200160002060009054906101000a900460ff1661154257806040517fb7f1343f0000000000000000000000000000000000000000000000000000000081526004016115399190612587565b60405180910390fd5b6000600160008573ffffffffffffffffffffffffffffffffffffffff1673ffffffffffffffffffffffffffffffffffffffff16815260200190815260200160002060020160019054906101000a900460ff16905082600160008673ffffffffffffffffffffffffffffffffffffffff1673ffffffffffffffffffffffffffffffffffffffff16815260200190815260200160002060020160016101000a81548160ff021916908360028111156115fb576115fa612140565b5b0217905550826000600260008773ffffffffffffffffffffffffffffffffffffffff1673ffffffffffffffffffffffffffffffffffffffff168152602001908152602001600020548154811061165457611653612810565b5b906000526020600020906004020160020160016101000a81548160ff0219169083600281111561168757611686612140565b5b02179055508373ffffffffffffffffffffffffffffffffffffffff167f7d57a17c417d3fac3f01bcc0f93e3e76266e40fda49e690f26446693d0bd838f82856040516116d4929190612b72565b60405180910390a250505050565b81600360008273ffffffffffffffffffffffffffffffffffffffff1673ffffffffffffffffffffffffffffffffffffffff16815260200190815260200160002060009054906101000a900460ff1661177157806040517fb7f1343f0000000000000000000000000000000000000000000000000000000081526004016117689190612587565b60405180910390fd5b826000600281111561178657611785612140565b5b600160008373ffffffffffffffffffffffffffffffffffffffff1673ffffffffffffffffffffffffffffffffffffffff16815260200190815260200160002060020160019054906101000a900460ff1660028111156117e8576117e7612140565b5b1461182a57806040517f5c21a0660000000000000000000000000000000000000000000000000000000081526004016118219190612587565b60405180910390fd5b6000600160008673ffffffffffffffffffffffffffffffffffffffff1673ffffffffffffffffffffffffffffffffffffffff1681526020019081526020016000206040518060a0016040529081600082018054611886906127df565b80601f01602080910402602001604051908101604052809291908181526020018280546118b2906127df565b80156118ff5780601f106118d4576101008083540402835291602001916118ff565b820191906000526020600020905b8154815290600101906020018083116118e257829003601f168201915b50505050508152602001600182015481526020016002820160009054906101000a900460ff16600281111561193757611936612140565b5b600281111561194957611948612140565b5b81526020016002820160019054906101000a900460ff16600281111561197257611971612140565b5b600281111561198457611983612140565b5b8152602001600382015481525050905080602001518411156119e3578381602001516040517fd7b6a8b70000000000000000000000000000000000000000000000000000000081526004016119da929190612b9b565b60405180910390fd5b83471015611a2a5783476040517fb7ddd88b000000000000000000000000000000000000000000000000000000008152600401611a21929190612b9b565b60405180910390fd5b8473ffffffffffffffffffffffffffffffffffffffff166108fc859081150290604051600060405180830381858888f19350505050158015611a70573d6000803e3d6000fd5b508473ffffffffffffffffffffffffffffffffffffffff167f2f349e1b77b3fa54aa99851b08c6da57e161d36009c624f342211855804c245b8542604051611ab9929190612b9b565b60405180910390a25050505050565b600460009054906101000a900473ffffffffffffffffffffffffffffffffffffffff1673ffffffffffffffffffffffffffffffffffffffff163373ffffffffffffffffffffffffffffffffffffffff1614611b58576040517f08c379a0000000000000000000000000000000000000000000000000000000008152600401611b4f90612724565b60405180910390fd5b565b6000600554905090565b60036020528060005260406000206000915054906101000a900460ff1681565b6001602052806000526040600020600091509050806000018054611ba7906127df565b80601f0160208091040260200160405190810160405280929190818152602001828054611bd3906127df565b8015611c205780601f10611bf557610100808354040283529160200191611c20565b820191906000526020600020905b815481529060010190602001808311611c0357829003601f168201915b5050505050908060010154908060020160009054906101000a900460ff16908060020160019054906101000a900460ff16908060030154905085565b60606000805480602002602001604051908101604052809291908181526020016000905b82821015611dce57838290600052602060002090600402016040518060a0016040529081600082018054611cb3906127df565b80601f0160208091040260200160405190810160405280929190818152602001828054611cdf906127df565b8015611d2c5780601f10611d0157610100808354040283529160200191611d2c565b820191906000526020600020905b815481529060010190602001808311611d0f57829003601f168201915b50505050508152602001600182015481526020016002820160009054906101000a900460ff166002811115611d6457611d63612140565b5b6002811115611d7657611d75612140565b5b81526020016002820160019054906101000a900460ff166002811115611d9f57611d9e612140565b5b6002811115611db157611db0612140565b5b815260200160038201548152505081526020019060010190611c80565b50505050905090565b6040518060a00160405280606081526020016000815260200160006002811115611e0457611e03612140565b5b815260200160006002811115611e1d57611e1c612140565b5b8152602001600081525090565b6000604051905090565b600080fd5b600080fd5b600073ffffffffffffffffffffffffffffffffffffffff82169050919050565b6000611e6982611e3e565b9050919050565b611e7981611e5e565b8114611e8457600080fd5b50565b600081359050611e9681611e70565b92915050565b600060208284031215611eb257611eb1611e34565b5b6000611ec084828501611e87565b91505092915050565b60008115159050919050565b611ede81611ec9565b82525050565b6000602082019050611ef96000830184611ed5565b92915050565b6000819050919050565b611f1281611eff565b8114611f1d57600080fd5b50565b600081359050611f2f81611f09565b92915050565b600060208284031215611f4b57611f4a611e34565b5b6000611f5984828501611f20565b91505092915050565b600081519050919050565b600082825260208201905092915050565b60005b83811015611f9c578082015181840152602081019050611f81565b60008484015250505050565b6000601f19601f8301169050919050565b6000611fc482611f62565b611fce8185611f6d565b9350611fde818560208601611f7e565b611fe781611fa8565b840191505092915050565b611ffb81611eff565b82525050565b600060ff82169050919050565b61201781612001565b82525050565b600060808201905081810360008301526120378187611fb9565b90506120466020830186611ff2565b612053604083018561200e565b612060606083018461200e565b95945050505050565b6003811061207657600080fd5b50565b60008135905061208881612069565b92915050565b6000602082840312156120a4576120a3611e34565b5b60006120b284828501612079565b91505092915050565b600081519050919050565b600082825260208201905092915050565b6000819050602082019050919050565b600082825260208201905092915050565b600061210382611f62565b61210d81856120e7565b935061211d818560208601611f7e565b61212681611fa8565b840191505092915050565b61213a81611eff565b82525050565b7f4e487b7100000000000000000000000000000000000000000000000000000000600052602160045260246000fd5b600381106121805761217f612140565b5b50565b60008190506121918261216f565b919050565b60006121a182612183565b9050919050565b6121b181612196565b82525050565b600381106121c8576121c7612140565b5b50565b60008190506121d9826121b7565b919050565b60006121e9826121cb565b9050919050565b6121f9816121de565b82525050565b600060a083016000830151848203600086015261221c82826120f8565b91505060208301516122316020860182612131565b50604083015161224460408601826121a8565b50606083015161225760608601826121f0565b50608083015161226a6080860182612131565b508091505092915050565b600061228183836121ff565b905092915050565b6000602082019050919050565b60006122a1826120bb565b6122ab81856120c6565b9350836020820285016122bd856120d7565b8060005b858110156122f957848403895281516122da8582612275565b94506122e583612289565b925060208a019950506001810190506122c1565b50829750879550505050505092915050565b600060208201905081810360008301526123258184612296565b905092915050565b60006020820190506123426000830184611ff2565b92915050565b61235181612196565b82525050565b612360816121de565b82525050565b600060a08201905081810360008301526123808188611fb9565b905061238f6020830187611ff2565b61239c6040830186612348565b6123a96060830185612357565b6123b66080830184611ff2565b9695505050505050565b600080fd5b600080fd5b7f4e487b7100000000000000000000000000000000000000000000000000000000600052604160045260246000fd5b61240282611fa8565b810181811067ffffffffffffffff82111715612421576124206123ca565b5b80604052505050565b6000612434611e2a565b905061244082826123f9565b919050565b600067ffffffffffffffff8211156124605761245f6123ca565b5b61246982611fa8565b9050602081019050919050565b82818337600083830152505050565b600061249861249384612445565b61242a565b9050828152602081018484840111156124b4576124b36123c5565b5b6124bf848285612476565b509392505050565b600082601f8301126124dc576124db6123c0565b5b81356124ec848260208601612485565b91505092915050565b6000806000806080858703121561250f5761250e611e34565b5b600061251d87828801611e87565b945050602085013567ffffffffffffffff81111561253e5761253d611e39565b5b61254a878288016124c7565b935050604061255b87828801611f20565b925050606061256c87828801612079565b91505092959194509250565b61258181611e5e565b82525050565b600060208201905061259c6000830184612578565b92915050565b600381106125af57600080fd5b50565b6000813590506125c1816125a2565b92915050565b6000602082840312156125dd576125dc611e34565b5b60006125eb848285016125b2565b91505092915050565b6000806040838503121561260b5761260a611e34565b5b600061261985828601611e87565b925050602061262a858286016125b2565b9150509250929050565b600061263f82611e3e565b9050919050565b61264f81612634565b811461265a57600080fd5b50565b60008135905061266c81612646565b92915050565b6000806040838503121561268957612688611e34565b5b60006126978582860161265d565b92505060206126a885828601611f20565b9150509250929050565b7f4f6e6c79206f776e65722063616e20706572666f726d2074686973206163746960008201527f6f6e000000000000000000000000000000000000000000000000000000000000602082015250565b600061270e602283611f6d565b9150612719826126b2565b604082019050919050565b6000602082019050818103600083015261273d81612701565b9050919050565b7f496e73756666696369656e7420636f6e74726163742062616c616e6365000000600082015250565b600061277a601d83611f6d565b915061278582612744565b602082019050919050565b600060208201905081810360008301526127a98161276d565b9050919050565b7f4e487b7100000000000000000000000000000000000000000000000000000000600052602260045260246000fd5b600060028204905060018216806127f757607f821691505b60208210810361280a576128096127b0565b5b50919050565b7f4e487b7100000000000000000000000000000000000000000000000000000000600052603260045260246000fd5b7f4e487b7100000000000000000000000000000000000000000000000000000000600052601160045260246000fd5b600061287982611eff565b91507fffffffffffffffffffffffffffffffffffffffffffffffffffffffffffffffff82036128ab576128aa61283f565b5b600182019050919050565b60008190508160005260206000209050919050565b60006020601f8301049050919050565b600082821b905092915050565b6000600883026129187fffffffffffffffffffffffffffffffffffffffffffffffffffffffffffffffff826128db565b61292286836128db565b95508019841693508086168417925050509392505050565b6000819050919050565b600061295f61295a61295584611eff565b61293a565b611eff565b9050919050565b6000819050919050565b61297983612944565b61298d61298582612966565b8484546128e8565b825550505050565b600090565b6129a2612995565b6129ad818484612970565b505050565b5b818110156129d1576129c660008261299a565b6001810190506129b3565b5050565b601f821115612a16576129e7816128b6565b6129f0846128cb565b810160208510156129ff578190505b612a13612a0b856128cb565b8301826129b2565b50505b505050565b600082821c905092915050565b6000612a3960001984600802612a1b565b1980831691505092915050565b6000612a528383612a28565b9150826002028217905092915050565b612a6b82611f62565b67ffffffffffffffff811115612a8457612a836123ca565b5b612a8e82546127df565b612a998282856129d5565b600060209050601f831160018114612acc5760008415612aba578287015190505b612ac48582612a46565b865550612b2c565b601f198416612ada866128b6565b60005b82811015612b0257848901518255600182019150602085019450602081019050612add565b86831015612b1f5784890151612b1b601f891682612a28565b8355505b6001600288020188555050505b505050505050565b60006060820190508181036000830152612b4e8186611fb9565b9050612b5d6020830185612348565b612b6a6040830184611ff2565b949350505050565b6000604082019050612b876000830185612357565b612b946020830184612357565b9392505050565b6000604082019050612bb06000830185611ff2565b612bbd6020830184611ff2565b939250505056fea2646970667358221220c6bf64866ca9e4335a6d48e36de4ad8f1d444c03b57bcf8f0585999bd82c9d4464736f6c634300081c0033",
  "linkReferences": {},
  "deployedLinkReferences": {}
}