{
  "_format": "hh-sol-artifact-1",
  "contractName": "SalaryPay",
  "sourceName": "contracts/Paystaff.sol",
  "abi": [
    {
      "inputs": [
        {
          "internalType": "address",
          "name": "_payContract",
          "type": "address"
        }
      ],
      "stateMutability": "nonpayable",
      "type": "constructor"
    },
    {
      "inputs": [
        {
          "internalType": "uint256",
          "name": "",
          "type": "uint256"
        }
      ],
      "name": "employee",
      "outputs": [
        {
          "internalType": "string",
          "name": "name",
          "type": "string"
        },
        {
          "internalType": "uint256",
          "name": "salary",
          "type": "uint256"
        },
        {
          "internalType": "enum SalaryPay.Role",
          "name": "role",
          "type": "uint8"
        },
        {
          "internalType": "enum SalaryPay.Status",
          "name": "status",
          "type": "uint8"
        }
      ],
      "stateMutability": "view",
      "type": "function"
    },
    {
      "inputs": [],
      "name": "getAllUsers",
      "outputs": [
        {
          "components": [
            {
              "internalType": "string",
              "name": "name",
              "type": "string"
            },
            {
              "internalType": "uint256",
              "name": "salary",
              "type": "uint256"
            },
            {
              "internalType": "enum SalaryPay.Role",
              "name": "role",
              "type": "uint8"
            },
            {
              "internalType": "enum SalaryPay.Status",
              "name": "status",
              "type": "uint8"
            }
          ],
          "internalType": "struct SalaryPay.Employee[]",
          "name": "",
          "type": "tuple[]"
        }
      ],
      "stateMutability": "view",
      "type": "function"
    },
    {
      "inputs": [
        {
          "internalType": "uint256",
          "name": "_index",
          "type": "uint256"
        },
        {
          "internalType": "address payable",
          "name": "_to",
          "type": "address"
        },
        {
          "internalType": "uint256",
          "name": "_amount",
          "type": "uint256"
        }
      ],
      "name": "payStaffs",
      "outputs": [],
      "stateMutability": "payable",
      "type": "function"
    },
    {
      "inputs": [
        {
          "internalType": "string",
          "name": "_name",
          "type": "string"
        },
        {
          "internalType": "uint256",
          "name": "_salary",
          "type": "uint256"
        },
        {
          "internalType": "enum SalaryPay.Role",
          "name": "_role",
          "type": "uint8"
        }
      ],
      "name": "registerUser",
      "outputs": [],
      "stateMutability": "nonpayable",
      "type": "function"
    }
  ],
  "bytecode": "0x608060405234801561001057600080fd5b50604051611137380380611137833981810160405281019061003291906100dc565b80600260006101000a81548173ffffffffffffffffffffffffffffffffffffffff021916908373ffffffffffffffffffffffffffffffffffffffff16021790555050610109565b600080fd5b600073ffffffffffffffffffffffffffffffffffffffff82169050919050565b60006100a98261007e565b9050919050565b6100b98161009e565b81146100c457600080fd5b50565b6000815190506100d6816100b0565b92915050565b6000602082840312156100f2576100f1610079565b5b6000610100848285016100c7565b91505092915050565b61101f806101186000396000f3fe60806040526004361061003f5760003560e01c80638856a35e14610044578063918bd1221461006d57806399b65f7914610089578063e2842d79146100c9575b600080fd5b34801561005057600080fd5b5061006b60048036038101906100669190610736565b6100f4565b005b61008760048036038101906100829190610803565b6101ec565b005b34801561009557600080fd5b506100b060048036038101906100ab9190610856565b61032e565b6040516100c094939291906109d0565b60405180910390f35b3480156100d557600080fd5b506100de610410565b6040516100eb9190610bb8565b60405180910390f35b600060405180608001604052808581526020018481526020018360028111156101205761011f610911565b5b81526020016000600281111561013957610138610911565b5b8152509080600181540180825580915050600190039060005260206000209060030201600090919091909150600082015181600001908161017a9190610de6565b506020820151816001015560408201518160020160006101000a81548160ff021916908360028111156101b0576101af610911565b5b021790555060608201518160020160016101000a81548160ff021916908360028111156101e0576101df610911565b5b02179055505050505050565b6000805490508310610233576040517f08c379a000000000000000000000000000000000000000000000000000000000815260040161022a90610f04565b60405180910390fd5b6000838154811061024757610246610f24565b5b90600052602060002090600302016001015481111561029b576040517f08c379a000000000000000000000000000000000000000000000000000000000815260040161029290610f9f565b60405180910390fd5b600260009054906101000a900473ffffffffffffffffffffffffffffffffffffffff1673ffffffffffffffffffffffffffffffffffffffff16630ea37aef82846040518363ffffffff1660e01b81526004016102f79190610fce565b6000604051808303818588803b15801561031057600080fd5b505af1158015610324573d6000803e3d6000fd5b5050505050505050565b6000818154811061033e57600080fd5b906000526020600020906003020160009150905080600001805461036190610c09565b80601f016020809104026020016040519081016040528092919081815260200182805461038d90610c09565b80156103da5780601f106103af576101008083540402835291602001916103da565b820191906000526020600020905b8154815290600101906020018083116103bd57829003601f168201915b5050505050908060010154908060020160009054906101000a900460ff16908060020160019054906101000a900460ff16905084565b60606000805480602002602001604051908101604052809291908181526020016000905b82821015610578578382906000526020600020906003020160405180608001604052908160008201805461046790610c09565b80601f016020809104026020016040519081016040528092919081815260200182805461049390610c09565b80156104e05780601f106104b5576101008083540402835291602001916104e0565b820191906000526020600020905b8154815290600101906020018083116104c357829003601f168201915b50505050508152602001600182015481526020016002820160009054906101000a900460ff16600281111561051857610517610911565b5b600281111561052a57610529610911565b5b81526020016002820160019054906101000a900460ff16600281111561055357610552610911565b5b600281111561056557610564610911565b5b8152505081526020019060010190610434565b50505050905090565b6000604051905090565b600080fd5b600080fd5b600080fd5b600080fd5b6000601f19601f8301169050919050565b7f4e487b7100000000000000000000000000000000000000000000000000000000600052604160045260246000fd5b6105e88261059f565b810181811067ffffffffffffffff82111715610607576106066105b0565b5b80604052505050565b600061061a610581565b905061062682826105df565b919050565b600067ffffffffffffffff821115610646576106456105b0565b5b61064f8261059f565b9050602081019050919050565b82818337600083830152505050565b600061067e6106798461062b565b610610565b90508281526020810184848401111561069a5761069961059a565b5b6106a584828561065c565b509392505050565b600082601f8301126106c2576106c1610595565b5b81356106d284826020860161066b565b91505092915050565b6000819050919050565b6106ee816106db565b81146106f957600080fd5b50565b60008135905061070b816106e5565b92915050565b6003811061071e57600080fd5b50565b60008135905061073081610711565b92915050565b60008060006060848603121561074f5761074e61058b565b5b600084013567ffffffffffffffff81111561076d5761076c610590565b5b610779868287016106ad565b935050602061078a868287016106fc565b925050604061079b86828701610721565b9150509250925092565b600073ffffffffffffffffffffffffffffffffffffffff82169050919050565b60006107d0826107a5565b9050919050565b6107e0816107c5565b81146107eb57600080fd5b50565b6000813590506107fd816107d7565b92915050565b60008060006060848603121561081c5761081b61058b565b5b600061082a868287016106fc565b935050602061083b868287016107ee565b925050604061084c868287016106fc565b9150509250925092565b60006020828403121561086c5761086b61058b565b5b600061087a848285016106fc565b91505092915050565b600081519050919050565b600082825260208201905092915050565b60005b838110156108bd5780820151818401526020810190506108a2565b60008484015250505050565b60006108d482610883565b6108de818561088e565b93506108ee81856020860161089f565b6108f78161059f565b840191505092915050565b61090b816106db565b82525050565b7f4e487b7100000000000000000000000000000000000000000000000000000000600052602160045260246000fd5b6003811061095157610950610911565b5b50565b600081905061096282610940565b919050565b600061097282610954565b9050919050565b61098281610967565b82525050565b6003811061099957610998610911565b5b50565b60008190506109aa82610988565b919050565b60006109ba8261099c565b9050919050565b6109ca816109af565b82525050565b600060808201905081810360008301526109ea81876108c9565b90506109f96020830186610902565b610a066040830185610979565b610a1360608301846109c1565b95945050505050565b600081519050919050565b600082825260208201905092915050565b6000819050602082019050919050565b600082825260208201905092915050565b6000610a6482610883565b610a6e8185610a48565b9350610a7e81856020860161089f565b610a878161059f565b840191505092915050565b610a9b816106db565b82525050565b610aaa81610967565b82525050565b610ab9816109af565b82525050565b60006080830160008301518482036000860152610adc8282610a59565b9150506020830151610af16020860182610a92565b506040830151610b046040860182610aa1565b506060830151610b176060860182610ab0565b508091505092915050565b6000610b2e8383610abf565b905092915050565b6000602082019050919050565b6000610b4e82610a1c565b610b588185610a27565b935083602082028501610b6a85610a38565b8060005b85811015610ba65784840389528151610b878582610b22565b9450610b9283610b36565b925060208a01995050600181019050610b6e565b50829750879550505050505092915050565b60006020820190508181036000830152610bd28184610b43565b905092915050565b7f4e487b7100000000000000000000000000000000000000000000000000000000600052602260045260246000fd5b60006002820490506001821680610c2157607f821691505b602082108103610c3457610c33610bda565b5b50919050565b60008190508160005260206000209050919050565b60006020601f8301049050919050565b600082821b905092915050565b600060088302610c9c7fffffffffffffffffffffffffffffffffffffffffffffffffffffffffffffffff82610c5f565b610ca68683610c5f565b95508019841693508086168417925050509392505050565b6000819050919050565b6000610ce3610cde610cd9846106db565b610cbe565b6106db565b9050919050565b6000819050919050565b610cfd83610cc8565b610d11610d0982610cea565b848454610c6c565b825550505050565b600090565b610d26610d19565b610d31818484610cf4565b505050565b5b81811015610d5557610d4a600082610d1e565b600181019050610d37565b5050565b601f821115610d9a57610d6b81610c3a565b610d7484610c4f565b81016020851015610d83578190505b610d97610d8f85610c4f565b830182610d36565b50505b505050565b600082821c905092915050565b6000610dbd60001984600802610d9f565b1980831691505092915050565b6000610dd68383610dac565b9150826002028217905092915050565b610def82610883565b67ffffffffffffffff811115610e0857610e076105b0565b5b610e128254610c09565b610e1d828285610d59565b600060209050601f831160018114610e505760008415610e3e578287015190505b610e488582610dca565b865550610eb0565b601f198416610e5e86610c3a565b60005b82811015610e8657848901518255600182019150602085019450602081019050610e61565b86831015610ea35784890151610e9f601f891682610dac565b8355505b6001600288020188555050505b505050505050565b7f55736572206e6f7420666f756e64000000000000000000000000000000000000600082015250565b6000610eee600e8361088e565b9150610ef982610eb8565b602082019050919050565b60006020820190508181036000830152610f1d81610ee1565b9050919050565b7f4e487b7100000000000000000000000000000000000000000000000000000000600052603260045260246000fd5b7f57726f6e67206167726565642073616c61727900000000000000000000000000600082015250565b6000610f8960138361088e565b9150610f9482610f53565b602082019050919050565b60006020820190508181036000830152610fb881610f7c565b9050919050565b610fc8816107c5565b82525050565b6000602082019050610fe36000830184610fbf565b9291505056fea2646970667358221220b289c63f981865cc5b0fb59adc9160e498a1c965e8664c2d95fe26ecb8939a9164736f6c634300081c0033",
  "linkReferences": {},
  "deployedLinkReferences": {}
}