{"abi":[{"type":"constructor","inputs":[],"stateMutability":"nonpayable"},{"type":"function","name":"buyTokens","inputs":[],"outputs":[],"stateMutability":"payable"},{"type":"function","name":"createTicketEvent","inputs":[{"name":"_eventName","type":"string","internalType":"string"},{"name":"_ticketPrice","type":"uint256","internalType":"uint256"},{"name":"_maxSupply","type":"uint256","internalType":"uint256"},{"name":"_baseURI","type":"string","internalType":"string"}],"outputs":[{"name":"","type":"address","internalType":"address"}],"stateMutability":"nonpayable"},{"type":"function","name":"getAllEvents","inputs":[],"outputs":[{"name":"","type":"address[]","internalType":"address[]"}],"stateMutability":"view"},{"type":"function","name":"owner","inputs":[],"outputs":[{"name":"","type":"address","internalType":"address"}],"stateMutability":"view"},{"type":"function","name":"renounceOwnership","inputs":[],"outputs":[],"stateMutability":"nonpayable"},{"type":"function","name":"ticketEvents","inputs":[{"name":"","type":"uint256","internalType":"uint256"}],"outputs":[{"name":"","type":"address","internalType":"address"}],"stateMutability":"view"},{"type":"function","name":"token","inputs":[],"outputs":[{"name":"","type":"address","internalType":"contract EventToken"}],"stateMutability":"view"},{"type":"function","name":"transferOwnership","inputs":[{"name":"newOwner","type":"address","internalType":"address"}],"outputs":[],"stateMutability":"nonpayable"},{"type":"function","name":"withdraw","inputs":[],"outputs":[],"stateMutability":"nonpayable"},{"type":"event","name":"OwnershipTransferred","inputs":[{"name":"previousOwner","type":"address","indexed":true,"internalType":"address"},{"name":"newOwner","type":"address","indexed":true,"internalType":"address"}],"anonymous":false},{"type":"event","name":"TicketEventCreated","inputs":[{"name":"ticketAddress","type":"address","indexed":true,"internalType":"address"},{"name":"eventName","type":"string","indexed":false,"internalType":"string"}],"anonymous":false},{"type":"event","name":"TokensPurchased","inputs":[{"name":"buyer","type":"address","indexed":true,"internalType":"address"},{"name":"amount","type":"uint256","indexed":false,"internalType":"uint256"}],"anonymous":false},{"type":"error","name":"OwnableInvalidOwner","inputs":[{"name":"owner","type":"address","internalType":"address"}]},{"type":"error","name":"OwnableUnauthorizedAccount","inputs":[{"name":"account","type":"address","internalType":"address"}]}],"bytecode":{"object":"0x60a060405234801561000f575f5ffd5b50335f73ffffffffffffffffffffffffffffffffffffffff168173ffffffffffffffffffffffffffffffffffffffff1603610081575f6040517f1e4fbdf700000000000000000000000000000000000000000000000000000000815260040161007891906101fc565b60405180910390fd5b610090816100ef60201b60201c565b5060405161009d906101b0565b604051809103905ff0801580156100b6573d5f5f3e3d5ffd5b5073ffffffffffffffffffffffffffffffffffffffff1660808173ffffffffffffffffffffffffffffffffffffffff1681525050610215565b5f5f5f9054906101000a900473ffffffffffffffffffffffffffffffffffffffff169050815f5f6101000a81548173ffffffffffffffffffffffffffffffffffffffff021916908373ffffffffffffffffffffffffffffffffffffffff1602179055508173ffffffffffffffffffffffffffffffffffffffff168173ffffffffffffffffffffffffffffffffffffffff167f8be0079c531659141344cd1fd0a4f28419497f9722a3daafe3b4186f6b6457e060405160405180910390a35050565b611bd4806141e583390190565b5f73ffffffffffffffffffffffffffffffffffffffff82169050919050565b5f6101e6826101bd565b9050919050565b6101f6816101dc565b82525050565b5f60208201905061020f5f8301846101ed565b92915050565b608051613faa61023b5f395f818161027b0152818161046d01526106050152613faa5ff3fe608060405260043610610085575f3560e01c8063c27a500d11610058578063c27a500d1461011b578063d0febe4c14610145578063e9e59a6a1461014f578063f2fde38b1461018b578063fc0c546a146101b357610085565b80633ccfd60b14610089578063715018a61461009f5780638da5cb5b146100b55780639f4afae4146100df575b5f5ffd5b348015610094575f5ffd5b5061009d6101dd565b005b3480156100aa575f5ffd5b506100b3610232565b005b3480156100c0575f5ffd5b506100c9610245565b6040516100d691906107c2565b60405180910390f35b3480156100ea575f5ffd5b506101056004803603810190610100919061095b565b61026c565b60405161011291906107c2565b60405180910390f35b348015610126575f5ffd5b5061012f61038d565b60405161013c9190610aae565b60405180910390f35b61014d610418565b005b34801561015a575f5ffd5b5061017560048036038101906101709190610ace565b610544565b60405161018291906107c2565b60405180910390f35b348015610196575f5ffd5b506101b160048036038101906101ac9190610b23565b61057f565b005b3480156101be575f5ffd5b506101c7610603565b6040516101d49190610ba9565b60405180910390f35b6101e5610627565b6101ed610245565b73ffffffffffffffffffffffffffffffffffffffff166108fc4790811502906040515f60405180830381858888f1935050505015801561022f573d5f5f3e3d5ffd5b50565b61023a610627565b6102435f6106ae565b565b5f5f5f9054906101000a900473ffffffffffffffffffffffffffffffffffffffff16905090565b5f610275610627565b5f8585857f000000000000000000000000000000000000000000000000000000000000000033876040516102a890610776565b6102b796959493929190610c31565b604051809103905ff0801580156102d0573d5f5f3e3d5ffd5b509050600181908060018154018082558091505060019003905f5260205f20015f9091909190916101000a81548173ffffffffffffffffffffffffffffffffffffffff021916908373ffffffffffffffffffffffffffffffffffffffff1602179055508073ffffffffffffffffffffffffffffffffffffffff167fa7225d540ca3dcefd8859905fd6f9483a167fee92a06f65e3f845df00da1c242876040516103799190610c9e565b60405180910390a280915050949350505050565b6060600180548060200260200160405190810160405280929190818152602001828054801561040e57602002820191905f5260205f20905b815f9054906101000a900473ffffffffffffffffffffffffffffffffffffffff1673ffffffffffffffffffffffffffffffffffffffff16815260200190600101908083116103c5575b5050505050905090565b5f341161045a576040517f08c379a000000000000000000000000000000000000000000000000000000000815260040161045190610d08565b60405180910390fd5b5f6103e8346104699190610d53565b90507f000000000000000000000000000000000000000000000000000000000000000073ffffffffffffffffffffffffffffffffffffffff166340c10f1933836040518363ffffffff1660e01b81526004016104c6929190610d94565b5f604051808303815f87803b1580156104dd575f5ffd5b505af11580156104ef573d5f5f3e3d5ffd5b505050503373ffffffffffffffffffffffffffffffffffffffff167f8f28852646c20cc973d3a8218f7eefed58c25c909f78f0265af4818c3d4dc271826040516105399190610dbb565b60405180910390a250565b60018181548110610553575f80fd5b905f5260205f20015f915054906101000a900473ffffffffffffffffffffffffffffffffffffffff1681565b610587610627565b5f73ffffffffffffffffffffffffffffffffffffffff168173ffffffffffffffffffffffffffffffffffffffff16036105f7575f6040517f1e4fbdf70000000000000000000000000000000000000000000000000000000081526004016105ee91906107c2565b60405180910390fd5b610600816106ae565b50565b7f000000000000000000000000000000000000000000000000000000000000000081565b61062f61076f565b73ffffffffffffffffffffffffffffffffffffffff1661064d610245565b73ffffffffffffffffffffffffffffffffffffffff16146106ac5761067061076f565b6040517f118cdaa70000000000000000000000000000000000000000000000000000000081526004016106a391906107c2565b60405180910390fd5b565b5f5f5f9054906101000a900473ffffffffffffffffffffffffffffffffffffffff169050815f5f6101000a81548173ffffffffffffffffffffffffffffffffffffffff021916908373ffffffffffffffffffffffffffffffffffffffff1602179055508173ffffffffffffffffffffffffffffffffffffffff168173ffffffffffffffffffffffffffffffffffffffff167f8be0079c531659141344cd1fd0a4f28419497f9722a3daafe3b4186f6b6457e060405160405180910390a35050565b5f33905090565b6131a080610dd583390190565b5f73ffffffffffffffffffffffffffffffffffffffff82169050919050565b5f6107ac82610783565b9050919050565b6107bc816107a2565b82525050565b5f6020820190506107d55f8301846107b3565b92915050565b5f604051905090565b5f5ffd5b5f5ffd5b5f5ffd5b5f5ffd5b5f601f19601f8301169050919050565b7f4e487b71000000000000000000000000000000000000000000000000000000005f52604160045260245ffd5b61083a826107f4565b810181811067ffffffffffffffff8211171561085957610858610804565b5b80604052505050565b5f61086b6107db565b90506108778282610831565b919050565b5f67ffffffffffffffff82111561089657610895610804565b5b61089f826107f4565b9050602081019050919050565b828183375f83830152505050565b5f6108cc6108c78461087c565b610862565b9050828152602081018484840111156108e8576108e76107f0565b5b6108f38482856108ac565b509392505050565b5f82601f83011261090f5761090e6107ec565b5b813561091f8482602086016108ba565b91505092915050565b5f819050919050565b61093a81610928565b8114610944575f5ffd5b50565b5f8135905061095581610931565b92915050565b5f5f5f5f60808587031215610973576109726107e4565b5b5f85013567ffffffffffffffff8111156109905761098f6107e8565b5b61099c878288016108fb565b94505060206109ad87828801610947565b93505060406109be87828801610947565b925050606085013567ffffffffffffffff8111156109df576109de6107e8565b5b6109eb878288016108fb565b91505092959194509250565b5f81519050919050565b5f82825260208201905092915050565b5f819050602082019050919050565b610a29816107a2565b82525050565b5f610a3a8383610a20565b60208301905092915050565b5f602082019050919050565b5f610a5c826109f7565b610a668185610a01565b9350610a7183610a11565b805f5b83811015610aa1578151610a888882610a2f565b9750610a9383610a46565b925050600181019050610a74565b5085935050505092915050565b5f6020820190508181035f830152610ac68184610a52565b905092915050565b5f60208284031215610ae357610ae26107e4565b5b5f610af084828501610947565b91505092915050565b610b02816107a2565b8114610b0c575f5ffd5b50565b5f81359050610b1d81610af9565b92915050565b5f60208284031215610b3857610b376107e4565b5b5f610b4584828501610b0f565b91505092915050565b5f819050919050565b5f610b71610b6c610b6784610783565b610b4e565b610783565b9050919050565b5f610b8282610b57565b9050919050565b5f610b9382610b78565b9050919050565b610ba381610b89565b82525050565b5f602082019050610bbc5f830184610b9a565b92915050565b5f81519050919050565b5f82825260208201905092915050565b8281835e5f83830152505050565b5f610bf482610bc2565b610bfe8185610bcc565b9350610c0e818560208601610bdc565b610c17816107f4565b840191505092915050565b610c2b81610928565b82525050565b5f60c0820190508181035f830152610c498189610bea565b9050610c586020830188610c22565b610c656040830187610c22565b610c7260608301866107b3565b610c7f60808301856107b3565b81810360a0830152610c918184610bea565b9050979650505050505050565b5f6020820190508181035f830152610cb68184610bea565b905092915050565b7f4d7573742073656e642045544820746f2062757920746f6b656e7300000000005f82015250565b5f610cf2601b83610bcc565b9150610cfd82610cbe565b602082019050919050565b5f6020820190508181035f830152610d1f81610ce6565b9050919050565b7f4e487b71000000000000000000000000000000000000000000000000000000005f52601160045260245ffd5b5f610d5d82610928565b9150610d6883610928565b9250828202610d7681610928565b91508282048414831517610d8d57610d8c610d26565b5b5092915050565b5f604082019050610da75f8301856107b3565b610db46020830184610c22565b9392505050565b5f602082019050610dce5f830184610c22565b9291505056fe608060405234801561000f575f5ffd5b506040516131a03803806131a083398181016040528101906100319190610490565b81866040518060400160405280600681526020017f5449434b45540000000000000000000000000000000000000000000000000000815250815f90816100779190610758565b5080600190816100879190610758565b5050505f73ffffffffffffffffffffffffffffffffffffffff168173ffffffffffffffffffffffffffffffffffffffff16036100fa575f6040517f1e4fbdf70000000000000000000000000000000000000000000000000000000081526004016100f19190610836565b60405180910390fd5b610109816101f360201b60201c565b506040518060c001604052808781526020018681526020018581526020015f81526020018473ffffffffffffffffffffffffffffffffffffffff1681526020018281525060085f820151815f0190816101629190610758565b506020820151816001015560408201518160020155606082015181600301556080820151816004015f6101000a81548173ffffffffffffffffffffffffffffffffffffffff021916908373ffffffffffffffffffffffffffffffffffffffff16021790555060a08201518160050190816101dc9190610758565b50905050600160078190555050505050505061084f565b5f60065f9054906101000a900473ffffffffffffffffffffffffffffffffffffffff1690508160065f6101000a81548173ffffffffffffffffffffffffffffffffffffffff021916908373ffffffffffffffffffffffffffffffffffffffff1602179055508173ffffffffffffffffffffffffffffffffffffffff168173ffffffffffffffffffffffffffffffffffffffff167f8be0079c531659141344cd1fd0a4f28419497f9722a3daafe3b4186f6b6457e060405160405180910390a35050565b5f604051905090565b5f5ffd5b5f5ffd5b5f5ffd5b5f5ffd5b5f601f19601f8301169050919050565b7f4e487b71000000000000000000000000000000000000000000000000000000005f52604160045260245ffd5b610315826102cf565b810181811067ffffffffffffffff82111715610334576103336102df565b5b80604052505050565b5f6103466102b6565b9050610352828261030c565b919050565b5f67ffffffffffffffff821115610371576103706102df565b5b61037a826102cf565b9050602081019050919050565b8281835e5f83830152505050565b5f6103a76103a284610357565b61033d565b9050828152602081018484840111156103c3576103c26102cb565b5b6103ce848285610387565b509392505050565b5f82601f8301126103ea576103e96102c7565b5b81516103fa848260208601610395565b91505092915050565b5f819050919050565b61041581610403565b811461041f575f5ffd5b50565b5f815190506104308161040c565b92915050565b5f73ffffffffffffffffffffffffffffffffffffffff82169050919050565b5f61045f82610436565b9050919050565b61046f81610455565b8114610479575f5ffd5b50565b5f8151905061048a81610466565b92915050565b5f5f5f5f5f5f60c087890312156104aa576104a96102bf565b5b5f87015167ffffffffffffffff8111156104c7576104c66102c3565b5b6104d389828a016103d6565b96505060206104e489828a01610422565b95505060406104f589828a01610422565b945050606061050689828a0161047c565b935050608061051789828a0161047c565b92505060a087015167ffffffffffffffff811115610538576105376102c3565b5b61054489828a016103d6565b9150509295509295509295565b5f81519050919050565b7f4e487b71000000000000000000000000000000000000000000000000000000005f52602260045260245ffd5b5f600282049050600182168061059f57607f821691505b6020821081036105b2576105b161055b565b5b50919050565b5f819050815f5260205f209050919050565b5f6020601f8301049050919050565b5f82821b905092915050565b5f600883026106147fffffffffffffffffffffffffffffffffffffffffffffffffffffffffffffffff826105d9565b61061e86836105d9565b95508019841693508086168417925050509392505050565b5f819050919050565b5f61065961065461064f84610403565b610636565b610403565b9050919050565b5f819050919050565b6106728361063f565b61068661067e82610660565b8484546105e5565b825550505050565b5f5f905090565b61069d61068e565b6106a8818484610669565b505050565b5b818110156106cb576106c05f82610695565b6001810190506106ae565b5050565b601f821115610710576106e1816105b8565b6106ea846105ca565b810160208510156106f9578190505b61070d610705856105ca565b8301826106ad565b50505b505050565b5f82821c905092915050565b5f6107305f1984600802610715565b1980831691505092915050565b5f6107488383610721565b9150826002028217905092915050565b61076182610551565b67ffffffffffffffff81111561077a576107796102df565b5b6107848254610588565b61078f8282856106cf565b5f60209050601f8311600181146107c0575f84156107ae578287015190505b6107b8858261073d565b86555061081f565b601f1984166107ce866105b8565b5f5b828110156107f5578489015182556001820191506020850194506020810190506107d0565b86831015610812578489015161080e601f891682610721565b8355505b6001600288020188555050505b505050505050565b61083081610455565b82525050565b5f6020820190506108495f830184610827565b92915050565b6129448061085c5f395ff3fe608060405234801561000f575f5ffd5b506004361061012a575f3560e01c8063715018a6116100ab578063b1b410f51161006f578063b1b410f514610306578063b88d4fde14610329578063c87b56dd14610345578063e985e9c514610375578063f2fde38b146103a55761012a565b8063715018a61461029a5780638d8f2adb146102a45780638da5cb5b146102ae57806395d89b41146102cc578063a22cb465146102ea5761012a565b806340d097c3116100f257806340d097c3146101e457806342842e0e146102005780636352211e1461021c57806370a082311461024c57806370cc89ad1461027c5761012a565b806301ffc9a71461012e57806306fdde031461015e578063081812fc1461017c578063095ea7b3146101ac57806323b872dd146101c8575b5f5ffd5b61014860048036038101906101439190611e37565b6103c1565b6040516101559190611e7c565b60405180910390f35b6101666104a2565b6040516101739190611f05565b60405180910390f35b61019660048036038101906101919190611f58565b610531565b6040516101a39190611fc2565b60405180910390f35b6101c660048036038101906101c19190612005565b61054c565b005b6101e260048036038101906101dd9190612043565b610562565b005b6101fe60048036038101906101f99190612093565b610661565b005b61021a60048036038101906102159190612043565b61095d565b005b61023660048036038101906102319190611f58565b61097c565b6040516102439190611fc2565b60405180910390f35b61026660048036038101906102619190612093565b61098d565b60405161027391906120cd565b60405180910390f35b610284610a43565b60405161029191906120cd565b60405180910390f35b6102a2610a5f565b005b6102ac610a72565b005b6102b6610bc3565b6040516102c39190611fc2565b60405180910390f35b6102d4610beb565b6040516102e19190611f05565b60405180910390f35b61030460048036038101906102ff9190612110565b610c7b565b005b61030e610c91565b6040516103209695949392919061214e565b60405180910390f35b610343600480360381019061033e91906122e7565b610de5565b005b61035f600480360381019061035a9190611f58565b610e0a565b60405161036c9190611f05565b60405180910390f35b61038f600480360381019061038a9190612367565b610e4b565b60405161039c9190611e7c565b60405180910390f35b6103bf60048036038101906103ba9190612093565b610ed9565b005b5f7f80ac58cd000000000000000000000000000000000000000000000000000000007bffffffffffffffffffffffffffffffffffffffffffffffffffffffff1916827bffffffffffffffffffffffffffffffffffffffffffffffffffffffff1916148061048b57507f5b5e139f000000000000000000000000000000000000000000000000000000007bffffffffffffffffffffffffffffffffffffffffffffffffffffffff1916827bffffffffffffffffffffffffffffffffffffffffffffffffffffffff1916145b8061049b575061049a82610f5d565b5b9050919050565b60605f80546104b0906123d2565b80601f01602080910402602001604051908101604052809291908181526020018280546104dc906123d2565b80156105275780601f106104fe57610100808354040283529160200191610527565b820191905f5260205f20905b81548152906001019060200180831161050a57829003601f168201915b5050505050905090565b5f61053b82610fc6565b506105458261104c565b9050919050565b61055e8282610559611085565b61108c565b5050565b5f73ffffffffffffffffffffffffffffffffffffffff168273ffffffffffffffffffffffffffffffffffffffff16036105d2575f6040517f64a0ae920000000000000000000000000000000000000000000000000000000081526004016105c99190611fc2565b60405180910390fd5b5f6105e583836105e0611085565b61109e565b90508373ffffffffffffffffffffffffffffffffffffffff168173ffffffffffffffffffffffffffffffffffffffff161461065b578382826040517f64283d7b00000000000000000000000000000000000000000000000000000000815260040161065293929190612402565b60405180910390fd5b50505050565b600860020154600860030154106106ad576040517f08c379a00000000000000000000000000000000000000000000000000000000081526004016106a490612481565b60405180910390fd5b60086001015460086004015f9054906101000a900473ffffffffffffffffffffffffffffffffffffffff1673ffffffffffffffffffffffffffffffffffffffff166370a08231336040518263ffffffff1660e01b81526004016107109190611fc2565b602060405180830381865afa15801561072b573d5f5f3e3d5ffd5b505050506040513d601f19601f8201168201806040525081019061074f91906124b3565b1015610790576040517f08c379a000000000000000000000000000000000000000000000000000000000815260040161078790612528565b60405180910390fd5b60086001015460086004015f9054906101000a900473ffffffffffffffffffffffffffffffffffffffff1673ffffffffffffffffffffffffffffffffffffffff1663dd62ed3e33306040518363ffffffff1660e01b81526004016107f5929190612546565b602060405180830381865afa158015610810573d5f5f3e3d5ffd5b505050506040513d601f19601f8201168201806040525081019061083491906124b3565b1015610875576040517f08c379a000000000000000000000000000000000000000000000000000000000815260040161086c906125b7565b60405180910390fd5b60086004015f9054906101000a900473ffffffffffffffffffffffffffffffffffffffff1673ffffffffffffffffffffffffffffffffffffffff166323b872dd33306008600101546040518463ffffffff1660e01b81526004016108db939291906125d5565b6020604051808303815f875af11580156108f7573d5f5f3e3d5ffd5b505050506040513d601f19601f8201168201806040525081019061091b919061261e565b505f60075f81548092919061092f90612676565b91905055905061093f82826112a9565b60086003015f81548092919061095490612676565b91905055505050565b61097783838360405180602001604052805f815250610de5565b505050565b5f61098682610fc6565b9050919050565b5f5f73ffffffffffffffffffffffffffffffffffffffff168273ffffffffffffffffffffffffffffffffffffffff16036109fe575f6040517f89c62b640000000000000000000000000000000000000000000000000000000081526004016109f59190611fc2565b60405180910390fd5b60035f8373ffffffffffffffffffffffffffffffffffffffff1673ffffffffffffffffffffffffffffffffffffffff1681526020019081526020015f20549050919050565b5f600860030154600860020154610a5a91906126bd565b905090565b610a676112c6565b610a705f61134d565b565b610a7a6112c6565b5f60086004015f9054906101000a900473ffffffffffffffffffffffffffffffffffffffff1673ffffffffffffffffffffffffffffffffffffffff166370a08231306040518263ffffffff1660e01b8152600401610ad89190611fc2565b602060405180830381865afa158015610af3573d5f5f3e3d5ffd5b505050506040513d601f19601f82011682018060405250810190610b1791906124b3565b905060086004015f9054906101000a900473ffffffffffffffffffffffffffffffffffffffff1673ffffffffffffffffffffffffffffffffffffffff1663a9059cbb610b61610bc3565b836040518363ffffffff1660e01b8152600401610b7f9291906126f0565b6020604051808303815f875af1158015610b9b573d5f5f3e3d5ffd5b505050506040513d601f19601f82011682018060405250810190610bbf919061261e565b5050565b5f60065f9054906101000a900473ffffffffffffffffffffffffffffffffffffffff16905090565b606060018054610bfa906123d2565b80601f0160208091040260200160405190810160405280929190818152602001828054610c26906123d2565b8015610c715780601f10610c4857610100808354040283529160200191610c71565b820191905f5260205f20905b815481529060010190602001808311610c5457829003601f168201915b5050505050905090565b610c8d610c86611085565b8383611410565b5050565b6008805f018054610ca1906123d2565b80601f0160208091040260200160405190810160405280929190818152602001828054610ccd906123d2565b8015610d185780601f10610cef57610100808354040283529160200191610d18565b820191905f5260205f20905b815481529060010190602001808311610cfb57829003601f168201915b505050505090806001015490806002015490806003015490806004015f9054906101000a900473ffffffffffffffffffffffffffffffffffffffff1690806005018054610d64906123d2565b80601f0160208091040260200160405190810160405280929190818152602001828054610d90906123d2565b8015610ddb5780601f10610db257610100808354040283529160200191610ddb565b820191905f5260205f20905b815481529060010190602001808311610dbe57829003601f168201915b5050505050905086565b610df0848484610562565b610e04610dfb611085565b85858585611579565b50505050565b6060610e1582610fc6565b506008600501610e2483611725565b604051602001610e359291906127e3565b6040516020818303038152906040529050919050565b5f60055f8473ffffffffffffffffffffffffffffffffffffffff1673ffffffffffffffffffffffffffffffffffffffff1681526020019081526020015f205f8373ffffffffffffffffffffffffffffffffffffffff1673ffffffffffffffffffffffffffffffffffffffff1681526020019081526020015f205f9054906101000a900460ff16905092915050565b610ee16112c6565b5f73ffffffffffffffffffffffffffffffffffffffff168173ffffffffffffffffffffffffffffffffffffffff1603610f51575f6040517f1e4fbdf7000000000000000000000000000000000000000000000000000000008152600401610f489190611fc2565b60405180910390fd5b610f5a8161134d565b50565b5f7f01ffc9a7000000000000000000000000000000000000000000000000000000007bffffffffffffffffffffffffffffffffffffffffffffffffffffffff1916827bffffffffffffffffffffffffffffffffffffffffffffffffffffffff1916149050919050565b5f5f610fd1836117ef565b90505f73ffffffffffffffffffffffffffffffffffffffff168173ffffffffffffffffffffffffffffffffffffffff160361104357826040517f7e27328900000000000000000000000000000000000000000000000000000000815260040161103a91906120cd565b60405180910390fd5b80915050919050565b5f60045f8381526020019081526020015f205f9054906101000a900473ffffffffffffffffffffffffffffffffffffffff169050919050565b5f33905090565b6110998383836001611828565b505050565b5f5f6110a9846117ef565b90505f73ffffffffffffffffffffffffffffffffffffffff168373ffffffffffffffffffffffffffffffffffffffff16146110ea576110e98184866119e7565b5b5f73ffffffffffffffffffffffffffffffffffffffff168173ffffffffffffffffffffffffffffffffffffffff1614611175576111295f855f5f611828565b600160035f8373ffffffffffffffffffffffffffffffffffffffff1673ffffffffffffffffffffffffffffffffffffffff1681526020019081526020015f205f82825403925050819055505b5f73ffffffffffffffffffffffffffffffffffffffff168573ffffffffffffffffffffffffffffffffffffffff16146111f457600160035f8773ffffffffffffffffffffffffffffffffffffffff1673ffffffffffffffffffffffffffffffffffffffff1681526020019081526020015f205f82825401925050819055505b8460025f8681526020019081526020015f205f6101000a81548173ffffffffffffffffffffffffffffffffffffffff021916908373ffffffffffffffffffffffffffffffffffffffff160217905550838573ffffffffffffffffffffffffffffffffffffffff168273ffffffffffffffffffffffffffffffffffffffff167fddf252ad1be2c89b69c2b068fc378daa952ba7f163c4a11628f55a4df523b3ef60405160405180910390a4809150509392505050565b6112c2828260405180602001604052805f815250611aaa565b5050565b6112ce611085565b73ffffffffffffffffffffffffffffffffffffffff166112ec610bc3565b73ffffffffffffffffffffffffffffffffffffffff161461134b5761130f611085565b6040517f118cdaa70000000000000000000000000000000000000000000000000000000081526004016113429190611fc2565b60405180910390fd5b565b5f60065f9054906101000a900473ffffffffffffffffffffffffffffffffffffffff1690508160065f6101000a81548173ffffffffffffffffffffffffffffffffffffffff021916908373ffffffffffffffffffffffffffffffffffffffff1602179055508173ffffffffffffffffffffffffffffffffffffffff168173ffffffffffffffffffffffffffffffffffffffff167f8be0079c531659141344cd1fd0a4f28419497f9722a3daafe3b4186f6b6457e060405160405180910390a35050565b5f73ffffffffffffffffffffffffffffffffffffffff168273ffffffffffffffffffffffffffffffffffffffff160361148057816040517f5b08ba180000000000000000000000000000000000000000000000000000000081526004016114779190611fc2565b60405180910390fd5b8060055f8573ffffffffffffffffffffffffffffffffffffffff1673ffffffffffffffffffffffffffffffffffffffff1681526020019081526020015f205f8473ffffffffffffffffffffffffffffffffffffffff1673ffffffffffffffffffffffffffffffffffffffff1681526020019081526020015f205f6101000a81548160ff0219169083151502179055508173ffffffffffffffffffffffffffffffffffffffff168373ffffffffffffffffffffffffffffffffffffffff167f17307eab39ab6107e8899845ad3d59bd9653f200f220920489ca2b5937696c318360405161156c9190611e7c565b60405180910390a3505050565b5f8373ffffffffffffffffffffffffffffffffffffffff163b111561171e578273ffffffffffffffffffffffffffffffffffffffff1663150b7a02868685856040518563ffffffff1660e01b81526004016115d79493929190612858565b6020604051808303815f875af192505050801561161257506040513d601f19601f8201168201806040525081019061160f91906128b6565b60015b611693573d805f8114611640576040519150601f19603f3d011682016040523d82523d5f602084013e611645565b606091505b505f81510361168b57836040517f64a0ae920000000000000000000000000000000000000000000000000000000081526004016116829190611fc2565b60405180910390fd5b805160208201fd5b63150b7a0260e01b7bffffffffffffffffffffffffffffffffffffffffffffffffffffffff1916817bffffffffffffffffffffffffffffffffffffffffffffffffffffffff19161461171c57836040517f64a0ae920000000000000000000000000000000000000000000000000000000081526004016117139190611fc2565b60405180910390fd5b505b5050505050565b60605f600161173384611acd565b0190505f8167ffffffffffffffff811115611751576117506121c3565b5b6040519080825280601f01601f1916602001820160405280156117835781602001600182028036833780820191505090505b5090505f82602083010190505b6001156117e4578080600190039150507f3031323334353637383961626364656600000000000000000000000000000000600a86061a8153600a85816117d9576117d86128e1565b5b0494505f8503611790575b819350505050919050565b5f60025f8381526020019081526020015f205f9054906101000a900473ffffffffffffffffffffffffffffffffffffffff169050919050565b808061186057505f73ffffffffffffffffffffffffffffffffffffffff168273ffffffffffffffffffffffffffffffffffffffff1614155b15611992575f61186f84610fc6565b90505f73ffffffffffffffffffffffffffffffffffffffff168373ffffffffffffffffffffffffffffffffffffffff16141580156118d957508273ffffffffffffffffffffffffffffffffffffffff168173ffffffffffffffffffffffffffffffffffffffff1614155b80156118ec57506118ea8184610e4b565b155b1561192e57826040517fa9fbf51f0000000000000000000000000000000000000000000000000000000081526004016119259190611fc2565b60405180910390fd5b811561199057838573ffffffffffffffffffffffffffffffffffffffff168273ffffffffffffffffffffffffffffffffffffffff167f8c5be1e5ebec7d5bd14f71427d1e84f3dd0314c0f7b2291e5b200ac8c7c3b92560405160405180910390a45b505b8360045f8581526020019081526020015f205f6101000a81548173ffffffffffffffffffffffffffffffffffffffff021916908373ffffffffffffffffffffffffffffffffffffffff16021790555050505050565b6119f2838383611c1e565b611aa5575f73ffffffffffffffffffffffffffffffffffffffff168373ffffffffffffffffffffffffffffffffffffffff1603611a6657806040517f7e273289000000000000000000000000000000000000000000000000000000008152600401611a5d91906120cd565b60405180910390fd5b81816040517f177e802f000000000000000000000000000000000000000000000000000000008152600401611a9c9291906126f0565b60405180910390fd5b505050565b611ab48383611cde565b611ac8611abf611085565b5f858585611579565b505050565b5f5f5f90507a184f03e93ff9f4daa797ed6e38ed64bf6a1f0100000000000000008310611b29577a184f03e93ff9f4daa797ed6e38ed64bf6a1f0100000000000000008381611b1f57611b1e6128e1565b5b0492506040810190505b6d04ee2d6d415b85acef81000000008310611b66576d04ee2d6d415b85acef81000000008381611b5c57611b5b6128e1565b5b0492506020810190505b662386f26fc100008310611b9557662386f26fc100008381611b8b57611b8a6128e1565b5b0492506010810190505b6305f5e1008310611bbe576305f5e1008381611bb457611bb36128e1565b5b0492506008810190505b6127108310611be3576127108381611bd957611bd86128e1565b5b0492506004810190505b60648310611c065760648381611bfc57611bfb6128e1565b5b0492506002810190505b600a8310611c15576001810190505b80915050919050565b5f5f73ffffffffffffffffffffffffffffffffffffffff168373ffffffffffffffffffffffffffffffffffffffff1614158015611cd557508273ffffffffffffffffffffffffffffffffffffffff168473ffffffffffffffffffffffffffffffffffffffff161480611c965750611c958484610e4b565b5b80611cd457508273ffffffffffffffffffffffffffffffffffffffff16611cbc8361104c565b73ffffffffffffffffffffffffffffffffffffffff16145b5b90509392505050565b5f73ffffffffffffffffffffffffffffffffffffffff168273ffffffffffffffffffffffffffffffffffffffff1603611d4e575f6040517f64a0ae92000000000000000000000000000000000000000000000000000000008152600401611d459190611fc2565b60405180910390fd5b5f611d5a83835f61109e565b90505f73ffffffffffffffffffffffffffffffffffffffff168173ffffffffffffffffffffffffffffffffffffffff1614611dcc575f6040517f73c6ac6e000000000000000000000000000000000000000000000000000000008152600401611dc39190611fc2565b60405180910390fd5b505050565b5f604051905090565b5f5ffd5b5f5ffd5b5f7fffffffff0000000000000000000000000000000000000000000000000000000082169050919050565b611e1681611de2565b8114611e20575f5ffd5b50565b5f81359050611e3181611e0d565b92915050565b5f60208284031215611e4c57611e4b611dda565b5b5f611e5984828501611e23565b91505092915050565b5f8115159050919050565b611e7681611e62565b82525050565b5f602082019050611e8f5f830184611e6d565b92915050565b5f81519050919050565b5f82825260208201905092915050565b8281835e5f83830152505050565b5f601f19601f8301169050919050565b5f611ed782611e95565b611ee18185611e9f565b9350611ef1818560208601611eaf565b611efa81611ebd565b840191505092915050565b5f6020820190508181035f830152611f1d8184611ecd565b905092915050565b5f819050919050565b611f3781611f25565b8114611f41575f5ffd5b50565b5f81359050611f5281611f2e565b92915050565b5f60208284031215611f6d57611f6c611dda565b5b5f611f7a84828501611f44565b91505092915050565b5f73ffffffffffffffffffffffffffffffffffffffff82169050919050565b5f611fac82611f83565b9050919050565b611fbc81611fa2565b82525050565b5f602082019050611fd55f830184611fb3565b92915050565b611fe481611fa2565b8114611fee575f5ffd5b50565b5f81359050611fff81611fdb565b92915050565b5f5f6040838503121561201b5761201a611dda565b5b5f61202885828601611ff1565b925050602061203985828601611f44565b9150509250929050565b5f5f5f6060848603121561205a57612059611dda565b5b5f61206786828701611ff1565b935050602061207886828701611ff1565b925050604061208986828701611f44565b9150509250925092565b5f602082840312156120a8576120a7611dda565b5b5f6120b584828501611ff1565b91505092915050565b6120c781611f25565b82525050565b5f6020820190506120e05f8301846120be565b92915050565b6120ef81611e62565b81146120f9575f5ffd5b50565b5f8135905061210a816120e6565b92915050565b5f5f6040838503121561212657612125611dda565b5b5f61213385828601611ff1565b9250506020612144858286016120fc565b9150509250929050565b5f60c0820190508181035f8301526121668189611ecd565b905061217560208301886120be565b61218260408301876120be565b61218f60608301866120be565b61219c6080830185611fb3565b81810360a08301526121ae8184611ecd565b9050979650505050505050565b5f5ffd5b5f5ffd5b7f4e487b71000000000000000000000000000000000000000000000000000000005f52604160045260245ffd5b6121f982611ebd565b810181811067ffffffffffffffff82111715612218576122176121c3565b5b80604052505050565b5f61222a611dd1565b905061223682826121f0565b919050565b5f67ffffffffffffffff821115612255576122546121c3565b5b61225e82611ebd565b9050602081019050919050565b828183375f83830152505050565b5f61228b6122868461223b565b612221565b9050828152602081018484840111156122a7576122a66121bf565b5b6122b284828561226b565b509392505050565b5f82601f8301126122ce576122cd6121bb565b5b81356122de848260208601612279565b91505092915050565b5f5f5f5f608085870312156122ff576122fe611dda565b5b5f61230c87828801611ff1565b945050602061231d87828801611ff1565b935050604061232e87828801611f44565b925050606085013567ffffffffffffffff81111561234f5761234e611dde565b5b61235b878288016122ba565b91505092959194509250565b5f5f6040838503121561237d5761237c611dda565b5b5f61238a85828601611ff1565b925050602061239b85828601611ff1565b9150509250929050565b7f4e487b71000000000000000000000000000000000000000000000000000000005f52602260045260245ffd5b5f60028204905060018216806123e957607f821691505b6020821081036123fc576123fb6123a5565b5b50919050565b5f6060820190506124155f830186611fb3565b61242260208301856120be565b61242f6040830184611fb3565b949350505050565b7f416c6c207469636b65747320736f6c64000000000000000000000000000000005f82015250565b5f61246b601083611e9f565b915061247682612437565b602082019050919050565b5f6020820190508181035f8301526124988161245f565b9050919050565b5f815190506124ad81611f2e565b92915050565b5f602082840312156124c8576124c7611dda565b5b5f6124d58482850161249f565b91505092915050565b7f496e73756666696369656e7420746f6b656e2062616c616e63650000000000005f82015250565b5f612512601a83611e9f565b915061251d826124de565b602082019050919050565b5f6020820190508181035f83015261253f81612506565b9050919050565b5f6040820190506125595f830185611fb3565b6125666020830184611fb3565b9392505050565b7f546f6b656e20616c6c6f77616e636520746f6f206c6f770000000000000000005f82015250565b5f6125a1601783611e9f565b91506125ac8261256d565b602082019050919050565b5f6020820190508181035f8301526125ce81612595565b9050919050565b5f6060820190506125e85f830186611fb3565b6125f56020830185611fb3565b61260260408301846120be565b949350505050565b5f81519050612618816120e6565b92915050565b5f6020828403121561263357612632611dda565b5b5f6126408482850161260a565b91505092915050565b7f4e487b71000000000000000000000000000000000000000000000000000000005f52601160045260245ffd5b5f61268082611f25565b91507fffffffffffffffffffffffffffffffffffffffffffffffffffffffffffffffff82036126b2576126b1612649565b5b600182019050919050565b5f6126c782611f25565b91506126d283611f25565b92508282039050818111156126ea576126e9612649565b5b92915050565b5f6040820190506127035f830185611fb3565b61271060208301846120be565b9392505050565b5f81905092915050565b5f819050815f5260205f209050919050565b5f815461273f816123d2565b6127498186612717565b9450600182165f81146127635760018114612778576127aa565b60ff19831686528115158202860193506127aa565b61278185612721565b5f5b838110156127a257815481890152600182019150602081019050612783565b838801955050505b50505092915050565b5f6127bd82611e95565b6127c78185612717565b93506127d7818560208601611eaf565b80840191505092915050565b5f6127ee8285612733565b91506127fa82846127b3565b91508190509392505050565b5f81519050919050565b5f82825260208201905092915050565b5f61282a82612806565b6128348185612810565b9350612844818560208601611eaf565b61284d81611ebd565b840191505092915050565b5f60808201905061286b5f830187611fb3565b6128786020830186611fb3565b61288560408301856120be565b81810360608301526128978184612820565b905095945050505050565b5f815190506128b081611e0d565b92915050565b5f602082840312156128cb576128ca611dda565b5b5f6128d8848285016128a2565b91505092915050565b7f4e487b71000000000000000000000000000000000000000000000000000000005f52601260045260245ffdfea26469706673582212201ea2010d269d385efb0ee5b6a8d4d988d19e0783b263cd67be6bb6d75d778f8464736f6c634300081c0033a26469706673582212202cd6cc82b1c6e9bca320ae6a94a21063ea2f53d1de5c91ed8a0e9f19eb17c82364736f6c634300081c0033608060405234801561000f575f5ffd5b50336040518060400160405280600a81526020017f4576656e74546f6b656e000000000000000000000000000000000000000000008152506040518060400160405280600381526020017f4556540000000000000000000000000000000000000000000000000000000000815250816003908161008c9190610701565b50806004908161009c9190610701565b5050505f73ffffffffffffffffffffffffffffffffffffffff168173ffffffffffffffffffffffffffffffffffffffff160361010f575f6040517f1e4fbdf7000000000000000000000000000000000000000000000000000000008152600401610106919061080f565b60405180910390fd5b61011e8161015b60201b60201c565b506101563361013161021e60201b60201c565b600a61013d9190610990565b620f424061014b91906109da565b61022660201b60201c565b610aab565b5f60055f9054906101000a900473ffffffffffffffffffffffffffffffffffffffff1690508160055f6101000a81548173ffffffffffffffffffffffffffffffffffffffff021916908373ffffffffffffffffffffffffffffffffffffffff1602179055508173ffffffffffffffffffffffffffffffffffffffff168173ffffffffffffffffffffffffffffffffffffffff167f8be0079c531659141344cd1fd0a4f28419497f9722a3daafe3b4186f6b6457e060405160405180910390a35050565b5f6012905090565b5f73ffffffffffffffffffffffffffffffffffffffff168273ffffffffffffffffffffffffffffffffffffffff1603610296575f6040517fec442f0500000000000000000000000000000000000000000000000000000000815260040161028d919061080f565b60405180910390fd5b6102a75f83836102ab60201b60201c565b5050565b5f73ffffffffffffffffffffffffffffffffffffffff168373ffffffffffffffffffffffffffffffffffffffff16036102fb578060025f8282546102ef9190610a1b565b925050819055506103c9565b5f5f5f8573ffffffffffffffffffffffffffffffffffffffff1673ffffffffffffffffffffffffffffffffffffffff1681526020019081526020015f2054905081811015610384578381836040517fe450d38c00000000000000000000000000000000000000000000000000000000815260040161037b93929190610a5d565b60405180910390fd5b8181035f5f8673ffffffffffffffffffffffffffffffffffffffff1673ffffffffffffffffffffffffffffffffffffffff1681526020019081526020015f2081905550505b5f73ffffffffffffffffffffffffffffffffffffffff168273ffffffffffffffffffffffffffffffffffffffff1603610410578060025f828254039250508190555061045a565b805f5f8473ffffffffffffffffffffffffffffffffffffffff1673ffffffffffffffffffffffffffffffffffffffff1681526020019081526020015f205f82825401925050819055505b8173ffffffffffffffffffffffffffffffffffffffff168373ffffffffffffffffffffffffffffffffffffffff167fddf252ad1be2c89b69c2b068fc378daa952ba7f163c4a11628f55a4df523b3ef836040516104b79190610a92565b60405180910390a3505050565b5f81519050919050565b7f4e487b71000000000000000000000000000000000000000000000000000000005f52604160045260245ffd5b7f4e487b71000000000000000000000000000000000000000000000000000000005f52602260045260245ffd5b5f600282049050600182168061053f57607f821691505b602082108103610552576105516104fb565b5b50919050565b5f819050815f5260205f209050919050565b5f6020601f8301049050919050565b5f82821b905092915050565b5f600883026105b47fffffffffffffffffffffffffffffffffffffffffffffffffffffffffffffffff82610579565b6105be8683610579565b95508019841693508086168417925050509392505050565b5f819050919050565b5f819050919050565b5f6106026105fd6105f8846105d6565b6105df565b6105d6565b9050919050565b5f819050919050565b61061b836105e8565b61062f61062782610609565b848454610585565b825550505050565b5f5f905090565b610646610637565b610651818484610612565b505050565b5b81811015610674576106695f8261063e565b600181019050610657565b5050565b601f8211156106b95761068a81610558565b6106938461056a565b810160208510156106a2578190505b6106b66106ae8561056a565b830182610656565b50505b505050565b5f82821c905092915050565b5f6106d95f19846008026106be565b1980831691505092915050565b5f6106f183836106ca565b9150826002028217905092915050565b61070a826104c4565b67ffffffffffffffff811115610723576107226104ce565b5b61072d8254610528565b610738828285610678565b5f60209050601f831160018114610769575f8415610757578287015190505b61076185826106e6565b8655506107c8565b601f19841661077786610558565b5f5b8281101561079e57848901518255600182019150602085019450602081019050610779565b868310156107bb57848901516107b7601f8916826106ca565b8355505b6001600288020188555050505b505050505050565b5f73ffffffffffffffffffffffffffffffffffffffff82169050919050565b5f6107f9826107d0565b9050919050565b610809816107ef565b82525050565b5f6020820190506108225f830184610800565b92915050565b7f4e487b71000000000000000000000000000000000000000000000000000000005f52601160045260245ffd5b5f8160011c9050919050565b5f5f8291508390505b60018511156108aa5780860481111561088657610885610828565b5b60018516156108955780820291505b80810290506108a385610855565b945061086a565b94509492505050565b5f826108c2576001905061097d565b816108cf575f905061097d565b81600181146108e557600281146108ef5761091e565b600191505061097d565b60ff84111561090157610900610828565b5b8360020a91508482111561091857610917610828565b5b5061097d565b5060208310610133831016604e8410600b84101617156109535782820a90508381111561094e5761094d610828565b5b61097d565b6109608484846001610861565b9250905081840481111561097757610976610828565b5b81810290505b9392505050565b5f60ff82169050919050565b5f61099a826105d6565b91506109a583610984565b92506109d27fffffffffffffffffffffffffffffffffffffffffffffffffffffffffffffffff84846108b3565b905092915050565b5f6109e4826105d6565b91506109ef836105d6565b92508282026109fd816105d6565b91508282048414831517610a1457610a13610828565b5b5092915050565b5f610a25826105d6565b9150610a30836105d6565b9250828201905080821115610a4857610a47610828565b5b92915050565b610a57816105d6565b82525050565b5f606082019050610a705f830186610800565b610a7d6020830185610a4e565b610a8a6040830184610a4e565b949350505050565b5f602082019050610aa55f830184610a4e565b92915050565b61111c80610ab85f395ff3fe608060405234801561000f575f5ffd5b50600436106100cd575f3560e01c806370a082311161008a57806395d89b411161006457806395d89b41146101ff578063a9059cbb1461021d578063dd62ed3e1461024d578063f2fde38b1461027d576100cd565b806370a08231146101a7578063715018a6146101d75780638da5cb5b146101e1576100cd565b806306fdde03146100d1578063095ea7b3146100ef57806318160ddd1461011f57806323b872dd1461013d578063313ce5671461016d57806340c10f191461018b575b5f5ffd5b6100d9610299565b6040516100e69190610d95565b60405180910390f35b61010960048036038101906101049190610e46565b610329565b6040516101169190610e9e565b60405180910390f35b61012761034b565b6040516101349190610ec6565b60405180910390f35b61015760048036038101906101529190610edf565b610354565b6040516101649190610e9e565b60405180910390f35b610175610382565b6040516101829190610f4a565b60405180910390f35b6101a560048036038101906101a09190610e46565b61038a565b005b6101c160048036038101906101bc9190610f63565b6103a0565b6040516101ce9190610ec6565b60405180910390f35b6101df6103e5565b005b6101e96103f8565b6040516101f69190610f9d565b60405180910390f35b610207610420565b6040516102149190610d95565b60405180910390f35b61023760048036038101906102329190610e46565b6104b0565b6040516102449190610e9e565b60405180910390f35b61026760048036038101906102629190610fb6565b6104d2565b6040516102749190610ec6565b60405180910390f35b61029760048036038101906102929190610f63565b610554565b005b6060600380546102a890611021565b80601f01602080910402602001604051908101604052809291908181526020018280546102d490611021565b801561031f5780601f106102f65761010080835404028352916020019161031f565b820191905f5260205f20905b81548152906001019060200180831161030257829003601f168201915b5050505050905090565b5f5f6103336105d8565b90506103408185856105df565b600191505092915050565b5f600254905090565b5f5f61035e6105d8565b905061036b8582856105f1565b610376858585610684565b60019150509392505050565b5f6012905090565b610392610774565b61039c82826107fb565b5050565b5f5f5f8373ffffffffffffffffffffffffffffffffffffffff1673ffffffffffffffffffffffffffffffffffffffff1681526020019081526020015f20549050919050565b6103ed610774565b6103f65f61087a565b565b5f60055f9054906101000a900473ffffffffffffffffffffffffffffffffffffffff16905090565b60606004805461042f90611021565b80601f016020809104026020016040519081016040528092919081815260200182805461045b90611021565b80156104a65780601f1061047d576101008083540402835291602001916104a6565b820191905f5260205f20905b81548152906001019060200180831161048957829003601f168201915b5050505050905090565b5f5f6104ba6105d8565b90506104c7818585610684565b600191505092915050565b5f60015f8473ffffffffffffffffffffffffffffffffffffffff1673ffffffffffffffffffffffffffffffffffffffff1681526020019081526020015f205f8373ffffffffffffffffffffffffffffffffffffffff1673ffffffffffffffffffffffffffffffffffffffff1681526020019081526020015f2054905092915050565b61055c610774565b5f73ffffffffffffffffffffffffffffffffffffffff168173ffffffffffffffffffffffffffffffffffffffff16036105cc575f6040517f1e4fbdf70000000000000000000000000000000000000000000000000000000081526004016105c39190610f9d565b60405180910390fd5b6105d58161087a565b50565b5f33905090565b6105ec838383600161093d565b505050565b5f6105fc84846104d2565b90507fffffffffffffffffffffffffffffffffffffffffffffffffffffffffffffffff81101561067e578181101561066f578281836040517ffb8f41b200000000000000000000000000000000000000000000000000000000815260040161066693929190611051565b60405180910390fd5b61067d84848484035f61093d565b5b50505050565b5f73ffffffffffffffffffffffffffffffffffffffff168373ffffffffffffffffffffffffffffffffffffffff16036106f4575f6040517f96c6fd1e0000000000000000000000000000000000000000000000000000000081526004016106eb9190610f9d565b60405180910390fd5b5f73ffffffffffffffffffffffffffffffffffffffff168273ffffffffffffffffffffffffffffffffffffffff1603610764575f6040517fec442f0500000000000000000000000000000000000000000000000000000000815260040161075b9190610f9d565b60405180910390fd5b61076f838383610b0c565b505050565b61077c6105d8565b73ffffffffffffffffffffffffffffffffffffffff1661079a6103f8565b73ffffffffffffffffffffffffffffffffffffffff16146107f9576107bd6105d8565b6040517f118cdaa70000000000000000000000000000000000000000000000000000000081526004016107f09190610f9d565b60405180910390fd5b565b5f73ffffffffffffffffffffffffffffffffffffffff168273ffffffffffffffffffffffffffffffffffffffff160361086b575f6040517fec442f050000000000000000000000000000000000000000000000000000000081526004016108629190610f9d565b60405180910390fd5b6108765f8383610b0c565b5050565b5f60055f9054906101000a900473ffffffffffffffffffffffffffffffffffffffff1690508160055f6101000a81548173ffffffffffffffffffffffffffffffffffffffff021916908373ffffffffffffffffffffffffffffffffffffffff1602179055508173ffffffffffffffffffffffffffffffffffffffff168173ffffffffffffffffffffffffffffffffffffffff167f8be0079c531659141344cd1fd0a4f28419497f9722a3daafe3b4186f6b6457e060405160405180910390a35050565b5f73ffffffffffffffffffffffffffffffffffffffff168473ffffffffffffffffffffffffffffffffffffffff16036109ad575f6040517fe602df050000000000000000000000000000000000000000000000000000000081526004016109a49190610f9d565b60405180910390fd5b5f73ffffffffffffffffffffffffffffffffffffffff168373ffffffffffffffffffffffffffffffffffffffff1603610a1d575f6040517f94280d62000000000000000000000000000000000000000000000000000000008152600401610a149190610f9d565b60405180910390fd5b8160015f8673ffffffffffffffffffffffffffffffffffffffff1673ffffffffffffffffffffffffffffffffffffffff1681526020019081526020015f205f8573ffffffffffffffffffffffffffffffffffffffff1673ffffffffffffffffffffffffffffffffffffffff1681526020019081526020015f20819055508015610b06578273ffffffffffffffffffffffffffffffffffffffff168473ffffffffffffffffffffffffffffffffffffffff167f8c5be1e5ebec7d5bd14f71427d1e84f3dd0314c0f7b2291e5b200ac8c7c3b92584604051610afd9190610ec6565b60405180910390a35b50505050565b5f73ffffffffffffffffffffffffffffffffffffffff168373ffffffffffffffffffffffffffffffffffffffff1603610b5c578060025f828254610b5091906110b3565b92505081905550610c2a565b5f5f5f8573ffffffffffffffffffffffffffffffffffffffff1673ffffffffffffffffffffffffffffffffffffffff1681526020019081526020015f2054905081811015610be5578381836040517fe450d38c000000000000000000000000000000000000000000000000000000008152600401610bdc93929190611051565b60405180910390fd5b8181035f5f8673ffffffffffffffffffffffffffffffffffffffff1673ffffffffffffffffffffffffffffffffffffffff1681526020019081526020015f2081905550505b5f73ffffffffffffffffffffffffffffffffffffffff168273ffffffffffffffffffffffffffffffffffffffff1603610c71578060025f8282540392505081905550610cbb565b805f5f8473ffffffffffffffffffffffffffffffffffffffff1673ffffffffffffffffffffffffffffffffffffffff1681526020019081526020015f205f82825401925050819055505b8173ffffffffffffffffffffffffffffffffffffffff168373ffffffffffffffffffffffffffffffffffffffff167fddf252ad1be2c89b69c2b068fc378daa952ba7f163c4a11628f55a4df523b3ef83604051610d189190610ec6565b60405180910390a3505050565b5f81519050919050565b5f82825260208201905092915050565b8281835e5f83830152505050565b5f601f19601f8301169050919050565b5f610d6782610d25565b610d718185610d2f565b9350610d81818560208601610d3f565b610d8a81610d4d565b840191505092915050565b5f6020820190508181035f830152610dad8184610d5d565b905092915050565b5f5ffd5b5f73ffffffffffffffffffffffffffffffffffffffff82169050919050565b5f610de282610db9565b9050919050565b610df281610dd8565b8114610dfc575f5ffd5b50565b5f81359050610e0d81610de9565b92915050565b5f819050919050565b610e2581610e13565b8114610e2f575f5ffd5b50565b5f81359050610e4081610e1c565b92915050565b5f5f60408385031215610e5c57610e5b610db5565b5b5f610e6985828601610dff565b9250506020610e7a85828601610e32565b9150509250929050565b5f8115159050919050565b610e9881610e84565b82525050565b5f602082019050610eb15f830184610e8f565b92915050565b610ec081610e13565b82525050565b5f602082019050610ed95f830184610eb7565b92915050565b5f5f5f60608486031215610ef657610ef5610db5565b5b5f610f0386828701610dff565b9350506020610f1486828701610dff565b9250506040610f2586828701610e32565b9150509250925092565b5f60ff82169050919050565b610f4481610f2f565b82525050565b5f602082019050610f5d5f830184610f3b565b92915050565b5f60208284031215610f7857610f77610db5565b5b5f610f8584828501610dff565b91505092915050565b610f9781610dd8565b82525050565b5f602082019050610fb05f830184610f8e565b92915050565b5f5f60408385031215610fcc57610fcb610db5565b5b5f610fd985828601610dff565b9250506020610fea85828601610dff565b9150509250929050565b7f4e487b71000000000000000000000000000000000000000000000000000000005f52602260045260245ffd5b5f600282049050600182168061103857607f821691505b60208210810361104b5761104a610ff4565b5b50919050565b5f6060820190506110645f830186610f8e565b6110716020830185610eb7565b61107e6040830184610eb7565b949350505050565b7f4e487b71000000000000000000000000000000000000000000000000000000005f52601160045260245ffd5b5f6110bd82610e13565b91506110c883610e13565b92508282019050808211156110e0576110df611086565b5b9291505056fea2646970667358221220066a8386106893989a9d45eb7ab257400e58a17bc7964e13f7a9c47a9cb10bac64736f6c634300081c0033","linkReferences":{}},"methodIdentifiers":{"buyTokens()":"d0febe4c","createTicketEvent(string,uint256,uint256,string)":"9f4afae4","getAllEvents()":"c27a500d","owner()":"8da5cb5b","renounceOwnership()":"715018a6","ticketEvents(uint256)":"e9e59a6a","token()":"fc0c546a","transferOwnership(address)":"f2fde38b","withdraw()":"3ccfd60b"},"id":38}