{
  "_format": "hh-sol-artifact-1",
  "contractName": "PiggyBank",
  "sourceName": "contracts/Piggy.sol",
  "abi": [
    {
      "inputs": [
        {
          "internalType": "address",
          "name": "_owner",
          "type": "address"
        },
        {
          "internalType": "address",
          "name": "_admin",
          "type": "address"
        },
        {
          "internalType": "uint256",
          "name": "_lockPeriod",
          "type": "uint256"
        },
        {
          "internalType": "bool",
          "name": "_isETH",
          "type": "bool"
        },
        {
          "internalType": "address",
          "name": "_tokenAddress",
          "type": "address"
        }
      ],
      "stateMutability": "nonpayable",
      "type": "constructor"
    },
    {
      "inputs": [],
      "name": "admin",
      "outputs": [
        {
          "internalType": "address",
          "name": "",
          "type": "address"
        }
      ],
      "stateMutability": "view",
      "type": "function"
    },
    {
      "inputs": [],
      "name": "balance",
      "outputs": [
        {
          "internalType": "uint256",
          "name": "",
          "type": "uint256"
        }
      ],
      "stateMutability": "view",
      "type": "function"
    },
    {
      "inputs": [
        {
          "internalType": "uint256",
          "name": "amount",
          "type": "uint256"
        }
      ],
      "name": "deposit",
      "outputs": [],
      "stateMutability": "payable",
      "type": "function"
    },
    {
      "inputs": [],
      "name": "getBalance",
      "outputs": [
        {
          "internalType": "uint256",
          "name": "",
          "type": "uint256"
        }
      ],
      "stateMutability": "view",
      "type": "function"
    },
    {
      "inputs": [],
      "name": "isETH",
      "outputs": [
        {
          "internalType": "bool",
          "name": "",
          "type": "bool"
        }
      ],
      "stateMutability": "view",
      "type": "function"
    },
    {
      "inputs": [],
      "name": "lockEnd",
      "outputs": [
        {
          "internalType": "uint256",
          "name": "",
          "type": "uint256"
        }
      ],
      "stateMutability": "view",
      "type": "function"
    },
    {
      "inputs": [],
      "name": "owner",
      "outputs": [
        {
          "internalType": "address",
          "name": "",
          "type": "address"
        }
      ],
      "stateMutability": "view",
      "type": "function"
    },
    {
      "inputs": [],
      "name": "token",
      "outputs": [
        {
          "internalType": "contract IERC20",
          "name": "",
          "type": "address"
        }
      ],
      "stateMutability": "view",
      "type": "function"
    },
    {
      "inputs": [
        {
          "internalType": "uint256",
          "name": "amount",
          "type": "uint256"
        }
      ],
      "name": "withdraw",
      "outputs": [],
      "stateMutability": "nonpayable",
      "type": "function"
    }
  ],
  "bytecode": "0x608060405234801561001057600080fd5b506040516111cd3803806111cd83398181016040528101906100329190610201565b846000806101000a81548173ffffffffffffffffffffffffffffffffffffffff021916908373ffffffffffffffffffffffffffffffffffffffff16021790555083600160006101000a81548173ffffffffffffffffffffffffffffffffffffffff021916908373ffffffffffffffffffffffffffffffffffffffff16021790555082426100bf91906102ab565b60038190555081600460006101000a81548160ff021916908315150217905550816101265780600460016101000a81548173ffffffffffffffffffffffffffffffffffffffff021916908373ffffffffffffffffffffffffffffffffffffffff1602179055505b50505050506102df565b600080fd5b600073ffffffffffffffffffffffffffffffffffffffff82169050919050565b600061016082610135565b9050919050565b61017081610155565b811461017b57600080fd5b50565b60008151905061018d81610167565b92915050565b6000819050919050565b6101a681610193565b81146101b157600080fd5b50565b6000815190506101c38161019d565b92915050565b60008115159050919050565b6101de816101c9565b81146101e957600080fd5b50565b6000815190506101fb816101d5565b92915050565b600080600080600060a0868803121561021d5761021c610130565b5b600061022b8882890161017e565b955050602061023c8882890161017e565b945050604061024d888289016101b4565b935050606061025e888289016101ec565b925050608061026f8882890161017e565b9150509295509295909350565b7f4e487b7100000000000000000000000000000000000000000000000000000000600052601160045260246000fd5b60006102b682610193565b91506102c183610193565b92508282019050808211156102d9576102d861027c565b5b92915050565b610edf806102ee6000396000f3fe6080604052600436106100865760003560e01c8063a41d3c2e11610059578063a41d3c2e14610135578063b69ef8a814610160578063b6b55f251461018b578063f851a440146101a7578063fc0c546a146101d257610086565b806312065fe01461008b5780632e1a7d4d146100b65780638da5cb5b146100df578063a0ee45011461010a575b600080fd5b34801561009757600080fd5b506100a06101fd565b6040516100ad9190610905565b60405180910390f35b3480156100c257600080fd5b506100dd60048036038101906100d89190610951565b6102ee565b005b3480156100eb57600080fd5b506100f461069a565b60405161010191906109bf565b60405180910390f35b34801561011657600080fd5b5061011f6106be565b60405161012c9190610905565b60405180910390f35b34801561014157600080fd5b5061014a6106c4565b60405161015791906109f5565b60405180910390f35b34801561016c57600080fd5b506101756106d7565b6040516101829190610905565b60405180910390f35b6101a560048036038101906101a09190610951565b6106dd565b005b3480156101b357600080fd5b506101bc6108a0565b6040516101c991906109bf565b60405180910390f35b3480156101de57600080fd5b506101e76108c6565b6040516101f49190610a6f565b60405180910390f35b60008060009054906101000a900473ffffffffffffffffffffffffffffffffffffffff1673ffffffffffffffffffffffffffffffffffffffff163373ffffffffffffffffffffffffffffffffffffffff1614806102a75750600160009054906101000a900473ffffffffffffffffffffffffffffffffffffffff1673ffffffffffffffffffffffffffffffffffffffff163373ffffffffffffffffffffffffffffffffffffffff16145b6102e6576040517f08c379a00000000000000000000000000000000000000000000000000000000081526004016102dd90610ae7565b60405180910390fd5b600254905090565b60008054906101000a900473ffffffffffffffffffffffffffffffffffffffff1673ffffffffffffffffffffffffffffffffffffffff163373ffffffffffffffffffffffffffffffffffffffff161461037c576040517f08c379a000000000000000000000000000000000000000000000000000000000815260040161037390610b53565b60405180910390fd5b6002548111156103c1576040517f08c379a00000000000000000000000000000000000000000000000000000000081526004016103b890610bbf565b60405180910390fd5b60006003544210156103e95760646003836103dc9190610c0e565b6103e69190610c7f565b90505b600081836103f79190610cb0565b9050600460009054906101000a900460ff16156104ed57600082111561048157600160009054906101000a900473ffffffffffffffffffffffffffffffffffffffff1673ffffffffffffffffffffffffffffffffffffffff166108fc839081150290604051600060405180830381858888f1935050505015801561047f573d6000803e3d6000fd5b505b60008054906101000a900473ffffffffffffffffffffffffffffffffffffffff1673ffffffffffffffffffffffffffffffffffffffff166108fc829081150290604051600060405180830381858888f193505050501580156104e7573d6000803e3d6000fd5b5061067c565b60008211156105ba57600460019054906101000a900473ffffffffffffffffffffffffffffffffffffffff1673ffffffffffffffffffffffffffffffffffffffff1663a9059cbb600160009054906101000a900473ffffffffffffffffffffffffffffffffffffffff16846040518363ffffffff1660e01b8152600401610575929190610ce4565b6020604051808303816000875af1158015610594573d6000803e3d6000fd5b505050506040513d601f19601f820116820180604052508101906105b89190610d39565b505b600460019054906101000a900473ffffffffffffffffffffffffffffffffffffffff1673ffffffffffffffffffffffffffffffffffffffff1663a9059cbb60008054906101000a900473ffffffffffffffffffffffffffffffffffffffff16836040518363ffffffff1660e01b8152600401610637929190610ce4565b6020604051808303816000875af1158015610656573d6000803e3d6000fd5b505050506040513d601f19601f8201168201806040525081019061067a9190610d39565b505b826002600082825461068e9190610cb0565b92505081905550505050565b60008054906101000a900473ffffffffffffffffffffffffffffffffffffffff1681565b60035481565b600460009054906101000a900460ff1681565b60025481565b60008054906101000a900473ffffffffffffffffffffffffffffffffffffffff1673ffffffffffffffffffffffffffffffffffffffff163373ffffffffffffffffffffffffffffffffffffffff161461076b576040517f08c379a000000000000000000000000000000000000000000000000000000000815260040161076290610db2565b60405180910390fd5b600460009054906101000a900460ff16156107e0578034146107c2576040517f08c379a00000000000000000000000000000000000000000000000000000000081526004016107b990610e1e565b60405180910390fd5b80600260008282546107d49190610e3e565b9250508190555061089d565b600460019054906101000a900473ffffffffffffffffffffffffffffffffffffffff1673ffffffffffffffffffffffffffffffffffffffff166323b872dd3330846040518463ffffffff1660e01b815260040161083f93929190610e72565b6020604051808303816000875af115801561085e573d6000803e3d6000fd5b505050506040513d601f19601f820116820180604052508101906108829190610d39565b5080600260008282546108959190610e3e565b925050819055505b50565b600160009054906101000a900473ffffffffffffffffffffffffffffffffffffffff1681565b600460019054906101000a900473ffffffffffffffffffffffffffffffffffffffff1681565b6000819050919050565b6108ff816108ec565b82525050565b600060208201905061091a60008301846108f6565b92915050565b600080fd5b61092e816108ec565b811461093957600080fd5b50565b60008135905061094b81610925565b92915050565b60006020828403121561096757610966610920565b5b60006109758482850161093c565b91505092915050565b600073ffffffffffffffffffffffffffffffffffffffff82169050919050565b60006109a98261097e565b9050919050565b6109b98161099e565b82525050565b60006020820190506109d460008301846109b0565b92915050565b60008115159050919050565b6109ef816109da565b82525050565b6000602082019050610a0a60008301846109e6565b92915050565b6000819050919050565b6000610a35610a30610a2b8461097e565b610a10565b61097e565b9050919050565b6000610a4782610a1a565b9050919050565b6000610a5982610a3c565b9050919050565b610a6981610a4e565b82525050565b6000602082019050610a846000830184610a60565b92915050565b600082825260208201905092915050565b7f4f6e6c79206f776e6572206f722061646d696e00000000000000000000000000600082015250565b6000610ad1601383610a8a565b9150610adc82610a9b565b602082019050919050565b60006020820190508181036000830152610b0081610ac4565b9050919050565b7f4f6e6c79206f776e65722063616e207769746864726177000000000000000000600082015250565b6000610b3d601783610a8a565b9150610b4882610b07565b602082019050919050565b60006020820190508181036000830152610b6c81610b30565b9050919050565b7f496e73756666696369656e742062616c616e6365000000000000000000000000600082015250565b6000610ba9601483610a8a565b9150610bb482610b73565b602082019050919050565b60006020820190508181036000830152610bd881610b9c565b9050919050565b7f4e487b7100000000000000000000000000000000000000000000000000000000600052601160045260246000fd5b6000610c19826108ec565b9150610c24836108ec565b9250828202610c32816108ec565b91508282048414831517610c4957610c48610bdf565b5b5092915050565b7f4e487b7100000000000000000000000000000000000000000000000000000000600052601260045260246000fd5b6000610c8a826108ec565b9150610c95836108ec565b925082610ca557610ca4610c50565b5b828204905092915050565b6000610cbb826108ec565b9150610cc6836108ec565b9250828203905081811115610cde57610cdd610bdf565b5b92915050565b6000604082019050610cf960008301856109b0565b610d0660208301846108f6565b9392505050565b610d16816109da565b8114610d2157600080fd5b50565b600081519050610d3381610d0d565b92915050565b600060208284031215610d4f57610d4e610920565b5b6000610d5d84828501610d24565b91505092915050565b7f4f6e6c79206f776e65722063616e206465706f73697400000000000000000000600082015250565b6000610d9c601683610a8a565b9150610da782610d66565b602082019050919050565b60006020820190508181036000830152610dcb81610d8f565b9050919050565b7f496e636f72726563742045544820616d6f756e74000000000000000000000000600082015250565b6000610e08601483610a8a565b9150610e1382610dd2565b602082019050919050565b60006020820190508181036000830152610e3781610dfb565b9050919050565b6000610e49826108ec565b9150610e54836108ec565b9250828201905080821115610e6c57610e6b610bdf565b5b92915050565b6000606082019050610e8760008301866109b0565b610e9460208301856109b0565b610ea160408301846108f6565b94935050505056fea2646970667358221220718ed346b77e560d29baf0a9d7abdf0272d9d9e1a42ff7088ff7a0e099ab368264736f6c634300081c0033",
  "linkReferences": {},
  "deployedLinkReferences": {}
}