{
  "_format": "hh-sol-artifact-1",
  "contractName": "StudentManagementSystem",
  "sourceName": "contracts/Student.sol",
  "abi": [
    {
      "inputs": [
        {
          "internalType": "uint256",
          "name": "_index",
          "type": "uint256"
        }
      ],
      "name": "delete_student",
      "outputs": [],
      "stateMutability": "nonpayable",
      "type": "function"
    },
    {
      "inputs": [],
      "name": "getStudents",
      "outputs": [
        {
          "components": [
            {
              "internalType": "string",
              "name": "firstname",
              "type": "string"
            },
            {
              "internalType": "string",
              "name": "lastname",
              "type": "string"
            },
            {
              "internalType": "uint256",
              "name": "age",
              "type": "uint256"
            },
            {
              "internalType": "string",
              "name": "house_address",
              "type": "string"
            },
            {
              "internalType": "address",
              "name": "id",
              "type": "address"
            },
            {
              "internalType": "enum StudentManagementSystem.Status",
              "name": "status",
              "type": "uint8"
            }
          ],
          "internalType": "struct StudentManagementSystem.Student[]",
          "name": "",
          "type": "tuple[]"
        }
      ],
      "stateMutability": "view",
      "type": "function"
    },
    {
      "inputs": [
        {
          "internalType": "string",
          "name": "_firstname",
          "type": "string"
        },
        {
          "internalType": "string",
          "name": "_lastname",
          "type": "string"
        },
        {
          "internalType": "uint256",
          "name": "_age",
          "type": "uint256"
        },
        {
          "internalType": "string",
          "name": "_house_address",
          "type": "string"
        }
      ],
      "name": "new_student",
      "outputs": [],
      "stateMutability": "nonpayable",
      "type": "function"
    },
    {
      "inputs": [
        {
          "internalType": "uint256",
          "name": "",
          "type": "uint256"
        }
      ],
      "name": "student",
      "outputs": [
        {
          "internalType": "string",
          "name": "firstname",
          "type": "string"
        },
        {
          "internalType": "string",
          "name": "lastname",
          "type": "string"
        },
        {
          "internalType": "uint256",
          "name": "age",
          "type": "uint256"
        },
        {
          "internalType": "string",
          "name": "house_address",
          "type": "string"
        },
        {
          "internalType": "address",
          "name": "id",
          "type": "address"
        },
        {
          "internalType": "enum StudentManagementSystem.Status",
          "name": "status",
          "type": "uint8"
        }
      ],
      "stateMutability": "view",
      "type": "function"
    },
    {
      "inputs": [
        {
          "internalType": "uint256",
          "name": "_index",
          "type": "uint256"
        },
        {
          "internalType": "string",
          "name": "_firstname",
          "type": "string"
        },
        {
          "internalType": "string",
          "name": "_lastname",
          "type": "string"
        },
        {
          "internalType": "uint256",
          "name": "_age",
          "type": "uint256"
        },
        {
          "internalType": "string",
          "name": "_house_address",
          "type": "string"
        },
        {
          "internalType": "enum StudentManagementSystem.Status",
          "name": "_status",
          "type": "uint8"
        }
      ],
      "name": "update_student_details",
      "outputs": [],
      "stateMutability": "nonpayable",
      "type": "function"
    }
  ],
  "bytecode": "0x6080604052348015600f57600080fd5b506116658061001f6000396000f3fe608060405234801561001057600080fd5b50600436106100575760003560e01c806335f342321461005c5780633f09a5381461009157806350afd1ce146100ad5780638522b348146100c9578063f1d064b3146100e5575b600080fd5b61007660048036038101906100719190610b68565b610103565b60405161008896959493929190610cec565b60405180910390f35b6100ab60048036038101906100a69190610b68565b610314565b005b6100c760048036038101906100c29190610e97565b6104ab565b005b6100e360048036038101906100de9190610f77565b6105fd565b005b6100ed610811565b6040516100fa9190611228565b60405180910390f35b6000818154811061011357600080fd5b906000526020600020906005020160009150905080600001805461013690611279565b80601f016020809104026020016040519081016040528092919081815260200182805461016290611279565b80156101af5780601f10610184576101008083540402835291602001916101af565b820191906000526020600020905b81548152906001019060200180831161019257829003601f168201915b5050505050908060010180546101c490611279565b80601f01602080910402602001604051908101604052809291908181526020018280546101f090611279565b801561023d5780601f106102125761010080835404028352916020019161023d565b820191906000526020600020905b81548152906001019060200180831161022057829003601f168201915b50505050509080600201549080600301805461025890611279565b80601f016020809104026020016040519081016040528092919081815260200182805461028490611279565b80156102d15780601f106102a6576101008083540402835291602001916102d1565b820191906000526020600020905b8154815290600101906020018083116102b457829003601f168201915b5050505050908060040160009054906101000a900473ffffffffffffffffffffffffffffffffffffffff16908060040160149054906101000a900460ff16905086565b80600080549050811061035c576040517f08c379a0000000000000000000000000000000000000000000000000000000008152600401610353906112f6565b60405180910390fd5b3373ffffffffffffffffffffffffffffffffffffffff166000828154811061038757610386611316565b5b906000526020600020906005020160040160009054906101000a900473ffffffffffffffffffffffffffffffffffffffff1673ffffffffffffffffffffffffffffffffffffffff161461040f576040517f08c379a000000000000000000000000000000000000000000000000000000000815260040161040690611391565b60405180910390fd5b6000828154811061042357610422611316565b5b9060005260206000209060050201600080820160006104429190610ac1565b6001820160006104529190610ac1565b600282016000905560038201600061046a9190610ac1565b6004820160006101000a81549073ffffffffffffffffffffffffffffffffffffffff02191690556004820160146101000a81549060ff021916905550505050565b600033905060006040518060c001604052808781526020018681526020018581526020018481526020018373ffffffffffffffffffffffffffffffffffffffff1681526020016000600281111561050557610504610c75565b5b81525090806001815401808255809150506001900390600052602060002090600502016000909190919091506000820151816000019081610546919061155d565b50602082015181600101908161055c919061155d565b5060408201518160020155606082015181600301908161057c919061155d565b5060808201518160040160006101000a81548173ffffffffffffffffffffffffffffffffffffffff021916908373ffffffffffffffffffffffffffffffffffffffff16021790555060a08201518160040160146101000a81548160ff021916908360028111156105ef576105ee610c75565b5b021790555050505050505050565b856000805490508110610645576040517f08c379a000000000000000000000000000000000000000000000000000000000815260040161063c906112f6565b60405180910390fd5b3373ffffffffffffffffffffffffffffffffffffffff16600082815481106106705761066f611316565b5b906000526020600020906005020160040160009054906101000a900473ffffffffffffffffffffffffffffffffffffffff1673ffffffffffffffffffffffffffffffffffffffff16146106f8576040517f08c379a00000000000000000000000000000000000000000000000000000000081526004016106ef90611391565b60405180910390fd5b856000888154811061070d5761070c611316565b5b9060005260206000209060050201600001908161072a919061155d565b5084600088815481106107405761073f611316565b5b9060005260206000209060050201600101908161075d919061155d565b50836000888154811061077357610772611316565b5b906000526020600020906005020160020181905550826000888154811061079d5761079c611316565b5b906000526020600020906005020160030190816107ba919061155d565b5081600088815481106107d0576107cf611316565b5b906000526020600020906005020160040160146101000a81548160ff0219169083600281111561080357610802610c75565b5b021790555050505050505050565b60606000805480602002602001604051908101604052809291908181526020016000905b82821015610ab857838290600052602060002090600502016040518060c001604052908160008201805461086890611279565b80601f016020809104026020016040519081016040528092919081815260200182805461089490611279565b80156108e15780601f106108b6576101008083540402835291602001916108e1565b820191906000526020600020905b8154815290600101906020018083116108c457829003601f168201915b505050505081526020016001820180546108fa90611279565b80601f016020809104026020016040519081016040528092919081815260200182805461092690611279565b80156109735780601f1061094857610100808354040283529160200191610973565b820191906000526020600020905b81548152906001019060200180831161095657829003601f168201915b505050505081526020016002820154815260200160038201805461099690611279565b80601f01602080910402602001604051908101604052809291908181526020018280546109c290611279565b8015610a0f5780601f106109e457610100808354040283529160200191610a0f565b820191906000526020600020905b8154815290600101906020018083116109f257829003601f168201915b505050505081526020016004820160009054906101000a900473ffffffffffffffffffffffffffffffffffffffff1673ffffffffffffffffffffffffffffffffffffffff1673ffffffffffffffffffffffffffffffffffffffff1681526020016004820160149054906101000a900460ff166002811115610a9357610a92610c75565b5b6002811115610aa557610aa4610c75565b5b8152505081526020019060010190610835565b50505050905090565b508054610acd90611279565b6000825580601f10610adf5750610afe565b601f016020900490600052602060002090810190610afd9190610b01565b5b50565b5b80821115610b1a576000816000905550600101610b02565b5090565b6000604051905090565b600080fd5b600080fd5b6000819050919050565b610b4581610b32565b8114610b5057600080fd5b50565b600081359050610b6281610b3c565b92915050565b600060208284031215610b7e57610b7d610b28565b5b6000610b8c84828501610b53565b91505092915050565b600081519050919050565b600082825260208201905092915050565b60005b83811015610bcf578082015181840152602081019050610bb4565b60008484015250505050565b6000601f19601f8301169050919050565b6000610bf782610b95565b610c018185610ba0565b9350610c11818560208601610bb1565b610c1a81610bdb565b840191505092915050565b610c2e81610b32565b82525050565b600073ffffffffffffffffffffffffffffffffffffffff82169050919050565b6000610c5f82610c34565b9050919050565b610c6f81610c54565b82525050565b7f4e487b7100000000000000000000000000000000000000000000000000000000600052602160045260246000fd5b60038110610cb557610cb4610c75565b5b50565b6000819050610cc682610ca4565b919050565b6000610cd682610cb8565b9050919050565b610ce681610ccb565b82525050565b600060c0820190508181036000830152610d068189610bec565b90508181036020830152610d1a8188610bec565b9050610d296040830187610c25565b8181036060830152610d3b8186610bec565b9050610d4a6080830185610c66565b610d5760a0830184610cdd565b979650505050505050565b600080fd5b600080fd5b7f4e487b7100000000000000000000000000000000000000000000000000000000600052604160045260246000fd5b610da482610bdb565b810181811067ffffffffffffffff82111715610dc357610dc2610d6c565b5b80604052505050565b6000610dd6610b1e565b9050610de28282610d9b565b919050565b600067ffffffffffffffff821115610e0257610e01610d6c565b5b610e0b82610bdb565b9050602081019050919050565b82818337600083830152505050565b6000610e3a610e3584610de7565b610dcc565b905082815260208101848484011115610e5657610e55610d67565b5b610e61848285610e18565b509392505050565b600082601f830112610e7e57610e7d610d62565b5b8135610e8e848260208601610e27565b91505092915050565b60008060008060808587031215610eb157610eb0610b28565b5b600085013567ffffffffffffffff811115610ecf57610ece610b2d565b5b610edb87828801610e69565b945050602085013567ffffffffffffffff811115610efc57610efb610b2d565b5b610f0887828801610e69565b9350506040610f1987828801610b53565b925050606085013567ffffffffffffffff811115610f3a57610f39610b2d565b5b610f4687828801610e69565b91505092959194509250565b60038110610f5f57600080fd5b50565b600081359050610f7181610f52565b92915050565b60008060008060008060c08789031215610f9457610f93610b28565b5b6000610fa289828a01610b53565b965050602087013567ffffffffffffffff811115610fc357610fc2610b2d565b5b610fcf89828a01610e69565b955050604087013567ffffffffffffffff811115610ff057610fef610b2d565b5b610ffc89828a01610e69565b945050606061100d89828a01610b53565b935050608087013567ffffffffffffffff81111561102e5761102d610b2d565b5b61103a89828a01610e69565b92505060a061104b89828a01610f62565b9150509295509295509295565b600081519050919050565b600082825260208201905092915050565b6000819050602082019050919050565b600082825260208201905092915050565b60006110a082610b95565b6110aa8185611084565b93506110ba818560208601610bb1565b6110c381610bdb565b840191505092915050565b6110d781610b32565b82525050565b6110e681610c54565b82525050565b6110f581610ccb565b82525050565b600060c08301600083015184820360008601526111188282611095565b915050602083015184820360208601526111328282611095565b915050604083015161114760408601826110ce565b506060830151848203606086015261115f8282611095565b915050608083015161117460808601826110dd565b5060a083015161118760a08601826110ec565b508091505092915050565b600061119e83836110fb565b905092915050565b6000602082019050919050565b60006111be82611058565b6111c88185611063565b9350836020820285016111da85611074565b8060005b8581101561121657848403895281516111f78582611192565b9450611202836111a6565b925060208a019950506001810190506111de565b50829750879550505050505092915050565b6000602082019050818103600083015261124281846111b3565b905092915050565b7f4e487b7100000000000000000000000000000000000000000000000000000000600052602260045260246000fd5b6000600282049050600182168061129157607f821691505b6020821081036112a4576112a361124a565b5b50919050565b7f4e6f7420666f756e640000000000000000000000000000000000000000000000600082015250565b60006112e0600983610ba0565b91506112eb826112aa565b602082019050919050565b6000602082019050818103600083015261130f816112d3565b9050919050565b7f4e487b7100000000000000000000000000000000000000000000000000000000600052603260045260246000fd5b7f4e6f74206f776e65720000000000000000000000000000000000000000000000600082015250565b600061137b600983610ba0565b915061138682611345565b602082019050919050565b600060208201905081810360008301526113aa8161136e565b9050919050565b60008190508160005260206000209050919050565b60006020601f8301049050919050565b600082821b905092915050565b6000600883026114137fffffffffffffffffffffffffffffffffffffffffffffffffffffffffffffffff826113d6565b61141d86836113d6565b95508019841693508086168417925050509392505050565b6000819050919050565b600061145a61145561145084610b32565b611435565b610b32565b9050919050565b6000819050919050565b6114748361143f565b61148861148082611461565b8484546113e3565b825550505050565b600090565b61149d611490565b6114a881848461146b565b505050565b5b818110156114cc576114c1600082611495565b6001810190506114ae565b5050565b601f821115611511576114e2816113b1565b6114eb846113c6565b810160208510156114fa578190505b61150e611506856113c6565b8301826114ad565b50505b505050565b600082821c905092915050565b600061153460001984600802611516565b1980831691505092915050565b600061154d8383611523565b9150826002028217905092915050565b61156682610b95565b67ffffffffffffffff81111561157f5761157e610d6c565b5b6115898254611279565b6115948282856114d0565b600060209050601f8311600181146115c757600084156115b5578287015190505b6115bf8582611541565b865550611627565b601f1984166115d5866113b1565b60005b828110156115fd578489015182556001820191506020850194506020810190506115d8565b8683101561161a5784890151611616601f891682611523565b8355505b6001600288020188555050505b50505050505056fea26469706673582212205a8bdf53e3b48a4322dfc3ada4f05c2befee447b372996bb2645833e7d7d750e64736f6c634300081c0033",
  "linkReferences": {},
  "deployedLinkReferences": {}
}