{
  "_format": "hh-sol-artifact-1",
  "contractName": "PermitSwap",
  "sourceName": "contracts/Swap.sol",
  "abi": [
    {
      "inputs": [
        {
          "internalType": "address",
          "name": "_uniswapRouter",
          "type": "address"
        }
      ],
      "stateMutability": "nonpayable",
      "type": "constructor"
    },
    {
      "inputs": [
        {
          "internalType": "address",
          "name": "tokenIn",
          "type": "address"
        },
        {
          "internalType": "uint256",
          "name": "amountIn",
          "type": "uint256"
        },
        {
          "internalType": "uint256",
          "name": "amountOutMin",
          "type": "uint256"
        },
        {
          "internalType": "address[]",
          "name": "path",
          "type": "address[]"
        },
        {
          "internalType": "address",
          "name": "to",
          "type": "address"
        },
        {
          "internalType": "uint256",
          "name": "deadline",
          "type": "uint256"
        },
        {
          "internalType": "uint8",
          "name": "v",
          "type": "uint8"
        },
        {
          "internalType": "bytes32",
          "name": "r",
          "type": "bytes32"
        },
        {
          "internalType": "bytes32",
          "name": "s",
          "type": "bytes32"
        }
      ],
      "name": "swapWithPermit",
      "outputs": [],
      "stateMutability": "nonpayable",
      "type": "function"
    },
    {
      "inputs": [],
      "name": "uniswapRouter",
      "outputs": [
        {
          "internalType": "contract IUniswapV2Router",
          "name": "",
          "type": "address"
        }
      ],
      "stateMutability": "view",
      "type": "function"
    }
  ],
  "bytecode": "0x608060405234801561001057600080fd5b5060405161096d38038061096d833981810160405281019061003291906100db565b806000806101000a81548173ffffffffffffffffffffffffffffffffffffffff021916908373ffffffffffffffffffffffffffffffffffffffff16021790555050610108565b600080fd5b600073ffffffffffffffffffffffffffffffffffffffff82169050919050565b60006100a88261007d565b9050919050565b6100b88161009d565b81146100c357600080fd5b50565b6000815190506100d5816100af565b92915050565b6000602082840312156100f1576100f0610078565b5b60006100ff848285016100c6565b91505092915050565b610856806101176000396000f3fe608060405234801561001057600080fd5b50600436106100365760003560e01c80632dce67a11461003b578063735de9f714610057575b600080fd5b61005560048036038101906100509190610344565b610075565b005b61005f6101a4565b60405161006c919061048e565b60405180910390f35b8973ffffffffffffffffffffffffffffffffffffffff1663d505accf33308c888888886040518863ffffffff1660e01b81526004016100ba97969594939291906104e5565b600060405180830381600087803b1580156100d457600080fd5b505af11580156100e8573d6000803e3d6000fd5b5050505060008054906101000a900473ffffffffffffffffffffffffffffffffffffffff1673ffffffffffffffffffffffffffffffffffffffff166338ed17398a8a8a8a8a8a6040518763ffffffff1660e01b815260040161014f96959493929190610617565b6000604051808303816000875af115801561016e573d6000803e3d6000fd5b505050506040513d6000823e3d601f19601f8201168201806040525081019061019791906107d7565b5050505050505050505050565b60008054906101000a900473ffffffffffffffffffffffffffffffffffffffff1681565b6000604051905090565b600080fd5b600080fd5b600073ffffffffffffffffffffffffffffffffffffffff82169050919050565b6000610207826101dc565b9050919050565b610217816101fc565b811461022257600080fd5b50565b6000813590506102348161020e565b92915050565b6000819050919050565b61024d8161023a565b811461025857600080fd5b50565b60008135905061026a81610244565b92915050565b600080fd5b600080fd5b600080fd5b60008083601f84011261029557610294610270565b5b8235905067ffffffffffffffff8111156102b2576102b1610275565b5b6020830191508360208202830111156102ce576102cd61027a565b5b9250929050565b600060ff82169050919050565b6102eb816102d5565b81146102f657600080fd5b50565b600081359050610308816102e2565b92915050565b6000819050919050565b6103218161030e565b811461032c57600080fd5b50565b60008135905061033e81610318565b92915050565b6000806000806000806000806000806101208b8d031215610368576103676101d2565b5b60006103768d828e01610225565b9a505060206103878d828e0161025b565b99505060406103988d828e0161025b565b98505060608b013567ffffffffffffffff8111156103b9576103b86101d7565b5b6103c58d828e0161027f565b975097505060806103d88d828e01610225565b95505060a06103e98d828e0161025b565b94505060c06103fa8d828e016102f9565b93505060e061040b8d828e0161032f565b92505061010061041d8d828e0161032f565b9150509295989b9194979a5092959850565b6000819050919050565b600061045461044f61044a846101dc565b61042f565b6101dc565b9050919050565b600061046682610439565b9050919050565b60006104788261045b565b9050919050565b6104888161046d565b82525050565b60006020820190506104a3600083018461047f565b92915050565b6104b2816101fc565b82525050565b6104c18161023a565b82525050565b6104d0816102d5565b82525050565b6104df8161030e565b82525050565b600060e0820190506104fa600083018a6104a9565b61050760208301896104a9565b61051460408301886104b8565b61052160608301876104b8565b61052e60808301866104c7565b61053b60a08301856104d6565b61054860c08301846104d6565b98975050505050505050565b600082825260208201905092915050565b6000819050919050565b610578816101fc565b82525050565b600061058a838361056f565b60208301905092915050565b60006105a56020840184610225565b905092915050565b6000602082019050919050565b60006105c68385610554565b93506105d182610565565b8060005b8581101561060a576105e78284610596565b6105f1888261057e565b97506105fc836105ad565b9250506001810190506105d5565b5085925050509392505050565b600060a08201905061062c60008301896104b8565b61063960208301886104b8565b818103604083015261064c8186886105ba565b905061065b60608301856104a9565b61066860808301846104b8565b979650505050505050565b6000601f19601f8301169050919050565b7f4e487b7100000000000000000000000000000000000000000000000000000000600052604160045260246000fd5b6106bc82610673565b810181811067ffffffffffffffff821117156106db576106da610684565b5b80604052505050565b60006106ee6101c8565b90506106fa82826106b3565b919050565b600067ffffffffffffffff82111561071a57610719610684565b5b602082029050602081019050919050565b60008151905061073a81610244565b92915050565b600061075361074e846106ff565b6106e4565b905080838252602082019050602084028301858111156107765761077561027a565b5b835b8181101561079f578061078b888261072b565b845260208401935050602081019050610778565b5050509392505050565b600082601f8301126107be576107bd610270565b5b81516107ce848260208601610740565b91505092915050565b6000602082840312156107ed576107ec6101d2565b5b600082015167ffffffffffffffff81111561080b5761080a6101d7565b5b610817848285016107a9565b9150509291505056fea2646970667358221220265f9f418b19b69064ec0e3899685e8320dc9ad11b72c8a1f3bb9e38f998313064736f6c634300081c0033",
  "linkReferences": {},
  "deployedLinkReferences": {}
}